:100000000C9460000C9488000C9488000C94880078
:100010000C9488000C9488000C9488000C94880040
:100020000C9488000C9488000C9488000C94880030
:100030000C9488000C9488000C9488000C94880020
:100040000C94D61B0C9488000C94DD1A0C940F1B96
:100050000C9488000C9488000C9488000C94880000
:100060000C94291F0C948800000000080002010075
:100070000003040700000000000000000102040863
:100080001020408001020408102001020408102002
:10009000040404040404040402020202020203032E
:1000A0000303030300000000250028002B000000CC
:1000B0000000240027002A0046183F1B231E751845
:1000C00011241FBECFEFD8E0DEBFCDBF12E0A0E00D
:1000D000B1E0E4E2F3E502C005900D92AE3AB1075B
:1000E000D9F724E0AEEAB2E001C01D92A532B20712
:1000F000E1F710E0CFE5D0E004C02197FE010E94B7
:100100008122CC35D107C9F70E94C31B0C948529E5
:100110000C9400002CE031E0FC0131832083089531
:100120000895FC0186E191E091838083828193812F
:10013000268137812817390711F00C945D25089521
:10014000CF93DF93EC01CE010E94C524009761F4A8
:10015000E091AE02F091AF02309721F480E090E0A0
:100160000E9485290995EFCFDF91CF9108958F9255
:100170009F92AF92BF92CF92DF92EF92FF920F9336
:100180001F93CF93DF93EC014B016417750709F4BC
:1001900058C08A819B81E881F9817C01EE1AFF0AAF
:1001A0006A01C61AD70AB6016E0D7F1D2C813D81EA
:1001B0002E1B3F0B215031092617370708F052C07C
:1001C0002FEFE21AF20AC601A4E1CA16D10410F414
:1001D00084E190E0E80EF91EE114F10409F43FC057
:1001E000C7010E94A0005C01688179810A811B819E
:1001F000061B170BA801C5010E9428260A0D1B1D0E
:10020000A601B401C8010E9428260C0D1D1DB801CD
:1002100081E090E00E94B419FC011082D8011C9288
:10022000888199812C813D812817390711F00E941E
:100230005D25B982A8821B830A83EA0CFB1CFD8220
:10024000EC82CE01DF91CF911F910F91FF90EF9043
:10025000DF90CF90BF90AF909F908F900895A12C8A
:10026000B12CC2CFB4016F5F7F4F461B570B019675
:100270000E9428260A811B810C0D1D1DB80181E0FA
:1002800090E00E94B419FC011082D8011C92EA810E
:10029000FB81D4018C9180830A811B810C0D1D1D73
:1002A0001B830A83CECFAF92BF92CF92DF92EF92A1
:1002B000FF920F931F93CF93DF93EC016C0182E0C9
:1002C000C80ED11CC616D70641F1FB01A280B3802F
:1002D000008111818A819B814C815D81481B590B72
:1002E0007501E01AF10A4E155F0510F1A701B8017A
:1002F0000E941F26EC81FD81AA81BB81AE0DBF1D2E
:10030000EA17FB0751F080818C93EA1BFB0B8C8171
:100310009D818E1B9F0B9D838C83DF91CF911F91BD
:100320000F91FF90EF90DF90CF90BF90AF90089526
:10033000B8010E941F266C817D818A819B81681B88
:10034000790B600F711F20E0A501C6010E94B70064
:10035000E4CFCF92DF92EF92FF920F931F93CF9350
:10036000DF938C016B017A01E61AF70AE701219607
:10037000CF3F8FEFD80771F0209751F1CE010E9447
:10038000A000F80191838083938382838C0F9D1F4B
:1003900095838483F801C081D181A701B601CE0184
:1003A0000E942826CE0DDF1DF801D383C283BE0133
:1003B00081E090E00E94B419FC0110821882DF9164
:1003C000CF911F910F91FF90EF90DF90CF90089504
:1003D00080E090E0D6CFFC0186E191E091838083BC
:1003E000138212821582148217821682DB01129602
:1003F0004D915C9113976D917C91CF0102960C9475
:10040000A901CF93DF93EC01198218821B821A8213
:100410001D821C82FB0144815581628173810E948F
:10042000A901CE01DF91CF910895089521E431E033
:10043000FC01318320832BE431E033832283089550
:10044000DC01ED91FC9136970190F081E02DE80FF1
:10045000F91F81E491E0918380838BE491E09383A1
:100460008283089508950895242FDC01ED91FC9175
:100470000084F185E02D41E0099480E090E008954A
:10048000FC012289338980899189281B390B86894F
:100490009789A901481B590BCA010895EF92FF9251
:1004A0000F931F93CF93DF93FC01DB0160E070E0BB
:1004B000CB0106891789E088F188C289D389CE19D2
:1004C000DF090C171D07A0F462177307840795074F
:1004D0007CF4E701C00FD11FC881CD936F5F7F4FC0
:1004E0008F4F9F4FC689D7892196D78BC68BE1CF77
:1004F000DF91CF911F910F91FF90EF900895FC0134
:10050000468957892089318982899389821B930B77
:100510004817590730F4240F351FF901808190E006
:1005200008958FEF9FEF0895CF93DF93EC01E8815B
:10053000F9810288F389E02D09958F3F2FEF92070B
:1005400031F02E893F892F5F3F4F3F8B2E8BDF91FC
:10055000CF910895FC0186899789009759F0A08969
:10056000B189228933892A1B3B0B2817390728F4C4
:10057000378B268B6FEF7FEF09C001976F3F2FEF0F
:10058000720731F4978B868B60E070E0CB010895A1
:10059000A80FB91F2C91261303C0978B868BF6CF1B
:1005A000278524FFE7CF978B868B6C93EFCF0C9436
:1005B000D41B21E431E0FC01318320832BE431E0C2
:1005C000338322830C94D41BDC01ED91FC9136978C
:1005D00020813181820F931F0C94D90223EA31E0EC
:1005E000FC01318320830C949000CF93DF93EC01C6
:1005F0000E94EE02CE01DF91CF910C94D41BEF92BA
:10060000FF920F931F93CF93DF937C018B01EA013D
:1006100064177507A1F0FC01408151814C1B5D0BF3
:100620004F5F5F4FBE01C8010E942826C01BD10B3F
:10063000F701808191818C1B9D0B91838083C80180
:10064000DF91CF911F910F91FF90EF900895CF937D
:10065000DF93EC010E948A0083EA91E0998388830A
:10066000DF91CF910895DB012D913C91FC01318305
:10067000208326503109D901ED91FC91E80FF91F33
:10068000DB0112968D919C9113979183808381E277
:1006900090E094838383548B438B1582158A08954D
:1006A000FC0181E290E09683858317821086118693
:1006B00086E090E0A0E0B0E082879387A487B587CA
:1006C00016861786108A118A80E2828B148A138A12
:1006D000768B658B178A81E491E0918380838BE42C
:1006E00091E093838283089561157105C9F4FA013D
:1006F00020813181FC01318320836115710599F4DA
:1007000026503109F90120813181820F931F672B17
:1007100069F4FA0122813381FC0131832083089539
:1007200021E431E0E7CF22E030E0EFCF2BE431E00D
:10073000F3CFAB0160E070E00C9474038F929F9252
:10074000AF92BF92EF92FF920F931F93CF93DF93DD
:10075000EC017B0149015A01E881F981369701904A
:10076000F081E02DE80FF91F03891489D8011F9645
:100770008C911F9780FF0BC0ED91FC910084F18557
:10078000E02D20E144E060E070E0C8010995D80167
:10079000ED91FC91008CF18DE02DA5019401B70144
:1007A000C80109956F3F7F4F81F4E881F981369741
:1007B0000190F081E02DEC0FFD1F8581982F926054
:1007C00023893489232B69F09583CE01DF91CF9162
:1007D0001F910F91FF90EF90BF90AF909F908F90DF
:1007E000089583608583F1CFCF93DF93EC01E88197
:1007F000F98136970190F081E02DE80FF91F838988
:100800009489DC01ED91FC910484F585E02D099536
:10081000019659F4E881F98136970190F081E02D35
:10082000EC0FFD1F858181608583CE01DF91CF9123
:1008300008950F931F93CF93DF93EC018B01E88111
:10084000F98136970190F081E02DE80FF91F818939
:100850009289009711F00E94F403F80101900020A2
:10086000E9F73197E01BF10B9F0140E050E0B80140
:10087000CE010E949E03CE01DF91CF911F910F9177
:1008800008952F923F924F925F926F927F928F9234
:100890009F92AF92BF92CF92DF92EF92FF920F930F
:1008A0001F93CF93DF93CDB7DEB7A0970FB6F89421
:1008B000DEBF0FBECDBF7C014A015B0120E030E00E
:1008C000A901C501B4010E94F42287FF26C08DE270
:1008D0008983B7FAB094B7F8B0948E010E5F1F4FBA
:1008E000D701ED91FC9136970190F081E02DEE0D4E
:1008F000FF1DC084D184712C60E070E080E09FE334
:10090000272D30E02C153D0564F420E030E040E276
:1009100051E40E94F9227394F3CF8E010F5F1F4FB1
:10092000DFCF9B01AC01C501B4010E9488224B01BD
:100930005C010E9472232B013C012AE0A8010E9465
:10094000452618018101BFEF2B1A3B0AF80180816F
:100950008111F8CF1C141D04BCF5C301B2010E9423
:10096000A1239B01AC01C501B4010E9487222EE2A4
:10097000D8012C938101B1E0CB1AD10828F120E0F5
:1009800030E040E251E40E9458242B013C010E94D7
:100990006B234B015C014AE0B801C4010E943A2676
:1009A000C8018C010196D8012C912111FACFB40114
:1009B000990C880B990B0E94A3239B01AC01C301E6
:1009C000B2010E948722D7CFBE016F5F7F4F98018F
:1009D000261B370B032E000C440B550BC7010E943E
:1009E0009E03D701ED91FC9136970190F081E02DA7
:1009F000EE0DFF1D8381948196FF03C0C7010E9405
:100A0000F403A0960FB6F894DEBF0FBECDBFDF9102
:100A1000CF911F910F91FF90EF90DF90CF90BF90FB
:100A2000AF909F908F907F906F905F904F903F908E
:100A30002F900895CF92DF92EF92FF92CF93DF93A2
:100A4000EC016A017B01E881F98136970190F08120
:100A5000E02DE80FF91F81899289009711F00E941B
:100A6000F403B701A601CE010E944104CE01DF913B
:100A7000CF91FF90EF90DF90CF900895FC0180819F
:100A80009181248135812817390711F00C945D2557
:100A9000089523E531E0FC013183208340960C94D6
:100AA0003E05EF92FF920F931F93CF93DF938C013C
:100AB0007B01EA01672B41F588819981F8019183D7
:100AC0008083E114F10419F50697FC01808191817E
:100AD000800F911FE114F104E9F42E813F81FC01A4
:100AE00031832083C80102960E944905EF28A9F4AA
:100AF000BE016E5F7F4FC801DF91CF911F910F91B3
:100B0000FF90EF900C94990381E991E0D7CF8CE1AD
:100B100090E0DECF2BE931E0E2CF65E871E0EBCF8A
:100B2000AB0160E070E00C94510540E050E062E001
:100B300070E00C945105DC01ED91FC913697208119
:100B40003181820F931F0C949505CF93DF93EC01B5
:100B50000E949505CE01DF91CF910C94D41BDC014E
:100B6000ED91FC91369720813181820F931F0C9477
:100B7000A505CF93DF93EC010E944905CE01DF91DB
:100B8000CF910C94D41BBC0181E090E00E94B41979
:100B9000FC01108208950F931F93CF93DF93EC0114
:100BA000198218821B821A821D821C8288E090E0C2
:100BB0000E94A0008C01998388839B838A83089676
:100BC0009D838C83C8010E94C305F8011082DF91C8
:100BD000CF911F910F910895FF920F931F93CF9381
:100BE000DF931F92CDB7DEB78C01F62EAC014E5FBE
:100BF0005F4F81E290E0F80190A3878F11A212A2CB
:100C000013A286E090E0A0E0B0E084A395A3A6A3A1
:100C1000B7A310A611A612A613A683E391E0958FA1
:100C2000848F80E284A716A615A650AB47A711AA09
:100C300065E871E0C8010E94330381E991E0F801A1
:100C4000918380838BE991E0958F848F1682158242
:100C500010861782128611861486138616861586CC
:100C6000108A1786118A83E591E093838283BE01FF
:100C70006F5F7F4FC80142960E94CB05F801118E2D
:100C8000108E138E128EF18A0F90DF91CF911F91EB
:100C90000F91FF900895DF92EF92FF920F931F93B1
:100CA000CF93DF931F92CDB7DEB78C017B01D42E9B
:100CB000AC014E5F5F4F6E5F7F4F0E943303D701E1
:100CC0008D919C911197F8019183808316962D91B7
:100CD0003C9117970697DC01ED91FC91E00FF11F15
:100CE00031832083F80116821582108617821286BE
:100CF00011861486138616861586108A1786118A21
:100D000083E591E093838283BE016F5F7F4FC801CB
:100D100042960E94CB05D80159961C921E92589774
:100D20005B961C921E925A975196DC920F90DF911F
:100D3000CF911F910F91FF90EF90DF9008950F9347
:100D40001F93CF93DF938A01EB01C81BD90BAE0130
:100D5000BC01C8010E942826C8018C0F9D1FDF918D
:100D6000CF911F910F910895CF92DF92EF92FF9252
:100D70000F931F93CF93DF938C01FC01C281D3812A
:100D800080819181C81BD90BC617D70708F4EB01E6
:100D9000219631F1CE010E94A0007C01F801628110
:100DA0007381A701808191810E949F066C010E943E
:100DB000C305F6011082C8010E943E05F801F182C8
:100DC000E082D382C282CE0DDF1DD583C483DF9142
:100DD000CF911F910F91FF90EF90DF90CF900895EA
:100DE000E12CF12CDBCFDF92EF92FF920F931F9358
:100DF000CF93DF93EC018B016F3F7F4F09F447C026
:100E00008F8584FF47C0488D598D2A893B89888901
:100E10009989B901681B790B4617570798F1D02EAD
:100E20002F5F3F4F8C899D898217930759F4611575
:100E3000710531F581E090E0680F791FCE01409691
:100E40000E94B406EA88FB88C70101960E94C30588
:100E5000F7011182EA89FB89D0828A899B890196F0
:100E60009B8B8A8B888D998D0196998F888FC8016D
:100E7000DF91CF911F910F91FF90EF90DF90089538
:100E8000CB01DACF840F951FFC010083EBCF00E08C
:100E900010E0EDCF0FEF1FEFEACF0F931F93CF932B
:100EA000DF938C01822F8870922F907128712831E6
:100EB00031F4423009F049C08FEF9FEF29C0413033
:100EC00061F5EB01F80142895389608971899A01C2
:100ED000261B370B2C173D0778F3882311F0D78B8F
:100EE000C68B9923A1F06C0F7D1FC80142960E940A
:100EF000FF02F8018289938920893189821B930B33
:100F0000268937898217930710F4978B868BCE0139
:100F1000DF91CF911F910F9108954230C9F4992329
:100F200089F0F801C289D38920893189C21BD30B8A
:100F3000C60FD71F882331F2F801C689D789C60F9B
:100F4000D71FC0CFC0E0D0E0F5CF413009F4B9CF12
:100F5000F801C289D38920893189C21BD30BEFCF15
:100F60002F923F924F925F926F927F928F929F92B9
:100F7000AF92BF92CF92DF92EF92FF920F931F93A7
:100F8000CF93DF93CDB7DEB7EE970FB6F894DEBF01
:100F90000FBECDBF1C01DB0112960D911C91139762
:100FA000F801628D738D072E000C880B990B0E943F
:100FB000A3232AE037ED43E25CE30E94582420E0BB
:100FC00030E043E053E40E94F922D80190962D913D
:100FD0003D914D915C9193970E9488224B015C0159
:100FE000F80160A371A382A393A3648D758D072E6E
:100FF000000C880B990B0E94A3232AE037ED43E2F3
:101000005CE30E94582420E030E043E053E40E9477
:10101000F922D80194962D913D914D915C9197972D
:101020000E9488226B017C01F80164A375A386A34A
:1010300097A3668D778D072E000C880B990B0E9465
:10104000A3232AE037ED43E25CE30E94582420E02A
:1010500030E043E053E40E94F922D80198962D91A4
:101060003D914D915C919B970E9488226BAB7CAB2C
:101070008DAB9EABF80160A771A782A793A760858F
:101080007185072E000C880B990B0E94A3232AE080
:1010900037ED43E25CE30E94582420E030E043E077
:1010A00053E40E94F9222B013C01D8011E966D9158
:1010B0007C911F97072E000C880B990B0E94A3238D
:1010C0009B01AC01C301B2010E9488220E946B23E4
:1010D0006FAB78AF89AF9AAF4FA958ADF80157877A
:1010E000468762857385072E000C880B990B0E943A
:1010F000A3232AE037ED43E25CE30E94582420E07A
:1011000030E043E053E40E94F9222B013C01D80176
:1011100050966D917C915197072E000C880B990B7E
:101120000E94A3239B01AC01C301B2010E9488224B
:101130000E946B236BAF7CAF8DAF9EAF4BAD5CADB0
:10114000F801518B408B64857585072E000C880B48
:10115000990B0E94A3232AE037ED43E25CE30E944F
:10116000582420E030E043E053E40E94F9222B01B0
:101170003C01D80152966D917C915397072E000C3B
:10118000880B990B0E94A3239B01AC01C301B20100
:101190000E9488220E946B23F801738B628B248942
:1011A00035894FA958AD240F351F358B248B2689DF
:1011B0003789ABADBCAD2A0F3B1F378B268B208DFB
:1011C000318DC901860F971F918F808F20E030E00D
:1011D000A901C501B4010E94F42287FF0DC020E0DF
:1011E00030E044EB53E4C501B4010E948822F801C9
:1011F00060A371A382A393A3D80190968D909D9034
:10120000AD90BC90939720E030E044EB53E4C501EF
:10121000B4010E94532418166CF420E030E044EB33
:1012200053E4C501B4010E948722F80160A371A3B1
:1012300082A393A320E030E0A901C701B6010E9478
:10124000F42287FF0FC020E030E044EB53E4C701F5
:10125000B6010E948822D80194966D937D938D9358
:101260009C939797F801C4A0D5A0E6A0F7A020E032
:1012700030E044EB53E4C701B6010E945324181632
:101280007CF420E030E044EB53E4C701B6010E9457
:101290008722D80194966D937D938D939C93979715
:1012A00020E030E0A9016BA97CA98DA99EA90E942C
:1012B000F42287FF0FC020E030E044EB53E46BA939
:1012C0007CA98DA99EA90E948822F80160A771A718
:1012D00082A793A7D8019896CD90DD90ED90FC90D1
:1012E0009B9720E030E044EB53E4C701B6010E9435
:1012F000532418166CF420E030E044EB53E4C701AB
:10130000B6010E948722F80160A771A782A793A760
:1013100060E1CE0101960E94EC05D8019896CD902F
:10132000DD90ED90FC909B9794968D909D90AD9064
:10133000BC90979790964D905D906D907C90939710
:1013400060E271E0CE0101960E941904B301A2018E
:101350000E941A0565E271E00E94190467E271E0DB
:101360000E941904B501A4010E941A0565E271E00A
:101370000E9419046BE271E00E941904B701A601F2
:101380000E941A0561E772E00E941904F1011182BE
:1013900010821382128215821482ED88FE880B89D6
:1013A0001C896701C01AD10AFFEFCF1ADF0A4FEF7D
:1013B000C416D406A9F0C114D10409F440C0C60172
:1013C0000E94A000D10111969C938E9313969C933A
:1013D0008E9312978C0D9D1D15969C938E9314974A
:1013E000F10140815181B701C8010E949F068C0123
:1013F000D10113969C938E9312970E94C305F80116
:101400001082CE0101960E949505C101EE960FB69D
:10141000F894DEBF0FBECDBFDF91CF911F910F912A
:10142000FF90EF90DF90CF90BF90AF909F908F9004
:101430007F906F905F904F903F902F90089580E045
:1014400090E0C0CF4F925F926F927F928F929F9267
:10145000AF92BF92CF92DF92EF92FF920F931F93C2
:10146000CF93DF93EC017B016A01590142175307C7
:1014700009F497C08901041B150B8A819B812C817B
:101480003D81281B390B021713070CF056C03C0195
:10149000661A770A9C012F5F3F4F4901601671065B
:1014A0006CF1801B910BA901B90101960E949F0666
:1014B0008A819B81800F911F9B838A83A301401B9C
:1014C000510B4F5F5F4FB701C701800F911F0E9403
:1014D0002826A801B601C701DF91CF911F910F9176
:1014E000FF90EF90DF90CF90BF90AF909F908F9044
:1014F0007F906F905F904F900C941F2623013FEFD9
:10150000431A530AA401B501C601840D951D0E941A
:101510009F06061917094A815B81400F511F5B83A3
:101520004A83B401C7010E949F064A815B81640E11
:10153000751E7B826A82A201CDCF28813981821BF0
:10154000930B01960431110510F404E110E0080F2B
:10155000191F01151105B1F1C8010E94A0004C012D
:10156000A401B701888199810E949F06AC01B50151
:10157000C6010E949F066A817B81AC01C7010E945F
:101580009F067C010E94C305F7011082CE010E94D4
:101590003E0599828882FB82EA82080D191D1D830F
:1015A0000C83DF91CF911F910F91FF90EF90DF900F
:1015B000CF90BF90AF909F908F907F906F905F90F3
:1015C0004F900895812C912CCBCF4F925F926F92C8
:1015D0007F92AF92BF92CF92DF92EF92FF920F93E2
:1015E0001F93CF93DF937C016B0129013A01FC012A
:1015F000608D718D00891189C289D389C01BD10B7F
:10160000C61BD70B2C173D0708F4E9015B01AC0E94
:10161000BD1EA00EB11E060F171FC415D5052CF157
:10162000A201B601C8010E941F26B801640D751DF4
:10163000A501C70142960E94FF02F701808D918D9E
:10164000840D951D918F808FC301B201DF91CF91E1
:101650001F910F91FF90EF90DF90CF90BF90AF90D0
:101660007F906F905F904F900895AE01B601C801D2
:101670000E941F269601240D351DA6014C0F5D1FEB
:1016800000E0B501C70140960E94220AD6CF2DEB9B
:1016900031E0FC01318320830C949100CF93DF93E0
:1016A000EC010E94470BCE01DF91CF910C94D41B2B
:1016B000CF93DF93FC01A081B1818C91811112C085
:1016C0001196CD91DC91129789819A81A817B9075B
:1016D00049F415968D919C91169791838083DF91A3
:1016E000CF9108951396CD91DC911497209789F4AA
:1016F00011960D90BC91A02D2081318113968D9172
:101700009C911497B183A0832817390789F3E7CFF9
:10171000EC018D819E810097D9F7D183C083DFCF03
:10172000CF93DF93FC01A581B6811396CD91DC9117
:101730001497D683C583209711F09A83898381817A
:10174000928112969C938E931197EB0188819981D7
:10175000E817F90759F4B983A8831496FC93EE931C
:101760001397B283A183DF91CF910895C181D28174
:101770008B819C81E817F90719F4BC83AB83EDCF0B
:10178000BE83AD83EACFCF93DF93FC01A381B48105
:101790001596CD91DC911697D483C383209711F0D1
:1017A0009A8389838181928112969C938E9311975B
:1017B000EB0188819981E817F90759F4B983A88367
:1017C0001696FC93EE931597B283A183DF91CF9188
:1017D0000895C181D2818D819E81E817F90719F49E
:1017E000BE83AD83EDCFBC83AB83EACFCF92DF92D4
:1017F000FF920F931F93CF93DF93EC016B0118823D
:10180000FF24F394D601ED91FC91CE17DF0709F484
:101810004EC009811A81D8018C91811148C011965E
:10182000ED91FC911297A381B4810A171B0721F552
:10183000A581B681109749F08C91811106C0E8010D
:10184000F882FC921082EF01DDCFF801858196814C
:10185000C817D90729F4B601C8010E94900BE80106
:10186000E981FA81F08281819281DC011C92B601CA
:101870000E94C30BFE01E7CF109719F08C918823CB
:10188000F1F2F80183819481C817D90729F4B601D0
:10189000C8010E94C30BE801E981FA81F0828181CD
:1018A0009281DC011C92B6010E94900BE3CF81E093
:1018B0008083DF91CF911F910F91FF90DF90CF90A8
:1018C00008950F931F93CF93DF93FC01DB012D91BC
:1018D0003C9111978081918102811381081B190B22
:1018E0001296CD91DC911397C21BD30BA801C017A0
:1018F000D1070CF4AE01B9010E941226009729F419
:101900000C171D075CF020E0922F892F881F882775
:10191000881FDF91CF911F910F9108958FEF9FEF57
:10192000F4CFCF92DF92EF92FF920F931F93CF935A
:10193000DF938C016B017A01E61AF70AE701219621
:10194000CF3F8FEFD80771F0209751F1CE010E9461
:10195000A000F80191838083938382838C0F9D1F65
:1019600095838483F801C081D181A701B601CE019E
:101970000E942826CE0DDF1DF801D383C283BE014D
:1019800081E090E00E94B419FC0110821882DF917E
:10199000CF911F910F91FF90EF90DF90CF9008951E
:1019A00080E090E0D6CFFC01118210821382128277
:1019B00015821482FB0101900020E9F7AF0141502C
:1019C00051090C94910C0F931F93CF93DF93CDB7D4
:1019D000DEB727970FB6F894DEBF0FBECDBF8C01E0
:1019E000AE01495F5F4F69EA71E0CE0101960E9446
:1019F000D30CBE016F5F7F4FC8010E94EB01CE0187
:101A000001960E943E058DEB91E0F8019183808361
:101A1000035D1F4FC8010E94492081E693E00E94A8
:101A2000891DC8010E94D72027960FB6F894DEBF03
:101A30000FBECDBFDF91CF911F910F910895EF920F
:101A4000FF920F931F93CF93DF938C018FE090E071
:101A50000E94A0007C01BC01695F7F4F88E090E09C
:101A60000E94B419EC01198218821B821A821D820D
:101A70001C82F80142815381608171810E94910C26
:101A8000F801868197819F838E83C701DF91CF9173
:101A90001F910F91FF90EF900895AF92BF92CF9258
:101AA000DF92EF92FF920F931F93CF93DF935C012E
:101AB0006B017901DB018D919C912817390709F49D
:101AC00049C0452B09F046C0B901695F7F4FC80185
:101AD0000E94610C81113EC0C8010E941F0DEC01E3
:101AE000F70196838583D601ED91FC9185819681DE
:101AF000E816F90641F443C083819481E816F9069B
:101B000011F4D483C383FA82E9821C821B821E8271
:101B10001D82F601608171816F5F7F4FCE010E944F
:101B2000F60BD60112968D919C9113970196139600
:101B30009C938E931297F501D183C083C501DF91E9
:101B4000CF911F910F91FF90EF90DF90CF90BF90BA
:101B5000AF900895C8010E941F0DEC01D7011496A3
:101B60009C938E931397D601ED91FC91EE16FF0690
:101B700019F6F701D283C183D601ED91FC91D6838A
:101B8000C583C1CF6F927F928F929F92AF92BF9287
:101B9000CF92DF92EF92FF920F931F93CF93DF9339
:101BA00000D000D0CDB7DEB76C014B018A01FB013C
:101BB00060807180F301E180F280530181E0E114E3
:101BC000F10491F0B701695F7F4FC8010E94610C79
:101BD000F701882331F0238194815701E22EF92EF9
:101BE000EECF25819681F9CFBC82AB82882369F143
:101BF000F30183819481A816B90619F5950140E097
:101C000050E0B401CE0101960E944D0D89819A8168
:101C1000F6019183808381E08283C6010F900F904B
:101C20000F900F90DF91CF911F910F91FF90EF9048
:101C3000DF90CF90BF90AF909F908F907F906F90EC
:101C40000895CE0103960E94580BEB80FC80B801EA
:101C5000C70107960E94610C8111D0CFF601F18275
:101C6000E0821282DACF8F929F92AF92BF92CF9290
:101C7000DF92EF92FF920F931F93CF93DF9300D0E9
:101C800000D01F92CDB7DEB76C017B014A018901FC
:101C9000DA01AD90BC90DB01ED91FC91119783814D
:101CA0009481A816B906D1F412968D919C91139740
:101CB000892B41F0B501695F7F4FC9010E94610C1A
:101CC000811157C0A801B701CE0101960E94C20D33
:101CD00089819A81D6018D939C9314C0AE16BF065C
:101CE00021F5F501A580B680B901C50107960E94CE
:101CF000610C882339F3950140E050E0B701C6013B
:101D00000E944D0DC6010F900F900F900F900F90F5
:101D1000DF91CF911F910F91FF90EF90DF90CF90C7
:101D2000BF90AF909F908F900895BD82AC82CE01FE
:101D300004960E94580BAC80BD80B801C50107967F
:101D40000E94610C882309F4BDCFF401808091804A
:101D5000B401695F7F4FC8010E94610C882309F4B8
:101D6000B1CFF50185819681892B29F29401A401D7
:101D7000C5CF9501A501C2CF8F929F92AF92BF921E
:101D8000CF92DF92EF92FF920F931F93CF93DF9347
:101D9000CDB7DEB763970FB6F894DEBF0FBECDBFE9
:101DA0005C014B016C018EE1C80ED11C7501ECE1A8
:101DB000EE0EF11C8501065E1F4F9501245F3F4F1B
:101DC000A501465F5F4FB501685F7F4FC5018D96E6
:101DD0000E94632084E090E00E94D21B7C01B50148
:101DE0000E942703AE014D5E5F4F61EB71E0CE01B3
:101DF00009960E94D30CF401C080D180F601A18025
:101E0000B2808601A114B10491F0BE01675F7F4FDB
:101E1000C50107960E94610C811105C08501F5017D
:101E2000A380B480EFCFF501A580B680EBCFC016BC
:101E3000D10619F1B801695F7F4FCE0109960E9462
:101E4000610C81111AC0F801F686E586CE0109966B
:101E50000E943E0563960FB6F894DEBF0FBECDBF5D
:101E6000DF91CF911F910F91FF90EF90DF90CF9076
:101E7000BF90AF909F908F9008951A8219821C8214
:101E80001B821E821D824B855C8569857A85CE0109
:101E900001960E94910C18861F82188B0F879E0155
:101EA0002F5F3F4FAE01415F5F4FB401CE014196BE
:101EB0000E94330E09891A89CE0101960E943E05BF
:101EC000C2CF21ED31E0FC01318320830C949000DE
:101ED000CF93DF93EC010E94610FCE01DF91CF9190
:101EE0000C94D41B0F931F93CF93DF938C01FC01B1
:101EF00011821082138212821582148286E090E091
:101F00000E94C524EC01009761F4E091AE02F091CB
:101F1000AF02309721F480E090E00E948529099576
:101F2000EDCFF8019183808306969583848385E0C5
:101F3000E7ECF1E0DE0101900D928A95E1F7BE0138
:101F40006B5F7F4FF8017383628381E090E00E94B2
:101F5000B419FC0110821D82C801DF91CF911F913D
:101F60000F910895CF93DF93EC010E948A0081EDD9
:101F700091E099838883DF91CF91089525EE31E038
:101F8000FC01318320830C949100CF93DF93EC010B
:101F90000E94BE0FCE01DF91CF910C94D41BCF9243
:101FA000DF92EF92FF920F931F93CF93DF938C01F9
:101FB0006B017A01E61AF70AE7012196CF3F8FEF0E
:101FC000D80771F0209751F1CE010E94A000F801CE
:101FD00091838083938382838C0F9D1F9583848359
:101FE000F801C081D181A701B601CE010E94282647
:101FF000CE0DDF1DF801D383C283BE0181E090E0E6
:102000000E94B419FC0110821882DF91CF911F91B8
:102010000F91FF90EF90DF90CF90089580E090E0D7
:10202000D6CF0F931F93CF93DF93CDB7DEB727970C
:102030000FB6F894DEBF0FBECDBF8C01AE01495F75
:102040005F4F67ED71E0CE0101960E94D30CBE0197
:102050006F5F7F4FC8010E94EB01CE0101960E9485
:102060003E0585EE91E0F8019183808327960FB6B7
:10207000F894DEBF0FBECDBFDF91CF911F910F91BE
:1020800008958F929F92AF92BF92CF92DF92EF927C
:10209000FF920F931F93CF93DF93CDB7DEB7639774
:1020A0000FB6F894DEBF0FBECDBF8C014B0184E0AC
:1020B00090E00E94D21B5C01B8010E94B20FAE01F9
:1020C0004D5E5F4F6CED71E0CE0109960E94D30C1E
:1020D000F401C080D180F601E180F2808601E11434
:1020E000F10491F0BE01675F7F4FC70107960E9420
:1020F000610C811105C08701F701E380F480EFCF07
:10210000F701E580F680EBCFC016D10619F1B801D2
:10211000695F7F4FCE0109960E94610C81111AC040
:10212000F801B686A586CE0109960E943E05639603
:102130000FB6F894DEBF0FBECDBFDF91CF911F91D8
:102140000F91FF90EF90DF90CF90BF90AF909F9056
:102150008F9008951A8219821C821B821E821D8212
:102160004B855C8569857A85CE0101960E94CF0FEB
:1021700018861F82188B0F879E012F5F3F4FAE017D
:10218000415F5F4FB401CE0141960E94330E098931
:102190001A89CE0101960E943E05C2CF2FEF31E091
:1021A000FC01318320830C949100CF93DF93EC01E9
:1021B0000E94CE10CE01DF91CF910C94D41BCF9210
:1021C000DF92EF92FF920F931F93CF93DF938C01D7
:1021D0006B017A01E61AF70AE7012196CF3F8FEFEC
:1021E000D80771F0209751F1CE010E94A000F801AC
:1021F00091838083938382838C0F9D1F9583848337
:10220000F801C081D181A701B601CE010E94282624
:10221000CE0DDF1DF801D383C283BE0181E090E0C3
:102220000E94B419FC0110821882DF91CF911F9196
:102230000F91FF90EF90DF90CF90089580E090E0B5
:10224000D6CF0F931F93CF93DF93CDB7DEB72797EA
:102250000FB6F894DEBF0FBECDBF8C01AE01495F53
:102260005F4F6FEE71E0CE0101960E94D30CBE016C
:102270006F5F7F4FC8010E94EB01CE0101960E9463
:102280003E058FEF91E0F8019183808327960FB68A
:10229000F894DEBF0FBECDBFDF91CF911F910F919C
:1022A00008958F929F92AF92BF92CF92DF92EF925A
:1022B000FF920F931F93CF93DF93CDB7DEB7639752
:1022C0000FB6F894DEBF0FBECDBF8C014B0184E08A
:1022D00090E00E94D21B5C01B8010E942012AE0166
:1022E0004D5E5F4F63EF71E0CE0109960E94D30C03
:1022F000F401C080D180F601E180F2808601E11412
:10230000F10491F0BE01675F7F4FC70107960E94FD
:10231000610C811105C08701F701E380F480EFCFE4
:10232000F701E580F680EBCFC016D10619F1B801B0
:10233000695F7F4FCE0109960E94610C81111AC01E
:10234000F801B686A586CE0109960E943E056396E1
:102350000FB6F894DEBF0FBECDBFDF91CF911F91B6
:102360000F91FF90EF90DF90CF90BF90AF909F9034
:102370008F9008951A8219821C821B821E821D82F0
:102380004B855C8569857A85CE0101960E94DF10B8
:1023900018861F82188B0F879E012F5F3F4FAE015B
:1023A000415F5F4FB401CE0141960E94330E09890F
:1023B0001A89CE0101960E943E05C2CF2CE132E07F
:1023C000FC013183208326E232E03783268308959F
:1023D000DC01ED91FC9136970190F081E02DE80F42
:1023E000F91F8CE192E09183808386E292E09783EB
:1023F000868308952EE532E0FC01318320830C941E
:102400009000CF93DF93EC010E94FA11CE01DF918F
:10241000CF910C94D41B2CE132E0FC01318320835A
:1024200026E232E0378326830C94D41BDC01ED9145
:10243000FC91369720813181820F931F0C940B12EF
:10244000CF93DF93EC010E948A008EE592E099839E
:102450008883DF91CF910895FC0101900020E9F776
:102460003197E81BF90BDB012D913C9111971296E6
:102470004D915C911397421B530B4E175F0731F43C
:10248000B9010E94122621E0892B09F020E0822F59
:102490000895DB012D913C91FC013183208326506E
:1024A0003109D901ED91FC91E80FF91FDB0112967A
:1024B0002D913C91139731832083DC0112961D925C
:1024C0001D921D921C92159781E290E09483838364
:1024D000548B438B1582158A0895FC0181E290E0AC
:1024E0009287818713861486158686E090E0A0E0A7
:1024F000B0E086879787A08BB18B128A138A148AE3
:10250000158A80E2868B108E178A728F618F138EE8
:102510008CE192E09183808386E292E097838683C8
:102520001282138214821582089561157105C9F40F
:10253000FA0120813181FC0131832083611571050D
:1025400099F426503109F90120813181820F931FBE
:10255000672B69F4FA0122813381FC0131832083E6
:1025600008952CE132E0E7CF26E030E0EFCF26E21D
:1025700032E0F3CFAB0160E070E00C949512EF9283
:10258000FF920F931F93CF93DF938C017B01EA019E
:10259000672B41F588819981F80191838083E1144B
:1025A000F10419F50697FC0180819181800F911F3C
:1025B000E114F104E9F42E813F81FC013183208391
:1025C000C80106960E944905EF28A9F4BE016E5F76
:1025D0007F4FC801DF91CF911F910F91FF90EF9036
:1025E0000C94BA128CE492E0D7CF80E290E0DECF78
:1025F00026E532E0E2CF60E472E0EBCFAB0160E0D1
:1026000070E00C94BF1240E050E062E070E00C9487
:10261000BF12DC01ED91FC91369720813181820F50
:10262000931F0C940313CF93DF93EC010E940313C9
:10263000CE01DF91CF910C94D41BDC01ED91FC9184
:10264000369720813181820F931F0C941313DC0184
:1026500013968D919C911497892B59F01596ED91B5
:10266000FC91169717968D919C911897E817F9078A
:1026700041F4ED91FC9111970488F589E02DCD018D
:10268000099481911696FC93EE93159790E0089526
:10269000FC018581682B83899489892B11F06583DE
:1026A00008956160FCCFCF93DF93EC01E881F9815D
:1026B00036970190F081E02DEC0FFD1FA389B489BE
:1026C00013968D919C911497892B59F01596ED9145
:1026D000FC91169717968D919C911897E817F9071A
:1026E00099F4ED91FC9111970288F389E02DCD01C9
:1026F00009958F3F2FEF920751F00E940926892BF1
:1027000091F4DF91CF910895808190E0F6CFE88138
:10271000F98136978081918162E08C0F9D1FDF9156
:10272000CF910C944813E881F98136970190F0819C
:10273000E02DEC0FFD1F838994890E942713B6CFEB
:10274000FF920F931F93CF93DF93EC01F62E6A81D4
:102750007B81CB0101962C813D812817390761F4DB
:1027600088819981681B790BE9F481E090E0680F1A
:10277000791FCE010E94B4060A811B81C80101960F
:102780000E94C305F8011182EA81FB81F0828A81EF
:102790009B8101969B838A83DF91CF911F910F913B
:1027A000FF900895CB01E3CF9F92AF92BF92CF925B
:1027B000DF92EF92FF920F931F93CF93DF93EC0181
:1027C0008B01E881F98136970190F081E02DE80FC7
:1027D000F91FE188F288E114F104F9F0D701ED91D5
:1027E000FC9136970190F081E02DEE0DFF1D83895D
:1027F0009489DC01ED91FC910484F585E02D099527
:10280000019659F4D701ED91FC9136978081918121
:1028100061E08E0D9F1D0E944813CE010E9453134C
:10282000E881F98136970190F081E02DEC0FFD1FD2
:10283000C388D488D801ED91FC91119712968D919F
:102840009C911397E817F90741F010828D919C91A4
:10285000119713969C938E931297E881F98136977E
:102860000190F081E02D3296EC0FFD1F628573859B
:102870008485958512861386148615865B016115FD
:102880007105A1F1C8010E94B406C6010E94271378
:102890007C018F3FBFEF9B0769F5E881F98136978F
:1028A0008081918162E08C0F9D1F0E944813F80186
:1028B00022813381808191812817390751F4E88181
:1028C000F98136978081918164E08C0F9D1F0E9471
:1028D0004813CE01DF91CF911F910F91FF90EF90A0
:1028E000DF90CF90BF90AF909F900895AA24AA94B4
:1028F000BA2CCBCF082E000C990B0E940926E1E0E0
:10290000AE1AB108892BB9F0D60113968D919C911E
:1029100014970097C9F01596ED91FC9116978E17B4
:102920009F0791F08291E8120FC0D6011696FC9392
:10293000EE931597BCCF6E2DC8010E94A013A11471
:10294000B10409F0A2CFB3CFB7017727D601ED913B
:10295000FC910688F789E02DC6010995019609F0DA
:10296000A6CFE881F98136978081918164E09BCF81
:10297000CF93DF93EC0188819981009799F0DC0176
:10298000ED91FC9136970190F081E02DE80FF91F51
:102990002581257041E050E011F040E050E021E059
:1029A000452B09F420E028872223D1F0BE016E5F79
:1029B0007F4F0E94D413E881F981A081B1811697DD
:1029C0008D919C91E80FF91F8581857021E030E0A1
:1029D00011F020E030E081E0232B09F480E08887CB
:1029E000DF91CF910895CF92DF92EF92FF920F93F4
:1029F0001F93CF93DF938C017B016A01EA01C61B11
:102A0000D70B2196CF3F8FEFD80771F0209719F1A0
:102A1000CE010E94A000F80191838083938382837A
:102A20008C0F9D1F95838483F80140815181B601ED
:102A3000C7010E949F06EC01F801938382830E94E4
:102A4000C3051882DF91CF911F910F91FF90EF90F6
:102A5000DF90CF90089580E090E0DDCFFC011182FF
:102A600010821382128215821482FB0142815381EB
:102A7000608171810C94F3141F93CF93DF93EC0169
:102A8000142F1C821B821E821D8218861F821A86AA
:102A900019861C861B861E861D861F8683E591E08F
:102AA00099838883CE0140960E942E151F8A1E8A24
:102AB000198E188E11FF08C08A899B892889398947
:102AC000821B930B998F888F1F87DF91CF911F9166
:102AD0000895DF92EF92FF920F931F93CF93DF93AE
:102AE000EC017B01D42E8C010A5F1F4F81E290E044
:102AF0009CA38BA31DA21EA21FA286E090E0A0E0D3
:102B0000B0E088A799A7AAA7BBA71CA61DA61EA6CA
:102B10001FA683E391E099A388A380E288AB1AAA59
:102B200019AA1CAB0BAB1DAAA80160E472E0CE0190
:102B30000E9449128CE492E09983888386E592E0B2
:102B400099A388A34D2DB701C801DF91CF911F91A3
:102B50000F91FF90EF90DF900C943C15BF92CF92B5
:102B6000DF92EF92FF920F931F93CF93DF93EC01CD
:102B70006B017A01B22E8C010A5F1F4F6E5F7F4F8F
:102B8000A8010E944912F60180819181998388836E
:102B9000268137810697FC0180819181C80FD91F5A
:102BA000398328834B2DB701C801DF91CF911F9145
:102BB0000F91FF90EF90DF90CF90BF900C943C1559
:102BC000AF92BF92CF92DF92EF92FF920F931F933B
:102BD000CF93DF93CDB7DEB7C755D1090FB6F894C1
:102BE000DEBF0FBECDBF8C01BA0148E0CE01019619
:102BF0006C010E946915FE01E75BFF4FC192D19203
:102C00007F01BE01695C7F4FCF010E94CB05CE01E1
:102C1000875B9F4F0E94B814CE01805C9F4FFC01E0
:102C200011921192CF01BE01695C7F4F0E94CB05CA
:102C300029961FAE2997CE01875B9F4F0E94B8143B
:102C4000B701CE018E5A9F4F0E942E15BE016E5ABB
:102C50007F4F80EF91E00E942C1281114CC0BE0189
:102C60006E5A7F4F89E092E00E942C12F82ECE011E
:102C7000875B9F4F0E94B81489E4A82EB12CAC0E3C
:102C8000BD1EF2E0AF0EB11C62968FAD6297299621
:102C90009FAD299789130DC0882379F12B962EAD0E
:102CA0003FAD2B9722968EAD9FAD229728173907FF
:102CB00021F12D968EAD9FAD2D970E94EB256F2DA6
:102CC0000E94901C2B968EAD9FAD2B9798AF8FAB2B
:102CD000B501CE01C9960E942E1562968FAD6297FE
:102CE0008FAFCE01875B9F4F0E94B814CE01C9966B
:102CF0000E943E05C9CFF12CBACFF8011182108293
:102D0000138212821582148241E152E06DE072E07A
:102D1000C8010E94F314CE018E5A9F4F0E943E05B7
:102D200080E490E08C0F9D1F02960E943E0589E48E
:102D300090E08C0F9D1F02960E943E05C6010E94E6
:102D40000313C801C95ADF4F0FB6F894DEBF0FBE98
:102D5000CDBFDF91CF911F910F91FF90EF90DF904A
:102D6000CF90BF90AF900895EF92FF920F931F9373
:102D7000CF93DF937C018B01EA0164177507A1F003
:102D8000FC01408151814C1B5D0B4F5F5F4FBE01C9
:102D9000C8010E942826C01BD10BF70180819181B8
:102DA0008C1B9D0B91838083C801DF91CF911F9174
:102DB0000F91FF90EF900895CF93DF93EC01BC014A
:102DC00081E090E00E94B419FC0110821882DF912A
:102DD000CF910895EF92FF920F931F93CF93DF93BC
:102DE000CDB7DEB7C055D1090FB6F894DEBF0FBE20
:102DF000CDBF6B96EEACFFAC6B979E01235A3F4F55
:102E00006D964EAD5FAD6D9760E570E0CE010196B9
:102E10000E9498268E010F5F1F4FD8018C91882346
:102E2000B9F08A3049F4D701ED91FC910190F0811D
:102E3000E02D6DE0C7010995D701ED91FC9101905E
:102E4000F081E02DD8016D918D01C7010995E5CF85
:102E5000C05BDF4F0FB6F894DEBF0FBECDBFDF9172
:102E6000CF911F910F91FF90EF9008950F931F93B3
:102E7000CF93DF93FA018B01081B190BE901C41BE7
:102E8000D50BA801C017D1070CF4AE01BF010E94F9
:102E90001226009759F40C171D076CF031E020E062
:102EA000C017D1070CF030E0832F922FDF91CF9124
:102EB0001F910F9108958FEF9FEFF8CFEF92FF9240
:102EC0000F931F93CF93DF937C01EB01209781F049
:102ED0006D817E81C7010E945E170B811C81CE012E
:102EE00007960E943E05CE010E945D25E801EECFC7
:102EF000DF91CF911F910F91FF90EF900895009770
:102F000011F00C94A00080E090E00895CF92DF9241
:102F1000EF92FF920F931F93CF93DF93EC017B010E
:102F20006A018A01061B170B0F5F1F4F0F3F8FEFC0
:102F3000180759F0C8010E947F17998388839B83E3
:102F40008A83800F911F9D838C8348815981B601AC
:102F5000C7010E949F069B838A83DF91CF911F91B7
:102F60000F91FF90EF90DF90CF900C94DC16AF9212
:102F7000BF92CF92DF92EF92FF920F931F93CF9366
:102F8000DF93EC017B016A01888199814A815B8131
:102F9000481B590B8601061B170B40175107C8F039
:102FA000A8010E941F264A815B81DE016D917D91FF
:102FB000CD01600F711F0E94B416CE01DF91CF9139
:102FC0001F910F91FF90EF90DF90CF90BF90AF9047
:102FD00008950E941F264A815B81E881F981CA0118
:102FE0008E1B9F0BE80EF91ECE14DF0431F3860111
:102FF0000E191F09BC01600F711F2C813D812E1B12
:103000003F0B215031092617370738F504311105D8
:1030100010F404E110E00196080F191FC8010E9486
:103020007F175C016A817B81AC01888199810E9454
:103030009F06AC01B601C7010E949F067C010E9459
:10304000DC16CE010E943E05B982A882FB82EA828C
:103050000A0D1B1D1D830C83B0CF4F5F5F4FB60160
:10306000C70101960E949F068A819B81800F911F54
:103070000E94DC16EA81FB81D7018C9180838A81D2
:103080009B81080F191F1B830A8397CF0F931F93F0
:10309000CF93DF931F92CDB7DEB706EB12E0D801D6
:1030A0001D921C928FE090E00E94A000F801918395
:1030B000808313821282DC011C9212961C921E9253
:1030C00011970190F081E02DF483E383F683E5838B
:1030D000BE016F5F7F4F80EB92E00E94CB050F90A7
:1030E000DF91CF911F910F91089580EB92E00E94A4
:1030F0003E058091B8029091B902892BC1F0E09110
:10310000B602F091B7026181728186EB92E00E9473
:103110005E17E091B602F091B702F483E383128266
:103120001182E091B602F091B702F683E5838091B7
:10313000B6029091B7020C945D258F929F92AF9248
:10314000BF92CF92DF92EF92FF920F931F93CF9394
:10315000DF93CDB7DEB72C970FB6F894DEBF0FBE66
:10316000CDBF4DE952E0BA0180EB92E00E94B71763
:103170008BEB92E00E94B619892BD1F38BEB92E096
:103180000E94D019182F682F80EB92E00E94A013A4
:103190001D3071F72091B2023091B3026091B002FC
:1031A0007091B102A901461B570B09F47BC0261789
:1031B000370709F477C0CB01FC013196DC011C9183
:1031C000103209F06AC02817390709F46BC0861B52
:1031D000970B18861F821A8619861C861B868417F1
:1031E000950708F4AC01460F571FCE0107960E94C1
:1031F0008617C090B602D090B702F6010181128105
:1032000089849A84AF80B884760101151105D1F0C4
:10321000D80119966D917C911A979401A501179682
:103220008D919C9118970E94361797FD05C07801E3
:10323000F80103811481E9CFD80115960D911C91F5
:103240001697E3CFCE14DF0459F0F70121853285BC
:1032500047815085B401C5010E94361797FF25C0EC
:1032600064E672E08BEB92E00E94AE1BCE01079603
:103270000E943E052C960FB6F894DEBF0FBECDBF60
:10328000DF91CF911F910F91FF90EF90DF90CF9042
:10329000BF90AF909F908F900895CF012E173F075A
:1032A00009F08ACF8FEF9FEF94CFD7011D966D91D4
:1032B0007C911E97DB01ED91FC910190F081E02D56
:1032C000AE01495F5F4FCE01019609958A818F93C8
:1032D00089818F9383E792E09F938F938BEB92E0AA
:1032E0009F938F930E94EA16CE0101960E943E059D
:1032F000CE0107960E943E050F900F900F900F9001
:103300000F900F90B7CFCF93DF9326E040E855E2C0
:1033100060E070E08BEB92E00E947C1A88E090E025
:103320000E94D21BEC010E94111066EB72E0CE01EC
:103330000E94411088E090E00E94D21BEC010E94A4
:10334000211166EB72E0CE010E9451118CE390E0F6
:103350000E94D21BEC010E94E30C66EB72E0CE01EE
:10336000DF91CF910C94BC0ECB010895FC01918D9F
:10337000228D892F90E0805C9F4F821B91098F7373
:1033800099270895FC01918D828D981731F0828DD7
:10339000E80FF11D858D90E008958FEF9FEF089560
:1033A000FC01918D828D981761F0828DDF01A80F4D
:1033B000B11D5D968C91928D9F5F9F73928F90E06F
:1033C00008958FEF9FEF089585E39BE1892B49F0E6
:1033D00080E090E0892B29F00E94351B81110C942C
:1033E00000000895FC01848DDF01A80FB11DA35AD0
:1033F000BF4F2C91848D90E001968F739927848F15
:10340000A689B7892C93A089B1898C9180648C930B
:10341000938D848D981306C00288F389E02D8081F6
:103420008F7D80830895CF93DF93EC01888D88236F
:1034300051F0EA89FB89808185FD08C0A889B98996
:103440008C9186FF03C0DF91CF9108950FB607FCE2
:10345000F2CF808185FFEFCFA889B9898C9185FF54
:10346000EACFCE010E94F219E4CFEF92FF920F93C0
:103470001F93CF93DF93EC01F62E81E0888F9B8D15
:103480008C8D981305C0E889F989808185FD2CC051
:103490000B8D10E00F5F1F4F0F731127E02E8C8DE7
:1034A000E8120CC00FB607FCFACFE889F9898081D1
:1034B00085FFF5CFCE010E94F219F1CF8B8DFE0171
:1034C000E80FF11DE35AFF4FF0820B8FEA89FB8969
:1034D00080818062808381E090E0DF91CF911F91B5
:1034E0000F91FF90EF900895EE89FF896083E8893E
:1034F000F98980818064EECFCF92DF92EF92FF92C4
:103500001F93CF93DF93EC016A017B01122FE889AF
:10351000F98982E080834115514E61057105A1F062
:1035200060E079E08DE390E0A70196010E945F22C0
:1035300021503109410951095695479537952795ED
:10354000211580E1380798F0E889F989108260E850
:1035500074E88EE190E0A70196010E945F2221505D
:103560003109410951095695479537952795EC85BD
:10357000FD853083EE85FF852083188EEC89FD89DB
:103580001083EA89FB89808180618083EA89FB89D5
:10359000808188608083EA89FB898081806880835C
:1035A000EA89FB8980818F7D8083DF91CF911F9194
:1035B000FF90EF90DF90CF9008951F920F920FB67B
:1035C0000F9211242F938F939F93EF93FF93E0918A
:1035D000CB02F091CC028081E091D102F091D20235
:1035E00082FD1BC090818091D4028F5F8F732091E8
:1035F000D502821741F0E091D402F0E0E554FD4F8E
:10360000958F8093D402FF91EF919F918F912F918D
:103610000F900FBE0F901F9018958081F4CF1F92CE
:103620000F920FB60F9211242F933F934F935F93F6
:103630006F937F938F939F93AF93BF93EF93FF937A
:103640008BEB92E00E94F219FF91EF91BF91AF9145
:103650009F918F917F916F915F914F913F912F91AA
:103660000F900FBE0F901F9018958BEB92E00E9469
:10367000B61921E0892B09F420E0822F0895EBEBA5
:10368000F2E01382128288EE93E0A0E0B0E084833F
:103690009583A683B7838FE892E09183808385EC3E
:1036A00090E09587848784EC90E09787868780EC0C
:1036B00090E0918B808B81EC90E0938B828B82ECFD
:1036C00090E0958B848B86EC90E0978B868B118EA7
:1036D000128E138E148E0895CF92DF92EF92FF9286
:1036E0000F931F93CF93DF937C016A018B01C0E09E
:1036F000D0E0CC15DD0579F0D8016D918D01D701B1
:10370000ED91FC910190F081E02DC7010995892B85
:1037100011F02196EECFCE01DF91CF911F910F9145
:10372000FF90EF90DF90CF9008956115710579F0CB
:10373000FB0101900020E9F73197AF01461B570BC1
:10374000DC01ED91FC910280F381E02D099480E091
:1037500090E008956BE972E00C94951B0F931F9312
:10376000CF93DF93EC010E94951B8C01CE010E9448
:10377000AA1B800F911FDF91CF911F910F91089588
:103780000E94E62508950E942C1C0E94C21B0E94E4
:103790008319C4EED9E10E949D182097E1F30E949D
:1037A000E419F9CF0C94C5240C945D251F920F9257
:1037B0000FB60F9211242F933F938F939F93AF9344
:1037C000BF938091590390915A03A0915B03B091EC
:1037D0005C033091580323E0230F2D3758F50196F1
:1037E000A11DB11D209358038093590390935A0350
:1037F000A0935B03B0935C0380915D0390915E03A3
:10380000A0915F03B09160030196A11DB11D80934B
:103810005D0390935E03A0935F03B0936003BF9139
:10382000AF919F918F913F912F910F900FBE0F906D
:103830001F90189526E8230F0296A11DB11DD2CF27
:103840002FB7F8946091590370915A0380915B03EC
:1038500090915C032FBF0895789484B5826084BDF5
:1038600084B5816084BD85B5826085BD85B5816084
:1038700085BDEEE6F0E0808181608083E1E8F0E0E4
:103880001082808182608083808181608083E0E813
:10389000F0E0808181608083E1EBF0E080818460F2
:1038A0008083E0EBF0E0808181608083EAE7F0E0F4
:1038B0008081846080838081826080838081816058
:1038C00080838081806880831092C1000895833056
:1038D00081F028F4813099F08230A9F00895873082
:1038E000A9F08830C9F08430B1F4809180008F7DD8
:1038F00003C0809180008F7780938000089584B505
:103900008F7784BD089584B58F7DFBCF8091B00003
:103910008F778093B00008958091B0008F7DF9CFAC
:10392000CF93DF9390E0FC01E458FF4F2491805740
:103930009F4FFC0184918823C9F090E0880F991F64
:10394000FC01E255FF4FA591B491FC01EC55FF4FEE
:10395000C591D49161110DC09FB7F8948C912095B9
:1039600082238C938881282328839FBFDF91CF9166
:103970000895623051F49FB7F8943C91822F80955E
:1039800083238C93E8812E2BEFCF8FB7F894EC91A3
:103990002E2B2C938FBFEACF1F93CF93DF93162F3D
:1039A000282F30E0F901E859FF4F8491F901E458DC
:1039B000FF4FD491F901E057FF4FC491CC23A1F000
:1039C00081110E94671CEC2FF0E0EE0FFF1FEC55F9
:1039D000FF4FA591B4918FB7F894EC91111108C0E5
:1039E000D095DE23DC938FBFDF91CF911F91089597
:1039F000DE2BF8CF8091910390E020919203821BFF
:103A00009109089520919203822F90E040919103B3
:103A100050E0841795074CF48D569C4FFC01808133
:103A200090E02F5F2093920308958FEF9FEF08950A
:103A30008091920390E02091910330E082179307E8
:103A400034F48D569C4FFC01808190E008958FEFF7
:103A50009FEF08950895CF92DF92EF92FF920F9318
:103A60001F93CF93DF937C01CB018A0120916D03DB
:103A7000222389F0EB016B01C40ED51ECC15DD05A8
:103A800069F06991D701ED91FC910190F081E02DF1
:103A9000C7010995F3CF642F0E94F11EC801DF9181
:103AA000CF911F910F91FF90EF90DF90CF900895ED
:103AB000CF93DF931F92CDB7DEB7698320916D035B
:103AC000222309F120916E0330E0203231055CF0B1
:103AD00021E030E0FC013383228380E090E00F900E
:103AE000DF91CF91089580916F03E82FF0E0E059C6
:103AF000FC4F998190838F5F80936F0380936E0357
:103B000081E090E0ECCF61E0CE0101960E94F11ED1
:103B1000F7CF109292031092910310926F031092BC
:103B20006E030C94341E81E080936D0360939003C8
:103B300010926F0310926E0308950F93062F21E0E9
:103B400040916E0360E773E0809190030E949A1E9B
:103B500010926F0310926E0310926D030F910895EF
:103B60004F925F926F927F92AF92BF92CF92EF92FD
:103B7000FF920F931F93CF93DF935C01F62ED42F08
:103B8000280139010E2D10E00115110541F10E94A7
:103B9000931D0430110514F083E0E82ECFEFCE0D15
:103BA000CF3FC9F028E0C29FC0011124A3019201B8
:103BB00004C056954795379527958A95D2F7CA013F
:103BC000B901D501ED91FC910190F081E02DC50185
:103BD0000995C150E5CF60E0C5010E949D1D8D2F64
:103BE00090E081970CF0D0E22C2D4D2F63E973E02B
:103BF0008F2D0E94521E1092920380939103DF91A9
:103C0000CF911F910F91FF90EF90CF90BF90AF9009
:103C10007F906F905F904F900895CF92EF920F93A7
:103C20001F93C22EE12C00E010E098010E94B01D0D
:103C30001F910F91EF90CF90089521E00C940D1EED
:103C400061E00C949D1DE1E6F3E01382128288EEA0
:103C500093E0A0E0B0E084839583A683B78382EAF3
:103C600092E09183808308951092200481E08093F4
:103C70001E0410921D0461E082E10E94CC1C61E0F0
:103C800083E10E94CC1CE9EBF0E080818E7F808391
:103C900080818D7F808388E48093B80085E4809361
:103CA000BC000895413208F043C090912004911166
:103CB000FCCF91E09093200420931E042FEF2093DB
:103CC000B3031092F803240F2093F70390931F047B
:103CD00090911F04880F892B80931F0480911D04ED
:103CE000813009F510921D0480911F048093BB0060
:103CF0008091BC0083FDF8CF85EC8093BC0080915F
:103D000020048130E1F38091F803841710F440918E
:103D1000F803A9EFB3E0962FFB018E2F891B8417C0
:103D200020F0842F089585EEE8CF8D918193F5CF13
:103D300040E0F7CF0F93413208F04BC09091200440
:103D40009111FCCF92E09093200400931E049FEF0A
:103D50009093B3031092F8034093F703362FA9EF23
:103D6000B3E0FB019E2F931B941770F110921F0478
:103D700090911F04880F892B80931F0480911D044C
:103D8000813029F510921D0480911F048093BB009F
:103D90008091BC0083FDF8CF85EC8093BC0022238A
:103DA00021F0809120048230D1F38091B3038F3FC2
:103DB00091F08091B303803281F08091B30380331E
:103DC00071F084E00F91089591919D93CBCF85EE92
:103DD000E4CF81E0F7CF80E0F5CF82E0F3CF83E05E
:103DE000F1CF4091D503262F30E0240F311D213231
:103DF0003105DCF4209120042430C9F4FC0180E07A
:103E000090E0861738F08091D503680F6093D50352
:103E100080E008953091D5032191DC01A952BC4F77
:103E2000A30FB11D2C930196ECCF81E0089582E0A1
:103E3000089585ED8093BC008091BC0084FDFCCF8B
:103E400010922004089585EC8093BC001092200409
:103E500008951F920F920FB60F9211242F933F9344
:103E60004F935F936F937F938F939F93AF93BF9382
:103E7000EF93FF938091B900887F803609F44CC09E
:103E800008F03FC0883209F4A8C018F5803109F461
:103E90009CC0B8F4882309F4F9C0883009F495C0AF
:103EA000FF91EF91BF91AF919F918F917F916F9112
:103EB0005F914F913F912F910F900FBE0F901F90E8
:103EC0001895883109F489C0803251F78093B30383
:103ED00015C0803409F49EC048F48033B9F38833A8
:103EE000F9F68093B3030E94231FDACF803509F4DB
:103EF00085C0883509F496C0883491F60E94191F50
:103F0000CFCF883909F48CC038F5883729F050F4C0
:103F1000883611F0803721F683E0809320041092D8
:103F2000B40357C0883809F47BC0803919F0803851
:103F300009F0B6CF8091B403803208F071C0E091EF
:103F4000B40381E08E0F8093B4038091BB00F0E056
:103F5000EB54FC4F80833DC0803B39F0E0F4803A65
:103F600009F479C0883A09F09BCF84E0809320045B
:103F70001092D6031092D503E0911B04F0911C041B
:103F800009958091D50381110FC081E08093D503FD
:103F90001092D70309C0803C09F476C0883C09F42C
:103FA00073C0883B09F07CCFE091D60381E08E0F8F
:103FB0008093D603F0E0E952FC4F80818093BB00F0
:103FC0009091D6038091D50329C080911F048093DE
:103FD000BB0085EC8093BC0063CF9091F803809187
:103FE000F703981758F5E091F80381E08E0F80935E
:103FF000F803F0E0E750FC4F8081E9CFE091F8034F
:1040000081E08E0F8093F8038091BB00F0E0E750D1
:10401000FC4F80839091F8038091F7039817C8F2C2
:1040200085E8D8CFE091F80381E08E0F8093F80304
:104030008091BB00F0E0E750FC4F808380911E042C
:1040400081115CCF81E080931D0484EA8093BC00E1
:104050001092200425CF0E94231F8091B403803248
:1040600030F4E091B403F0E0EB54FC4F1082609127
:10407000B40370E0E0911904F0911A0485EB93E029
:1040800009951092B4030CCF85ECE0CF1092B303E6
:1040900035CF28E6FC01208308950F93062F22E0F8
:1040A00044E06BE1FC0180810E9415220F9108958C
:1040B0000F93062F22E044E06CE1FC0180810E9416
:1040C00015220F9108954F925F926F927F928F9277
:1040D0009F92AF92BF92CF92DF92EF92FF920F9397
:1040E0001F93CF93DF93EC013B014A015901280153
:1040F00000910601109107019C012F5F3F4F4EE098
:104100006BE388810E942C2189819A8198278927D5
:104110009827F301918380838B819C81982789273D
:104120009827F401918380838D819E819827892728
:104130009827F5019183808389859A859827892717
:104140009827F201918380838B859C859827892706
:104150009827F701918380838D859E8598278927ED
:104160009827F60191838083DF91CF911F910F9162
:10417000FF90EF90DF90CF90BF90AF909F908F9087
:104180007F906F905F904F900895262F46E06BE6EA
:10419000FC0180810C94E5210F93062F23E042E07F
:1041A0006BE6FC0180810E9415220F910895CF9348
:1041B000DF93EC0161E00E94CC2060E0CE010E9420
:1041C0004D2060E0CE010E94582060E0CE01DF91DA
:1041D000CF910C94C520EF92FF920F931F93CF9332
:1041E000C62F042F7901682F81E693E00E94931D6A
:1041F0006C2F81E693E00E94581DC0E010E08C2FE8
:1042000090E08017910754F48E0D9F1DFC01608192
:1042100081E693E00E94581DCF5FF1CF81E693E0E5
:104220000E94201E91E0811190E0892FCF911F9173
:104230000F91FF90EF900895CF93DF931F92CDB72A
:10424000DEB749839E012F5F3F4F41E00E94EB2084
:104250000F90DF91CF9108952F923F924F925F92EE
:104260006F927F928F929F92AF92BF92CF92DF9286
:10427000EF92FF920F931F93CF93DF9300D000D064
:104280001F92CDB7DEB7382E6983542E3B832A8325
:104290000E94201C6B017C01212C412C652C712C6F
:1042A0004801A12CB12C822D90E09D838C83861532
:1042B0009705F4F5632D81E693E00E94931D6981D3
:1042C00081E693E00E94581D81E693E00E94201E43
:1042D000632D81E693E00E94931DA301EC81FD8193
:1042E0004E1B5F0B4132510514F040E250E0632D4C
:1042F00081E693E00E941D1E81E693E00E94FA1C75
:10430000892B79F00115110509F444C00E94201C85
:104310006C197D098E099F09681579058A059B0529
:10432000C8F1852DF0E2F51508F480E2280EBBCF28
:1043300001151105B1F00E94201C6C197D098E0930
:104340009F0920E030E0601771078207930748F06B
:10435000842D042C000C990B8615970514F4442425
:104360004A94842D0F900F900F900F900F90DF9133
:10437000CF911F910F91FF90EF90DF90CF90BF9062
:10438000AF909F908F907F906F905F904F903F90F5
:104390002F9008958A819B81840D911D47FC9A95E9
:1043A0009D838C8381E693E00E94021DEC81FD8158
:1043B00080834394A1CF0F931F9389019A0141E019
:1043C0000E942C211F910F910895EF92FF920F935D
:1043D0001F93CF93DF931F92CDB7DEB7182F062F11
:1043E000F42EE22E2091060130910701AE014F5FBD
:1043F0005F4F0E94DB21498181E090E001C0880F7E
:10440000FA94EAF7EE2071F0482B4983602F812F50
:104410000E941C210F90DF91CF911F910F91FF906F
:10442000EF90089580954823F0CFDF92EF92FF92AE
:104430000F931F93CF93DF931F92CDB7DEB7182F43
:10444000F62EE42ED22E2091060130910701AE0106
:104450004F5F5F4F0E94DB21882379F12E2D30E0E2
:104460002D1931092F5F3F4F81E090E002C0880F86
:10447000991FDA94E2F70197022E01C0880F0A947F
:10448000EAF7402F50E0BA0102C0660F771F2A9565
:10449000E2F7482F4095098140238623482B498322
:1044A0006F2D812F0E941C210F90DF91CF911F91C2
:1044B0000F91FF90EF90DF90089580E0F5CFA1E29B
:1044C0001A2EAA1BBB1BFD010DC0AA1FBB1FEE1F8E
:1044D000FF1FA217B307E407F50720F0A21BB30BD9
:1044E000E40BF50B661F771F881F991F1A9469F755
:1044F00060957095809590959B01AC01BD01CF01B1
:104500000895EE0FFF1F0590F491E02D0994505887
:10451000BB27AA270E949F220C9419240E940B24D7
:1045200038F00E94122420F039F49F3F19F426F449
:104530000C9408240EF4E095E7FB0C940224E92F78
:104540000E942A2458F3BA17620773078407950755
:1045500020F079F4A6F50C944C240EF4E0950B2E83
:10456000BA2FA02D0B01B90190010C01CA01A001C5
:104570001124FF27591B99F0593F50F4503E68F120
:104580001A16F040A22F232F342F4427585FF3CF61
:10459000469537952795A795F0405395C9F77EF432
:1045A0001F16BA0B620B730B840BBAF09150A1F07B
:1045B000FF0FBB1F661F771F881FC2F70EC0BA0F01
:1045C000621F731F841F48F4879577956795B79589
:1045D000F7959E3F08F0B0CF9395880F08F0992784
:1045E000EE0F9795879508950E94DE2308F481E0E9
:1045F00008950E940D230C9419240E94122458F04F
:104600000E940B2440F029F45F3F29F00C9402240F
:1046100051110C944D240C9408240E942A2468F310
:104620009923B1F3552391F3951B550BBB27AA276B
:1046300062177307840738F09F5F5F4F220F331FA5
:10464000441FAA1FA9F335D00E2E3AF0E0E832D06D
:1046500091505040E695001CCAF72BD0FE2F29D070
:10466000660F771F881FBB1F261737074807AB0742
:10467000B0E809F0BB0B802DBF01FF2793585F4FB7
:104680003AF09E3F510578F00C9402240C944D248E
:104690005F3FE4F3983ED4F3869577956795B79599
:1046A000F7959F5FC9F7880F911D9695879597F9A4
:1046B0000895E1E0660F771F881FBB1F621773071D
:1046C0008407BA0720F0621B730B840BBA0BEE1F32
:1046D00088F7E09508950E9472236894B1110C94B4
:1046E0004D2408950E94322488F09F5798F0B92FE6
:1046F0009927B751B0F0E1F0660F771F881F991F17
:104700001AF0BA95C9F714C0B13091F00E944C2448
:10471000B1E008950C944C24672F782F8827B85F58
:1047200039F0B93FCCF3869577956795B395D9F76E
:104730003EF490958095709561957F4F8F4F9F4F78
:104740000895E89409C097FB3EF490958095709584
:1047500061957F4F8F4F9F4F9923A9F0F92F96E9CD
:10476000BB279395F695879577956795B795F11142
:10477000F8CFFAF4BB0F11F460FF1BC06F5F7F4FDF
:104780008F4F9F4F16C0882311F096E911C07723F1
:1047900021F09EE8872F762F05C0662371F096E8FA
:1047A000862F70E060E02AF09A95660F771F881FC9
:1047B000DAF7880F9695879597F90895990F00086D
:1047C000550FAA0BE0E8FEEF16161706E807F907E3
:1047D000C0F012161306E407F50798F0621B730B7E
:1047E000840B950B39F40A2661F0232B242B252BFF
:1047F00021F408950A2609F4A140A6958FEF811DA2
:10480000811D089597F99F6780E870E060E0089542
:104810009FEF80EC089500240A94161617061806D8
:104820000906089500240A941216130614060506B4
:104830000895092E0394000C11F4882352F0BB0F45
:1048400040F4BF2B11F460FF04C06F5F7F4F8F4FA8
:104850009F4F089557FD9058440F551F59F05F3FE3
:1048600071F04795880F97FB991F61F09F3F79F092
:1048700087950895121613061406551FF2CF469514
:10488000F1DF08C0161617061806991FF1CF869596
:104890007105610508940895E894BB27662777277A
:1048A000CB0197F908950E94DE2308F48FEF089555
:1048B0000E946B240C9419240E940B2438F00E944F
:1048C000122420F0952311F00C9402240C94082457
:1048D00011240C944D240E942A2470F3959FC1F357
:1048E000950F50E0551F629FF001729FBB27F00D9E
:1048F000B11D639FAA27F00DB11DAA1F649F6627F3
:10490000B00DA11D661F829F2227B00DA11D621F41
:10491000739FB00DA11D621F839FA00D611D221FFB
:10492000749F3327A00D611D231F849F600D211DDF
:10493000822F762F6A2F11249F5750409AF0F1F062
:1049400088234AF0EE0FFF1FBB1F661F771F881FCB
:1049500091505040A9F79E3F510580F00C940224DD
:104960000C944D245F3FE4F3983ED4F386957795FD
:104970006795B795F795E7959F5FC1F7FE2B880F71
:10498000911D9695879597F908950F931F93CF934F
:10499000DF938230910510F482E090E0E0912304EF
:1049A000F091240420E030E0A0E0B0E0309719F16D
:1049B000408151810281138148175907C8F084173B
:1049C000950769F4109731F012960C93129713968D
:1049D0001C9327C0009323041093240422C02115A4
:1049E000310519F04217530718F49A01BD01EF0180
:1049F000DF01F801DBCF21153105F9F0281B390B58
:104A00002430310580F48A819B816115710521F084
:104A1000FB019383828304C0909324048093230436
:104A2000FE01329644C0FE01E20FF31F8193919381
:104A300022503109398328833AC0209121043091D2
:104A40002204232B41F42091020130910301309381
:104A500022042093210420910001309101012115AD
:104A6000310541F42DB73EB7409104015091050145
:104A7000241B350BE0912104F0912204E217F30787
:104A8000A0F42E1B3F0B2817390778F0AC014E5FBE
:104A90005F4F2417350748F04E0F5F1F50932204D5
:104AA000409321048193919302C0E0E0F0E0CF01B4
:104AB000DF91CF911F910F910895CF93DF930097CE
:104AC00009F481C0FC01329713821282A091230461
:104AD000B0912404109781F420813181820F931FBB
:104AE00020912104309122042817390751F5F093C1
:104AF0002204E093210467C0ED0120E030E0CE17EE
:104B0000DF0740F44A815B819E0141155105F1F0B8
:104B1000EA01F5CFD383C28340815181840F951F71
:104B2000C817D90759F488819981840F951F029677
:104B3000918380838A819B819383828321153105B0
:104B400029F4F0932404E09323043DC0E901FB839E
:104B5000EA8349915991C40FD51FEC17FD0761F401
:104B600080819181840F951F0296E9019983888342
:104B7000828193819B838A83E0E0F0E012968D919D
:104B80009C911397009719F0FD01DC01F7CF8D91EF
:104B90009C9111979D012E5F3F4F820F931F209193
:104BA0002104309122042817390769F4309729F439
:104BB000109224041092230402C013821282B09334
:104BC0002204A0932104DF91CF91089581E090E029
:104BD000F8940C948529FC0188279927E894219161
:104BE0002032E9F3293010F02E30C8F32B3241F097
:104BF0002D3239F4689404C00E945426820F911D0E
:104C0000219120532A30C0F31EF4909581959F4F37
:104C1000089591110C949728803219F0895085508D
:104C2000C8F70895FB01DC0104C08D910190801943
:104C300021F441505040C8F7881B990B0895FB019F
:104C4000DC0102C001900D9241505040D8F7089508
:104C50006817790768F4FB01DC01E40FF51FA40F66
:104C6000B51F02C002900E9241505040D8F70895EF
:104C70000C941F26BB274A3031F4992322F4BDE25D
:104C8000909581959F4F0C947F26BB272A3051F435
:104C9000992342F4BDE290958095709561957F4F80
:104CA0008F4F9F4F0C945D267AE0979F902D879FA2
:104CB000802D910D11240895BB27FA01A62F6217AC
:104CC000710581059105330B30FB66F0AA27660F4D
:104CD000771F881F991FAA1FA21710F0A21B6395A8
:104CE0003850A9F7A05DAA3308F0A95DA19336F763
:104CF000B111B1931082CA010C94B028BB27FB01FB
:104D00005527AA27880F991FAA1FA41710F0A41BC4
:104D100083955051B9F7A05DAA3308F0A95DA1931E
:104D2000009779F7B111B1931192CB010C94B0288F
:104D3000AEE0B0E0EEE9F6E20C945C298C01FA01F9
:104D400086E08C831A83098377FF02C060E070E8F5
:104D5000CB0101979E838D83A901BF01CE010196EE
:104D60000E94C4264D815E8157FD0AC02F8138857F
:104D7000421753070CF49A01F801E20FF31F108257
:104D80002E96E4E00C947829ACE0B0E0EAECF6E290
:104D90000C944E296C017B018A01FC01178216825A
:104DA000838181FFBEC1CE0101964C01F601938142
:104DB000F70193FD859193FF81917F01882309F489
:104DC000ACC1853239F493FD859193FF81917F01C8
:104DD000853229F4B60190E00E94C028E7CF512C1B
:104DE000312C20E02032A0F48B3269F030F4803294
:104DF00059F0833269F420612CC08D3239F0803350
:104E000039F4216026C02260246023C0286021C0BC
:104E100027FD27C030ED380F3A3078F426FF06C062
:104E2000FAE05F9E300D1124532E13C08AE0389EA5
:104E3000300D1124332E20620CC08E3221F426FD59
:104E40006CC1206406C08C3611F4206802C088361C
:104E500041F4F70193FD859193FF81917F018111C9
:104E6000C1CF982F9F7D9554933028F40C5F1F4F2E
:104E70009FE399830DC0833631F0833771F083351A
:104E800009F05BC022C0F801808189830E5F1F4F4B
:104E900044244394512C540115C03801F2E06F0EA4
:104EA000711CF801A080B18026FF03C0652D70E061
:104EB00002C06FEF7FEFC5012C870E94A5282C014F
:104EC00083012C852F77222E17C03801F2E06F0E58
:104ED000711CF801A080B18026FF03C0652D70E031
:104EE00002C06FEF7FEFC5012C870E949A282C012A
:104EF0002C852068222E830123FC1BC0832D90E08B
:104F000048165906B0F4B60180E290E00E94C0282D
:104F10003A94F4CFF50127FC859127FE81915F013A
:104F2000B60190E00E94C02831103A94F1E04F1A87
:104F300051084114510471F7E6C0843611F08936E6
:104F400039F5F80127FF07C0608171818281938163
:104F50000C5F1F4F08C060817181072E000C880B09
:104F6000990B0E5F1F4F2F76722E97FF09C09095F9
:104F70008095709561957F4F8F4F9F4F2068722E5F
:104F80002AE030E0A4010E94F028A82EA81844C00E
:104F9000853729F42F7EB22E2AE030E025C0F22F8B
:104FA000F97FBF2E8F36C1F018F4883579F0B5C07F
:104FB000803719F0883721F0B0C02F2F2061B22E32
:104FC000B4FE0DC08B2D8460B82E09C024FF0AC02A
:104FD0009F2F9660B92E06C028E030E005C020E182
:104FE00030E002C020E132E0F801B7FE07C0608186
:104FF0007181828193810C5F1F4F06C06081718136
:1050000080E090E00E5F1F4FA4010E94F028A82EC0
:10501000A818FB2DFF777F2E76FE0BC0372D3E7F25
:10502000A51450F474FE0AC072FC08C0372D3E7EF1
:1050300005C0BA2C372D03C0BA2C01C0B52C34FFE3
:105040000DC0FE01EA0DF11D8081803311F4397E1F
:1050500009C032FF06C0B394B39404C0832F86788E
:1050600009F0B39433FD13C030FF06C0B31498F4B5
:105070003A0C532C5B1810C0B31470F4B60180E2E4
:1050800090E03C870E94C028B3943C85F5CFB314D0
:1050900018F43B1802C05A2C312C34FF12C0B60150
:1050A00080E390E03C870E94C0283C8532FF17C017
:1050B00031FD03C088E790E002C088E590E0B601CA
:1050C0000CC0832F867859F031FF02C08BE201C0FB
:1050D00080E237FD8DE2B60190E00E94C028A51461
:1050E00038F4B60180E390E00E94C0285A94F7CFCC
:1050F000AA94F401EA0DF11D8081B60190E00E94AE
:10510000C028A110F5CF332009F450CEB60180E2BB
:1051100090E00E94C0283A94F6CFF60186819781EC
:1051200002C08FEF9FEF2C96E2E10C946A29992739
:1051300088270895FC010590615070400110D8F750
:10514000809590958E0F9F1F0895FC0161507040CF
:1051500001900110D8F7809590958E0F9F1F0895AC
:10516000DC01FC01672F71917723E1F7329704C0CE
:105170007C916D9370836291AE17BF07C8F3089559
:105180000F931F93CF93DF93182F092FEB018B8180
:1051900081FD03C08FEF9FEF1EC082FF0FC02E81E5
:1051A0003F818C819D812817390774F4E881F9814A
:1051B000CF01019699838883108306C0E885F9851D
:1051C000812F0995892B31F78E819F8101969F83CD
:1051D0008E83812F902FDF91CF911F910F91089592
:1051E000FA01AA27283051F1203181F1E8946F9318
:1051F0006E7F6E5F7F4F8F4F9F4FAF4FB1E03ED0BE
:10520000B4E03CD0670F781F891F9A1FA11D680F5B
:10521000791F8A1F911DA11D6A0F711D811D911D8E
:10522000A11D20D009F468943F912AE0269F112403
:105230003019305D3193DEF6CF010895462F477067
:10524000405D4193B3E00FD0C9F7F6CF462F4F70C2
:10525000405D4A3318F0495D31FD4052419302D020
:10526000A9F7EACFB4E0A6959795879577956795C6
:10527000BA95C9F700976105710508959B01AC01C6
:105280000A2E06945795479537952795BA95C9F7ED
:10529000620F731F841F951FA01D08952F923F92C8
:1052A0004F925F926F927F928F929F92AF92BF9236
:1052B000CF92DF92EF92FF920F931F93CF93DF93E2
:1052C000CDB7DEB7CA1BDB0B0FB6F894DEBF0FBE3F
:1052D000CDBF09942A88398848885F846E847D848C
:1052E0008C849B84AA84B984C884DF80EE80FD808E
:1052F0000C811B81AA81B981CE0FD11D0FB6F89404
:10530000DEBF0FBECDBFED01089510E0CFE5D0E0C8
:1053100004C0FE010E9481222196C036D107C9F740
:04532000F894FFCF2F
:10532400000025042000E80300000000C01B00006A
:1053340000000000000001025301C01B0000000037
:105344007B72783A002C0072793A00727A3A000043
:105354000000001502D70241014B010200000000C9
:10536400001602D902FEFFFEFF00002002E4020044
:105374000000004905B905320233024D0734023DED
:105384000240024E027F029402AA02E50AF3061CBE
:10539400000000000000000000E4FFE4FF00000043
:1053A400000000910175017F019B011C00000000B9
:1053B400009505A505E4FFE4FF00009B05AF05008B
:1053C400000000B007EE02F5026163656C65726F60
:1053D400006163655F6765740000000000010253AB
:1053E40001BC0E470B4E0B6C6170696E000000002F
:1053F40000720F610F680F48656C700068656C700F
:105404000000000000010253014110BE0FC50F50FF
:10541400696E0070696E496E6974000000000001D5
:105424000253015111CE10D5106F757400446F6E84
:1054340065001C022602060000000000DE110B12AB
:10544400FAFFFAFF0000E811161220000000000025
:1054540000000000E0FFE0FF0000000000004C023C
:1054640030023A0256022000000000000313131316
:10547400E0FFE0FF000009131D1300000000E01529
:10548400FA1101127B7375636573733A46616C7329
:10549400657D007B7375636573733A547275652C0F
:1054A400726573756C743A25737D000000000035D5
:1054B4001A6C1BB619D019C219131A0D0A00000070
:0E54C4000000581D2B1DFA1C021D181D2A1D6C
:00000001FF
