:100000000C9437000C945F000C945F000C945F001C
:100010000C945F000C945F000C945F000C945F00E4
:100020000C945F000C945F000C945F000C945F00D4
:100030000C945F000C945F000C945F000C945F00C4
:100040000C947B0C0C945F000C94820B0C94B40BFE
:100050000C945F000C945F000C945F000C945F00A4
:100060000C945F000C945F005408E40B8C0811247E
:100070001FBECFEFD8E0DEBFCDBF11E0A0E0B1E002
:10008000EAEBF2E202C005900D92A43CB107D9F769
:1000900022E0A4ECB1E001C01D92AB37B207E1F75A
:1000A00010E0C6E3D0E004C02197FE010E94220DBB
:1000B000C433D107C9F70E94680C0C9450110C94FA
:1000C00000002AE031E0FC01318320830895089587
:1000D000FC0184E191E09183808382819381268178
:1000E00037812817390711F00C94C00D0895CF936C
:1000F000DF93EC01CE010E94280D009761F4E0919E
:10010000C401F091C501309721F480E090E00E9495
:1001100050110995EFCFDF91CF9108958F929F9263
:10012000AF92BF92CF92DF92EF92FF920F931F9305
:10013000CF93DF93EC014B016417750709F458C0A6
:100140008A819B81E881F9817C01EE1AFF0A6A01AC
:10015000C61AD70AB6016E0D7F1D2C813D812E1B5C
:100160003F0B215031092617370708F052C02FEFF7
:10017000E21AF20AC601A4E1CA16D10410F484E11D
:1001800090E0E80EF91EE114F10409F43FC0C70144
:100190000E9477005C01688179810A811B81061BBE
:1001A000170BA801C5010E94640E0A0D1B1DA601B4
:1001B000B401C8010E94640E0C0D1D1DB80181E040
:1001C00090E00E94590AFC011082D8011C9288819B
:1001D00099812C813D812817390711F00E94C00DAB
:1001E000B982A8821B830A83EA0CFB1CFD82EC8285
:1001F000CE01DF91CF911F910F91FF90EF90DF9093
:10020000CF90BF90AF909F908F900895A12CB12C6C
:10021000C2CFB4016F5F7F4F461B570B01960E9400
:10022000640E0A811B810C0D1D1DB80181E090E058
:100230000E94590AFC011082D8011C92EA81FB81BC
:10024000D4018C9180830A811B810C0D1D1D1B83A1
:100250000A83CECFAF92BF92CF92DF92EF92FF92FE
:100260000F931F93CF93DF93EC016C0182E0C80ED4
:10027000D11CC616D70641F1FB01A280B3800081D4
:1002800011818A819B814C815D81481B590B7501CD
:10029000E01AF10A4E155F0510F1A701B8010E949E
:1002A0005B0EEC81FD81AA81BB81AE0DBF1DEA17FB
:1002B000FB0751F080818C93EA1BFB0B8C819D81A5
:1002C0008E1B9F0B9D838C83DF91CF911F910F918C
:1002D000FF90EF90DF90CF90BF90AF900895B8015E
:1002E0000E945B0E6C817D818A819B81681B790BEA
:1002F000600F711F20E0A501C6010E948E00E4CFAF
:10030000CF92DF92EF92FF920F931F93CF93DF93E1
:100310008C016B017A01E61AF70AE7012196CF3FBB
:100320008FEFD80771F0209751F1CE010E9477002E
:10033000F80191838083938382838C0F9D1F958323
:100340008483F801C081D181A701B601CE010E944A
:10035000640ECE0DDF1DF801D383C283BE0181E0A0
:1003600090E00E94590AFC0110821882DF91CF911F
:100370001F910F91FF90EF90DF90CF90089580E054
:1003800090E0D6CFFC0184E191E0918380831382D9
:1003900012821582148217821682DB0112964D9109
:1003A0005C9113976D917C91CF0102960C94800122
:1003B000CF93DF93EC01198218821B821A821D826F
:1003C0001C82FB0144815581628173810E948001FE
:1003D000CE01DF91CF9108952CE231E0FC01318311
:1003E00020830C946800CF93DF93EC010E94EC0112
:1003F000CE01DF91CF910C94790CCF93DF93FC0168
:10040000A081B1818C91811112C01196CD91DC91A6
:10041000129789819A81A817B90749F415968D9189
:100420009C91169791838083DF91CF9108951396C5
:10043000CD91DC911497209789F411960D90BC9181
:10044000A02D2081318113968D919C911497B183B9
:10045000A0832817390789F3E7CFEC018D819E81AE
:100460000097D9F7D183C083DFCFCF93DF93FC010F
:10047000A581B6811396CD91DC911497D683C5835F
:10048000209711F09A8389838181928112969C939F
:100490008E931197EB0188819981E817F90759F438
:1004A000B983A8831496FC93EE931397B283A18328
:1004B000DF91CF910895C181D2818B819C81E81712
:1004C000F90719F4BC83AB83EDCFBE83AD83EACFCC
:1004D000CF93DF93FC01A381B4811596CD91DC917C
:1004E0001697D483C383209711F09A8389838181DF
:1004F000928112969C938E931197EB01888199813A
:10050000E817F90759F4B983A8831696FC93EE937C
:100510001597B283A183DF91CF910895C181D281D4
:100520008D819E81E817F90719F4BE83AD83EDCF65
:10053000BC83AB83EACFCF92DF92FF920F931F93DE
:10054000CF93DF93EC016B011882FF24F394D60163
:10055000ED91FC91CE17DF0709F44EC009811A8195
:10056000D8018C91811148C01196ED91FC911297A0
:10057000A381B4810A171B0721F5A581B6811097C5
:1005800049F08C91811106C0E801F882FC9210823A
:10059000EF01DDCFF80185819681C817D90729F4CD
:1005A000B601C8010E943502E801E981FA81F082B2
:1005B00081819281DC011C92B6010E946802FE01D9
:1005C000E7CF109719F08C918823F1F2F80183811D
:1005D0009481C817D90729F4B601C8010E9468029E
:1005E000E801E981FA81F08281819281DC011C922B
:1005F000B6010E943502E3CF81E08083DF91CF9185
:100600001F910F91FF90DF90CF900895FC018081A2
:100610009181248135812817390711F00C94C00D80
:1006200008950F931F93CF93DF93FC01DB012D916E
:100630003C9111978081918102811381081B190BD4
:100640001296CD91DC911397C21BD30BA801C01752
:10065000D1070CF4AE01B9010E944E0E009729F4A7
:100660000C171D075CF020E0922F892F881F882728
:10067000881FDF91CF911F910F9108958FEF9FEF0A
:10068000F4CFCF92DF92EF92FF920F931F93CF930D
:10069000DF938C016B017A01E61AF70AE7012196D4
:1006A000CF3F8FEFD80771F0209751F1CE010E9414
:1006B0007700F80191838083938382838C0F9D1F41
:1006C00095838483F801C081D181A701B601CE0151
:1006D0000E94640ECE0DDF1DF801D383C283BE01DC
:1006E00081E090E00E94590AFC0110821882DF919B
:1006F000CF911F910F91FF90EF90DF90CF900895D1
:1007000080E090E0D6CFFC01118210821382128229
:1007100015821482FB0101900020E9F7AF014150DE
:1007200051090C9441030F931F93CF93DF93CDB7DF
:10073000DEB727970FB6F894DEBF0FBECDBF8C0192
:10074000AE01495F5F4F6EE171E0CE0101960E94FC
:100750008303BE016F5F7F4FC8010E94C201CE01BB
:1007600001960E9406038CE291E0F8019183808358
:1007700027960FB6F894DEBF0FBECDBFDF91CF91A5
:100780001F910F910895EF92FF920F931F93CF93B4
:10079000DF938C018FE090E00E9477007C01BC0128
:1007A000695F7F4F88E090E00E94590AEC0119824E
:1007B00018821B821A821D821C82F8014281538199
:1007C000608171810E944103F801868197819F8336
:1007D0008E83C701DF91CF911F910F91FF90EF9012
:1007E0000895AF92BF92CF92DF92EF92FF920F9354
:1007F0001F93CF93DF935C016B017901DB018D9136
:100800009C912817390709F449C0452B09F046C0C7
:10081000B901695F7F4FC8010E94110381113EC079
:10082000C8010E94C303EC01F70196838583D601BA
:10083000ED91FC9185819681E816F90641F443C05B
:1008400083819481E816F90611F4D483C383FA8274
:10085000E9821C821B821E821D82F60160817181E9
:100860006F5F7F4FCE010E949B02D60112968D9141
:100870009C911397019613969C938E931297F50172
:10088000D183C083C501DF91CF911F910F91FF905C
:10089000EF90DF90CF90BF90AF900895C8010E9475
:1008A000C303EC01D70114969C938E931397D60142
:1008B000ED91FC91EE16FF0619F6F701D283C18384
:1008C000D601ED91FC91D683C583C1CF6F927F9203
:1008D0008F929F92AF92BF92CF92DF92EF92FF9250
:1008E0000F931F93CF93DF9300D000D0CDB7DEB727
:1008F0006C014B018A01FB0160807180F301E18092
:10090000F280530181E0E114F10491F0B701695FD5
:100910007F4FC8010E941103F701882331F0238122
:1009200094815701E22EF92EEECF25819681F9CFE1
:10093000BC82AB82882369F1F30183819481A8167C
:10094000B90619F5950140E050E0B401CE010196D9
:100950000E94F10389819A81F6019183808381E06D
:100960008283C6010F900F900F900F90DF91CF916F
:100970001F910F91FF90EF90DF90CF90BF90AF90BD
:100980009F908F907F906F900895CE0103960E9464
:10099000FD01EB80FC80B801C70107960E9411039E
:1009A0008111D0CFF601F182E0821282DACF8F92EC
:1009B0009F92AF92BF92CF92DF92EF92FF920F93EE
:1009C0001F93CF93DF9300D000D01F92CDB7DEB737
:1009D0006C017B014A018901DA01AD90BC90DB0119
:1009E000ED91FC91119783819481A816B906D1F4F9
:1009F00012968D919C911397892B41F0B501695FF7
:100A00007F4FC9010E941103811157C0A801B7018E
:100A1000CE0101960E94660489819A81D6018D9348
:100A20009C9314C0AE16BF0621F5F501A580B680D3
:100A3000B901C50107960E941103882339F3950176
:100A400040E050E0B701C6010E94F103C6010F90DB
:100A50000F900F900F900F90DF91CF911F910F91FA
:100A6000FF90EF90DF90CF90BF90AF909F908F90CE
:100A70000895BD82AC82CE0104960E94FD01AC8037
:100A8000BD80B801C50107960E941103882309F4AF
:100A9000BDCFF40180809180B401695F7F4FC801B0
:100AA0000E941103882309F4B1CFF5018581968155
:100AB000892B29F29401A401C5CF9501A501C2CFCC
:100AC0008F929F92AF92BF92CF92DF92EF92FF925E
:100AD0000F931F93CF93DF93CDB7DEB763970FB616
:100AE000F894DEBF0FBECDBF8C014B0184E090E0D7
:100AF0000E94770C5C01B8010E94AB07AE014D5E0D
:100B00005F4F63E271E0CE0109960E948303F40116
:100B1000C080D180F601E180F2808601E114F10409
:100B200091F0BE01675F7F4FC70107960E941103D6
:100B3000811105C08701F701E380F480EFCFF70151
:100B4000E580F680EBCFC016D10619F1B801695FD8
:100B50007F4FCE0109960E94110381111AC0F8013E
:100B6000B686A586CE0109960E94060363960FB647
:100B7000F894DEBF0FBECDBFDF91CF911F910F91D3
:100B8000FF90EF90DF90CF90BF90AF909F908F90AD
:100B900008951A8219821C821B821E821D824B8537
:100BA0005C8569857A85CE0101960E94410318868D
:100BB0001F82188B0F879E012F5F3F4FAE01415F51
:100BC0005F4FB401CE0141960E94D70409891A896A
:100BD000CE0101960E940603C2CF24E531E0FC015C
:100BE000318320830C946700CF93DF93EC010E9444
:100BF000ED05CE01DF91CF910C94790C0F931F93EB
:100C0000CF93DF938C01FC01118210821382128238
:100C1000158214828AE190E00E94280DEC01009771
:100C200061F4E091C401F091C501309721F480E0B6
:100C300090E00E9450110995EDCFF80191838083D7
:100C40004A969583848389E1E6E3F1E0DE01019031
:100C50000D928A95E1F7BE01675E7F4FF8017383BD
:100C6000628381E090E00E94590AFC011082198E93
:100C7000C801DF91CF911F910F910895CF93DF931A
:100C8000EC010E94610084E591E099838883DF9103
:100C9000CF9108952EE631E0FC01318320830C943E
:100CA0006800CF93DF93EC010E944A06CE01DF91EA
:100CB000CF910C94790CCF92DF92EF92FF920F9329
:100CC0001F93CF93DF938C016B017A01E61AF70A29
:100CD000E7012196CF3F8FEFD80771F0209751F1B0
:100CE000CE010E947700F8019183808393838283F1
:100CF0008C0F9D1F95838483F801C081D181A7014A
:100D0000B601CE010E94640ECE0DDF1DF801D38323
:100D1000C283BE0181E090E00E94590AFC0110826A
:100D20001882DF91CF911F910F91FF90EF90DF908C
:100D3000CF90089580E090E0D6CF0F931F93CF938C
:100D4000DF93CDB7DEB727970FB6F894DEBF0FBE9F
:100D5000CDBF8C01AE01495F5F4F6AE571E0CE0106
:100D600001960E948303BE016F5F7F4FC8010E94FE
:100D7000C201CE0101960E9406038EE691E0F801C1
:100D80009183808327960FB6F894DEBF0FBECDBF48
:100D9000DF91CF911F910F9108958F929F92AF9203
:100DA000BF92CF92DF92EF92FF920F931F93CF9358
:100DB000DF93CDB7DEB763970FB6F894DEBF0FBEF3
:100DC000CDBF8C014B0184E090E00E94770C5C0168
:100DD000B8010E943E06AE014D5E5F4F62E671E0D3
:100DE000CE0109960E948303F401C080D180F601F0
:100DF000E180F2808601E114F10491F0BE01675FA9
:100E00007F4FC70107960E941103811105C087011A
:100E1000F701E380F480EFCFF701E580F680EBCFB8
:100E2000C016D10619F1B801695F7F4FCE0109964E
:100E30000E94110381111AC0F801B686A586CE0161
:100E400009960E94060363960FB6F894DEBF0FBEA4
:100E5000CDBFDF91CF911F910F91FF90EF90DF9069
:100E6000CF90BF90AF909F908F9008951A82198273
:100E70001C821B821E821D824B855C8569857A855A
:100E8000CE0101960E945B0618861F82188B0F8781
:100E90009E012F5F3F4FAE01415F5F4FB401CE0116
:100EA00041960E94D70409891A89CE0101960E94B1
:100EB0000603C2CF22E831E0FC01318320830C9489
:100EC0006700CF93DF93EC010E945A07CE01DF91B8
:100ED000CF910C94790C0F931F93CF93DF938C01D8
:100EE000FC0111821082138212821582148286E024
:100EF00090E00E94280DEC01009761F4E091C4019C
:100F0000F091C501309721F480E090E00E945011EB
:100F10000995EDCFF80191838083069695838483AC
:100F200085E0E8E7F1E0DE0101900D928A95E1F7B6
:100F3000BE016B5F7F4FF8017383628381E090E0B5
:100F40000E94590AFC0110821D82C801DF91CF91D5
:100F50001F910F910895CF93DF93EC010E946100E0
:100F600082E891E099838883DF91CF910895EF9291
:100F7000FF920F931F93CF93DF93CDB7DEB7C0558A
:100F8000D1090FB6F894DEBF0FBECDBF6B96EEACA5
:100F9000FFAC6B979E01235A3F4F6D964EAD5FADF0
:100FA0006D9760E570E0CE0101960E94760E8E018D
:100FB0000F5F1F4FD8018C918823B9F08A3049F414
:100FC000D701ED91FC910190F081E02D6DE0C7011A
:100FD0000995D701ED91FC910190F081E02DD801A8
:100FE0006D918D01C7010995E5CFC05BDF4F0FB64D
:100FF000F894DEBF0FBECDBFDF91CF911F910F914F
:10100000FF90EF9008950F931F93CF93DF93FA0112
:101010008B01081B190BE901C41BD50BA801C017D4
:10102000D1070CF4AE01BF010E944E0E009759F497
:101030000C171D076CF031E020E0C017D1070CF051
:1010400030E0832F922FDF91CF911F910F91089560
:101050008FEF9FEFF8CFEF92FF920F931F93CF93F5
:10106000DF937C01EB01209781F06D817E81C701C8
:101070000E942B080B811C81CE0107960E9406035B
:10108000CE010E94C00DE801EECFDF91CF911F91FC
:101090000F91FF90EF900895BC0181E090E00E94D5
:1010A000590AFC01108208950F931F93CF93DF9389
:1010B000CCECD1E0198218828FE090E00E9477009A
:1010C000998388831B821A82FC011082128211820A
:1010D000E881F981F483E383F683E583C6ECD1E00C
:1010E000198218821B821A821D821C8288E090E07D
:1010F0000E9477008C01998388839B838A8308965A
:101100009D838C83C8010E944C08F8011082DF91F6
:10111000CF911F910F91089586EC91E00E940603F4
:101120008091CE019091CF01892BC1F0E091CC014B
:10113000F091CD01618172818CEC91E00E942B08CD
:10114000E091CC01F091CD01F483E383128211820E
:10115000E091CC01F091CD01F683E5838091CC0143
:101160009091CD010C94C00D8F929F92AF92BF923F
:10117000CF92DF92EF92FF920F931F93CF93DF9363
:10118000CDB7DEB72C970FB6F894DEBF0FBECDBF3C
:10119000E091C801F091C901A091C601B091C701C9
:1011A000EA17FB0771F080818C93EA1BFB0B80919F
:1011B000C8019091C9018E1B9F0B9093C901809328
:1011C000C80181ED91E00E945B0A892BD1F381ED8A
:1011D00091E00E94750AD82E8091C8019091C901B2
:1011E0009C012F5F3F4F4091CA015091CB014217A4
:1011F000530709F03FC02091C6013091C701821BFF
:10120000930B09F0C2C001E010E0080F191F081786
:10121000190708F48C010F5F1F4F09F4B8C0C8010B
:101220000E9477005C016091C6017091C701E09057
:10123000C801F090C901E61AF70AA701C5010E948A
:10124000640EEA0CFB1CC7010E944C08D7011C92DB
:1012500086EC91E00E940603B092C701A092C601FD
:10126000F092C901E092C8010A0D1B1D1093CB0139
:101270000093CA010091C8011091C901C8010196EB
:101280000E944C08F8011182E091C801F091C90157
:10129000D0828091C8019091C90101969093C901B3
:1012A0008093C801FDE0DF128CCFE090C601F09082
:1012B000C7018C010E191F0909F4A5C08E159F05E1
:1012C00009F4A1C09701A9014F5F5F4FD9016C914B
:1012D000603209F093C08217930709F494C02E1965
:1012E0003F092017310708F4890118861F821A86E2
:1012F00019861C861B865801BFEFAB1ABB0AEFEF9D
:10130000AE16BE0679F0A114B10409F443C0C501BC
:101310000E94770098878F839A8789878A0D9B1D03
:101320009C878B87AF80B884A801B701C5010E9454
:10133000640E0A0D1B1D1A870987C8010E944C08FC
:10134000D8011C92A090CC01B090CD01F501018193
:10135000128189849A84CF80D88475010115110582
:1013600011F1D80119966D917C911A979401A601FB
:1013700017968D919C9118970E94030897FD0DC0B8
:101380007801F80103811481E9CF8C013ECFA12CB3
:10139000B12C49CF80E090E0BDCFD80115960D91DA
:1013A0001C911697DBCFAE14BF0459F0F7012185CD
:1013B000328547815085B401C6010E94030897FF1A
:1013C00025C068E871E081ED91E00E94530CCE01E8
:1013D00007960E9406032C960FB6F894DEBF0FBE48
:1013E000CDBFDF91CF911F910F91FF90EF90DF90D4
:1013F000CF90BF90AF909F908F9008959A018417DF
:10140000950709F060CF2FEF3FEF6BCFD7011D9607
:101410006D917C911E97DB01ED91FC910190F08123
:10142000E02DAE01495F5F4FCE01019609958A819B
:101430008F9389818F9387E991E09F938F9381EDBB
:1014400091E09F938F930E94B707CE0101960E946F
:101450000603CE0107960E9406030F900F900F908F
:101460000F900F900F90B7CFCF93DF9326E040E817
:1014700055E260E070E081ED91E00E94210B88E090
:1014800090E00E94770CEC010E9493036CEC71E0F9
:10149000CE010E94600588E090E00E94770CEC018C
:1014A0000E949D066CEC71E0CE01DF91CF910C940F
:1014B000CD06CB010895FC01918D228D892F90E0FE
:1014C000805C9F4F821B91098F7399270895FC01BF
:1014D000918D828D981731F0828DE80FF11D858DE9
:1014E00090E008958FEF9FEF0895FC01918D828D1C
:1014F000981761F0828DDF01A80FB11D5D968C9168
:10150000928D9F5F9F73928F90E008958FEF9FEF72
:1015100008958AED9BE0892B49F080E090E0892BCB
:1015200029F00E94DA0B81110C9400000895FC014F
:10153000848DDF01A80FB11DA35ABF4F2C91848D5C
:1015400090E001968F739927848FA689B7892C9391
:10155000A089B1898C9180648C93938D848D98132C
:1015600006C00288F389E02D80818F7D80830895F5
:10157000CF93DF93EC01888D882351F0EA89FB89B2
:10158000808185FD08C0A889B9898C9186FF03C038
:10159000DF91CF9108950FB607FCF2CF808185FFD0
:1015A000EFCFA889B9898C9185FFEACFCE010E943F
:1015B000970AE4CFEF92FF920F931F93CF93DF939D
:1015C000EC01F62E81E0888F9B8D8C8D981305C0E1
:1015D000E889F989808185FD2CC00B8D10E00F5FB3
:1015E0001F4F0F731127E02E8C8DE8120CC00FB621
:1015F00007FCFACFE889F989808185FFF5CFCE0114
:101600000E94970AF1CF8B8DFE01E80FF11DE35A7E
:10161000FF4FF0820B8FEA89FB8980818062808393
:1016200081E090E0DF91CF911F910F91FF90EF90BB
:101630000895EE89FF896083E889F9898081806453
:10164000EECFCF92DF92EF92FF921F93CF93DF9373
:10165000EC016A017B01122FE889F98982E080831D
:101660004115514E61057105A1F060E079E08DE30F
:1016700090E0A70196010E94000D21503109410917
:1016800051095695479537952795211580E13807DB
:1016900098F0E889F989108260E874E88EE190E0BA
:1016A000A70196010E94000D2150310941095109FD
:1016B0005695479537952795EC85FD853083EE85C2
:1016C000FF852083188EEC89FD891083EA89FB89C8
:1016D000808180618083EA89FB8980818860808342
:1016E000EA89FB89808180688083EA89FB8980811F
:1016F0008F7D8083DF91CF911F91FF90EF90DF90DE
:10170000CF9008951F920F920FB60F9211242F932E
:101710008F939F93EF93FF93E091E101F091E201AA
:101720008081E091E701F091E80182FD1BC090818A
:101730008091EA018F5F8F732091EB01821741F056
:10174000E091EA01F0E0EF52FE4F958F8093EA01BD
:10175000FF91EF919F918F912F910F900FBE0F905E
:101760001F9018958081F4CF1F920F920FB60F92A1
:1017700011242F933F934F935F936F937F938F9396
:101780009F93AF93BF93EF93FF9381ED91E00E94FE
:10179000970AFF91EF91BF91AF919F918F917F91A8
:1017A0006F915F914F913F912F910F900FBE0F90CE
:1017B0001F90189581ED91E00E945B0A21E0892B32
:1017C00009F420E0822F0895E1EDF1E01382128206
:1017D00088EE93E0A0E0B0E084839583A683B7838E
:1017E00085EB91E09183808385EC90E095878487F9
:1017F00084EC90E09787868780EC90E0918B808BDB
:1018000081EC90E0938B828B82EC90E0958B848BC3
:1018100086EC90E0978B868B118E128E138E148E31
:101820000895CF92DF92EF92FF920F931F93CF9381
:10183000DF937C016A018B01C0E0D0E0CC15DD05AF
:1018400079F0D8016D918D01D701ED91FC91019056
:10185000F081E02DC7010995892B11F02196EECF7B
:10186000CE01DF91CF911F910F91FF90EF90DF900C
:10187000CF9008956115710579F0FB01019000206A
:10188000E9F73197AF01461B570BDC01ED91FC9155
:101890000280F381E02D099480E090E0089561ECEE
:1018A00071E00C943A0C0F931F93CF93DF93EC01EC
:1018B0000E943A0C8C01CE010E944F0C800F911FA8
:1018C000DF91CF911F910F9108950E94490E0895C5
:1018D0000E94C50C0E94670C0E94340AC9E8DAE035
:1018E0000E94B4082097E1F30E94890AF9CF0C9472
:1018F000280D0C94C00D1F920F920FB60F92112459
:101900002F933F938F939F93AF93BF9380916F02D9
:1019100090917002A0917102B091720230916E02AA
:1019200023E0230F2D3758F50196A11DB11D2093FB
:101930006E0280936F0290937002A0937102B09335
:1019400072028091730290917402A0917502B0911D
:1019500076020196A11DB11D8093730290937402CB
:10196000A0937502B0937602BF91AF919F918F9132
:101970003F912F910F900FBE0F901F90189526E862
:10198000230F0296A11DB11DD2CF789484B5826039
:1019900084BD84B5816084BD85B5826085BD85B513
:1019A000816085BDEEE6F0E0808181608083E1E8C2
:1019B000F0E01082808182608083808181608083FA
:1019C000E0E8F0E0808181608083E1EBF0E08081FD
:1019D00084608083E0EBF0E0808181608083EAE7CF
:1019E000F0E0808184608083808182608083808158
:1019F000816080838081806880831092C100089517
:101A0000A1E21A2EAA1BBB1BFD010DC0AA1FBB1F02
:101A1000EE1FFF1FA217B307E407F50720F0A21B74
:101A2000B30BE40BF50B661F771F881F991F1A94E1
:101A300069F760957095809590959B01AC01BD010B
:101A4000CF010895EE0FFF1F0590F491E02D09944A
:101A50000F931F93CF93DF938230910510F482E0B0
:101A600090E0E0917902F0917A0220E030E0A0E08D
:101A7000B0E0309719F140815181028113814817FC
:101A80005907C8F08417950769F4109731F012963A
:101A90000C93129713961C9327C00093790210930E
:101AA0007A0222C02115310519F04217530718F4A4
:101AB0009A01BD01EF01DF01F801DBCF21153105EE
:101AC000F9F0281B390B2430310580F48A819B8181
:101AD0006115710521F0FB019383828304C090930B
:101AE0007A0280937902FE01329644C0FE01E20F31
:101AF000F31F8193919322503109398328833AC08F
:101B00002091770230917802232B41F42091020139
:101B100030910301309378022093770220910001E5
:101B2000309101012115310541F42DB73EB74091A7
:101B3000040150910501241B350BE0917702F091CF
:101B40007802E217F307A0F42E1B3F0B2817390782
:101B500078F0AC014E5F5F4F2417350748F04E0F09
:101B60005F1F50937802409377028193919302C054
:101B7000E0E0F0E0CF01DF91CF911F910F91089548
:101B8000CF93DF93009709F481C0FC013297138251
:101B90001282A0917902B0917A02109781F420818B
:101BA0003181820F931F209177023091780228179C
:101BB000390751F5F0937802E093770267C0ED01A1
:101BC00020E030E0CE17DF0740F44A815B819E01C0
:101BD00041155105F1F0EA01F5CFD383C28340816D
:101BE0005181840F951FC817D90759F488819981AD
:101BF000840F951F0296918380838A819B819383B2
:101C000082832115310529F4F0937A02E093790259
:101C10003DC0E901FB83EA8349915991C40FD51F67
:101C2000EC17FD0761F480819181840F951F029666
:101C3000E90199838883828193819B838A83E0E091
:101C4000F0E012968D919C911397009719F0FD0189
:101C5000DC01F7CF8D919C9111979D012E5F3F4F35
:101C6000820F931F2091770230917802281739074D
:101C700069F4309729F410927A021092790202C026
:101C800013821282B0937802A0937702DF91CF91F2
:101C9000089581E090E0F8940C945011FB01DC0170
:101CA00004C08D910190801921F441505040C8F733
:101CB000881B990B0895FB01DC0102C001900D9275
:101CC00041505040D8F708956817790768F4FB0130
:101CD000DC01E40FF51FA40FB51F02C002900E92A5
:101CE00041505040D8F708950C945B0EAEE0B0E040
:101CF000ECE7FEE00C9427118C01FA0186E08C835E
:101D00001A83098377FF02C060E070E8CB01019776
:101D10009E838D83A901BF01CE0101960E94A20E70
:101D20004D815E8157FD0AC02F81388542175307C8
:101D30000CF49A01F801E20FF31F10822E96E4E0F2
:101D40000C944311ACE0B0E0E8EAFEE00C94191109
:101D50006C017B018A01FC0117821682838181FF5D
:101D6000BEC1CE0101964C01F6019381F70193FDAE
:101D7000859193FF81917F01882309F4ACC185325D
:101D800039F493FD859193FF81917F01853229F488
:101D9000B60190E00E948B10E7CF512C312C20E04F
:101DA0002032A0F48B3269F030F4803259F0833263
:101DB00069F420612CC08D3239F0803339F4216010
:101DC00026C02260246023C0286021C027FD27C0D0
:101DD00030ED380F3A3078F426FF06C0FAE05F9E07
:101DE000300D1124532E13C08AE0389E300D11247B
:101DF000332E20620CC08E3221F426FD6CC120648B
:101E000006C08C3611F4206802C0883641F4F70110
:101E100093FD859193FF81917F018111C1CF982F0F
:101E20009F7D9554933028F40C5F1F4F9FE3998357
:101E30000DC0833631F0833771F0833509F05BC014
:101E400022C0F801808189830E5F1F4F4424439490
:101E5000512C540115C03801F2E06F0E711CF801CD
:101E6000A080B18026FF03C0652D70E002C06FEF37
:101E70007FEFC5012C870E9480102C0183012C85E7
:101E80002F77222E17C03801F2E06F0E711CF80177
:101E9000A080B18026FF03C0652D70E002C06FEF07
:101EA0007FEFC5012C870E9475102C012C852068BE
:101EB000222E830123FC1BC0832D90E04816590677
:101EC000B0F4B60180E290E00E948B103A94F4CF17
:101ED000F50127FC859127FE81915F01B60190E015
:101EE0000E948B1031103A94F1E04F1A51084114BE
:101EF000510471F7E6C0843611F0893639F5F801DE
:101F000027FF07C060817181828193810C5F1F4F21
:101F100008C060817181072E000C880B990B0E5F41
:101F20001F4F2F76722E97FF09C090958095709560
:101F300061957F4F8F4F9F4F2068722E2AE030E0CF
:101F4000A4010E94BB10A82EA81844C0853729F40C
:101F50002F7EB22E2AE030E025C0F22FF97FBF2E6F
:101F60008F36C1F018F4883579F0B5C0803719F094
:101F7000883721F0B0C02F2F2061B22EB4FE0DC0E3
:101F80008B2D8460B82E09C024FF0AC09F2F966055
:101F9000B92E06C028E030E005C020E130E002C0E4
:101FA00020E132E0F801B7FE07C0608171818281D3
:101FB00093810C5F1F4F06C06081718180E090E0CB
:101FC0000E5F1F4FA4010E94BB10A82EA818FB2D66
:101FD000FF777F2E76FE0BC0372D3E7FA51450F481
:101FE00074FE0AC072FC08C0372D3E7E05C0BA2CB4
:101FF000372D03C0BA2C01C0B52C34FF0DC0FE0133
:10200000EA0DF11D8081803311F4397E09C032FF61
:1020100006C0B394B39404C0832F867809F0B394B8
:1020200033FD13C030FF06C0B31498F43A0C532CA0
:102030005B1810C0B31470F4B60180E290E03C87E6
:102040000E948B10B3943C85F5CFB31418F43B1861
:1020500002C05A2C312C34FF12C0B60180E390E04C
:102060003C870E948B103C8532FF17C031FD03C0B6
:1020700088E790E002C088E590E0B6010CC0832FAD
:10208000867859F031FF02C08BE201C080E237FD53
:102090008DE2B60190E00E948B10A51438F4B601D1
:1020A00080E390E00E948B105A94F7CFAA94F40139
:1020B000EA0DF11D8081B60190E00E948B10A11005
:1020C000F5CF332009F450CEB60180E290E00E94B3
:1020D0008B103A94F6CFF6018681978102C08FEF7C
:1020E0009FEF2C96E2E10C943511FC0105906150B4
:1020F00070400110D8F7809590958E0F9F1F08951E
:10210000FC016150704001900110D8F780959095C6
:102110008E0F9F1F08950F931F93CF93DF93182F58
:10212000092FEB018B8181FD03C08FEF9FEF1EC054
:1021300082FF0FC02E813F818C819D812817390736
:1021400074F4E881F981CF01019699838883108323
:1021500006C0E885F985812F0995892B31F78E8195
:102160009F8101969F838E83812F902FDF91CF9146
:102170001F910F910895FA01AA27283051F12031BB
:1021800081F1E8946F936E7F6E5F7F4F8F4F9F4F0B
:10219000AF4FB1E03ED0B4E03CD0670F781F891F4D
:1021A0009A1FA11D680F791F8A1F911DA11D6A0F1B
:1021B000711D811D911DA11D20D009F468943F91CE
:1021C0002AE0269F11243019305D3193DEF6CF01CD
:1021D0000895462F4770405D4193B3E00FD0C9F793
:1021E000F6CF462F4F70405D4A3318F0495D31FD00
:1021F0004052419302D0A9F7EACFB4E0A695979553
:10220000879577956795BA95C9F700976105710528
:1022100008959B01AC010A2E069457954795379572
:102220002795BA95C9F7620F731F841F951FA01DCC
:1022300008952F923F924F925F926F927F928F926A
:102240009F92AF92BF92CF92DF92EF92FF920F9345
:102250001F93CF93DF93CDB7DEB7CA1BDB0B0FB64F
:10226000F894DEBF0FBECDBF09942A88398848880C
:102270005F846E847D848C849B84AA84B984C884A2
:10228000DF80EE80FD800C811B81AA81B981CE0F99
:10229000D11D0FB6F894DEBF0FBECDBFED0108957E
:1022A00010E0C6E3D0E004C0FE010E94220D21969A
:0A22B000C733D107C9F7F894FFCF38
:1022BA0000007B02200000000000650C0000000006
:1022CA0000000000D8012A01650C000000004865E2
:1022DA006C700068656C700000000000D8012A016B
:1022EA006005EC01F3017B616365583A31302C617A
:1022FA006365593A32302C6163655A3A33307D004E
:10230A0000000000FE05ED05F4056163656C657269
:10231A006F006163655F6765740000000000D801A3
:10232A002A01CD064A0651066C6170696E000000EA
:10233A0000006B075A0761077B7375636573733A0D
:10234A0046616C73657D007B7375636573733A547C
:10235A007275652C526573756C743A7B25737D7D35
:10236A000000000000DA0A110C5B0A750A670AB855
:04237A000A0D0A003E
:00000001FF
