:100000000C9457050C946F210C9496210C947F0549
:100010000C947F050C947F050C947F050C947F0550
:100020000C947F050C947F050C947F050C947F0540
:100030000C947F050C947F050C947F050C947F0530
:100040000C94BD210C947F050C94531F0C94851FB8
:100050000C947F050C947F050C947F050C947F0510
:100060000C9499250C947F054649464F206F766580
:1000700072666C6F7721002900444D5020496E69EB
:100080007469616C697A6174696F6E206661696C0C
:1000900065642028636F64652000444D50207265BC
:1000A000616479212057616974696E6720666F7297
:1000B00020666972737420696E74657272757074EB
:1000C0002E2E2E00456E61626C696E6720696E741B
:1000D00065727275707420646574656374696F6E9F
:1000E000202841726475696E6F2065787465726E40
:1000F000616C20696E746572727570742030292E7F
:100100002E2E00456E61626C696E6720444D502E44
:100110002E2E00496E697469616C697A696E672078
:10012000444D502E2E2E000A53656E6420616E7968
:100130002063686172616374657220746F20626508
:1001400067696E20444D502070726F6772616D6DEB
:10015000696E6720616E642064656D6F3A20004DA2
:1001600050553630353020636F6E6E656374696F3D
:100170006E206661696C6564004D505536303530CF
:1001800020636F6E6E656374696F6E207375636351
:1001900065737366756C0054657374696E6720646B
:1001A000657669636520636F6E6E656374696F6EF3
:1001B000732E2E2E00496E697469616C697A696EBE
:1001C000672049324320646576696365732E2E2E5D
:1001D0000000000008000201000003040700000006
:1001E0000000000000010204081020408001020409
:1001F000081020010204081020040404040404046C
:1002000004020202020202030303030303000000CC
:100210000023002600290000000000250028002BF4
:100220000000000000240027002A0001B202FFFFA6
:100230000190040923A135016A020600016008004B
:1002400000000000000000006004400000000162A7
:1002500002000000600400400000037B034CCD6CF2
:1002600003AB0336567600680402CB47A20218049B
:1002700000058BC1010C0400000000037F060CC9BF
:100280002C979797038903264666006C022000028C
:100290004004000000000244040000000002480482
:1002A00000000000024C04000000000250040000A6
:1002B0000000025404000000000258040000000086
:1002C000025C040000000002BC040000000001EC1D
:1002D0000400004000037F060CC92C979797040286
:1002E000030D355D040904872D353D00A301000091
:1002F000000001078601FE074105F120283038077C
:100300007E01300746019A074704F1283038076C10
:1003100004F12830380216020002FB00003E000BF8
:100320000036000100020003000000650054FFEFEA
:100330000000FA80000B12820001000200000000A1
:100340000000000000000000000000280000FFFF87
:100350004581FFFFFA7200000000000003E8000082
:10036000000100017FFFFFFE8001001B0000000074
:1003700000000000000000000000003E03304000CC
:10038000000002CAE3093E800000200000000000D7
:100390000000400000006000000041FF000000007D
:1003A0000B2A0000165500002182FD872650FD8093
:1003B0000000001F00000005800000000000000198
:1003C00000000002000000030000400000000000E8
:1003D000046F0002653200005EC0400000000000B3
:1003E00000000000000000000000FB8C6F5DFD5D60
:1003F00008D9007C733B006C12CC3200139D320094
:10040000D0D632000800400001F4FFE680790200F7
:1004100000000000D0D600002710FB0000004000C4
:1004200000000000000000000000000000010000CB
:10043000000000000100010000000000FA36FFBCCF
:10044000308E0005FBF0FFD95BC8FFD09ABE0000DC
:1004500010A9FFF41EB200CEBBF70000000100009F
:100460000004000200020200000CFFC28000000134
:10047000800000CF8000400000000000000100006C
:100480000000000006000000001400000000000052
:10049000000000000000000000000000000000005C
:1004A000000000000000000000000000000000004C
:1004B0000000000000000000000000000000033FFA
:1004C00068B6793528BCC67ED16C8000000040003B
:1004D00000000000B26A0000000000000000000000
:1004E000000000003FF000000030000000000000AD
:1004F00000000000000000000000000000000000FC
:10050000000000000000000000000000254D002F4A
:10051000706D000005AE000C02D000000000006508
:100520000054FFEF00000000000000000100004444
:10053000000000000C000000010000000000006549
:10054000000000540000FFEF000000000000000069
:10055000000000000000000000004000000000005B
:10056000000000000000000000004000000000004B
:10057000000000000000000000000000000100007A
:100580000002000000000000000000000000000069
:10059000000000000000000000000000000000005B
:1005A00000000000000000000000001B0000000030
:1005B000000000000000000000000000000000003B
:1005C000000000000000000000000000000000002B
:1005D00000000000000040000000001B00000000C0
:1005E000000000000000000000000000000000000B
:1005F00000000000000000000000000000000000FB
:1006000000000000000000000000000000000000EA
:1006100000000000000000000000D8DCBAA2F1DEFB
:10062000B2B8B4A88191F74A907F916AF3F9DBA838
:10063000F9B0BAA080F2CE81F3C2F1C1F2C3F3CC1B
:10064000A2B280F1C6D880BAA7DFDFDFF2A7C3CBA2
:10065000C5B6F087A2942448703C95406834589BF6
:1006600078A2F183922D557DD8B1B4B8A1D09180F4
:10067000F270F370F27C80A8F101B09887D943D86A
:1006800086C988BAA1F20EB89780F1A9DFDFDFAA88
:10069000DFDFDFF2AAC5CDC7A90CC92C97979797C2
:1006A000F1A989264666B0B4BA80ACDEF2CAF1B2CE
:1006B0008C02A9B69800890E161EB8A9B4992C54BC
:1006C0007CB08AA896365676F1B9AFB4B083C0B87C
:1006D000A89711B18F98B9AFF0240844106418F1AD
:1006E000A329557DAF83B593AFF0002850F1A386C1
:1006F0009F61A6DADEDFD9FAA38696DB31A6D9F8A8
:10070000DFBAA68FC2C5C7B28CC1B8A2DFDFDFA334
:10071000DFDFDFD8D8F1B8A8B286B4980D355DB860
:10072000AA98B0872D353DB2B6BAAF8C96198F9F77
:10073000A70E161EB49AB8AA872C547CB9A3DEDF84
:10074000DFA3B180F2C4CDC9F1B8A9B499830D3546
:100750005D89B9A32D557DB593A30E161EA92C5402
:100760007CB8B4B0F19783A81184A50998A383F04D
:10077000DA240844106418D8F1A529557DA585957B
:10078000021A2E3A565A4048F9F3A3D9F8F0988342
:100790002408441064189782A8F111F098A2240844
:1007A00044106418DAF3DED883A59401D9A302F1CA
:1007B000A2C3C5C7D8F18492A24DDA2AD84869D914
:1007C0002AD86855DA32D85071D932D8705DDA3A01
:1007D000D85879D93AD87893A34DDA2AD84869D924
:1007E0002AD86855DA32D85071D932D8705DDA3AE1
:1007F000D85879D93AD878A88A9AF02850789EF3B0
:100800008818F19F1D98A8D908D8C89F129EF31583
:10081000A8DA1210D8F1AFC8978734B5B994A421DB
:10082000F3D922D8F22DF3D92AD8F235F3D932D818
:1008300081A4606061D961D86C6869D969D8747025
:1008400071D971D8B1A384193D5DA3831A3E5E931B
:100850001030811011B8B0AF8F94F2DA3ED8B49A4C
:10086000A88729DAF8D8879A35DAF8D8879A3DDA4E
:10087000F8D8B1B9A49885022E56A581000C14A30E
:1008800097B08AF12DD928D84DD948D86DD968D8D4
:10089000B1840DDA0ED8A32983DA2C0ED8A38449AB
:1008A00083DA2C4C0ED8B8B0A88A9AF520AADADFE1
:1008B000D8A840AAD0DADED8A860AADAD0DFD8F16A
:1008C0009786A8319B069907AB9728889BF00C2048
:1008D0001440B8B0B4A88C9CF0042851791D301491
:1008E00038B282ABD0982C505078789BF11AB0F087
:1008F0008A9CA82951798B2951798A2470598B2097
:1009000058718A4469388B3940688A6448318B3021
:100910004960A58820097158446811396449301923
:10092000F1AC002C547CF08CA804285078F1889706
:1009300026A85998AC8C02264666F0899CA82951B5
:1009400079247059446938644831A988092059705C
:10095000AB11384069A8193148608CA83C415C2033
:100960007C00F187981986A86E767EA999882D5506
:100970007D9EB9A38A228A6E8A568A5E9FB18306BB
:100980002646660E2E4E6E9DB8AD002C547CF2B1FC
:100990008CB499B9A32D557D8191AC38AD3AB5830E
:1009A00091AC2DD928D84DD948D86DD968D88C9D0F
:1009B000AE29D904AED851D904AED879D904D8819A
:1009C000F39DAD008DAE1981ADD901D8F2AEDA2616
:1009D000D88E912983A7D9ADADADADF32AD8D8F182
:1009E000B0AC89913E5E76F3AC2E2EF1B18C5A9C60
:1009F000AC2C2828289CAC3018A8988128343C9727
:100A000024A728343C9C24F2B089AC912C4C6C8AED
:100A10009B2DD9D8D851D9D8D879D9D8D8F19E8892
:100A2000A331DAD8D8912DD928D84DD948D86DD945
:100A300068D8B18393353D8025DAD8D88569DAD86E
:100A4000D8B49381A328343CF3AB8BF8A391B609B7
:100A5000B4D9ABDEFAB0879CB9A3DDF1A3A3A3A3FD
:100A600095F1A3A3A39DF1A3A3A3A3F2A3B49080A4
:100A7000F2A3A3A3A3A3A3A3A3A3A3B2A3A3A3A3E8
:100A8000A3A3B087B599F1A3A3A398F1A3A3A3A3AC
:100A900097A3A3A3A3F39BA3A3DCB9A7F1262626C0
:100AA000D8D8FF004F0E981DB51F9324C71D1124E1
:100AB0001FBECFEFD8E0DEBFCDBF13E0A0E0B1E0B6
:100AC000ECE6F7E702C005900D92AA33B107D9F71B
:100AD00025E0AAE3B3E001C01D92A932B207E1F715
:100AE00015E0C6E5D5E004C02197FE010E9423343D
:100AF000C235D107C9F70E943B210C94A93B0C9445
:100B0000000020E131E0FC01318320830895089545
:100B1000FC018CE291E09183808382819381268124
:100B200037812817390711F00C94FF360895CF93B9
:100B3000DF93EC01CE010E946736009761F4E091EB
:100B40003A03F0913B03309721F480E090E00E945B
:100B5000A93B0995EFCFDF91CF9108958F929F9296
:100B6000AF92BF92CF92DF92EF92FF920F931F93BB
:100B7000CF93DF93EC014B016417750709F458C05C
:100B80008A819B81E881F9817C01EE1AFF0A6A0162
:100B9000C61AD70AB6016E0D7F1D2C813D812E1B12
:100BA0003F0B215031092617370708F052C02FEFAD
:100BB000E21AF20AC601A4E1CA16D10410F484E1D3
:100BC00090E0E80EF91EE114F10409F43FC0C701FA
:100BD0000E9497055C01688179810A811B81061B4F
:100BE000170BA801C5010E9490380A0D1B1DA60114
:100BF000B401C8010E9490380C0D1D1DB80181E0A0
:100C000090E00E942A1EFC011082D8011C9288816B
:100C100099812C813D812817390711F00E94FF36F8
:100C2000B982A8821B830A83EA0CFB1CFD82EC823A
:100C3000CE01DF91CF911F910F91FF90EF90DF9048
:100C4000CF90BF90AF909F908F900895A12CB12C22
:100C5000C2CFB4016F5F7F4F461B570B01960E94B6
:100C600090380A811B810C0D1D1DB80181E090E0B8
:100C70000E942A1EFC011082D8011C92EA81FB818D
:100C8000D4018C9180830A811B810C0D1D1D1B8357
:100C90000A83CECFAF92BF92CF92DF92EF92FF92B4
:100CA0000F931F93CF93DF93EC016C0182E0C80E8A
:100CB000D11CC616D70641F1FB01A280B38000818A
:100CC00011818A819B814C815D81481B590B750183
:100CD000E01AF10A4E155F0510F1A701B8010E9454
:100CE0008738EC81FD81AA81BB81AE0DBF1DEA175B
:100CF000FB0751F080818C93EA1BFB0B8C819D815B
:100D00008E1B9F0B9D838C83DF91CF911F910F9141
:100D1000FF90EF90DF90CF90BF90AF900895B80113
:100D20000E9487386C817D818A819B81681B790B49
:100D3000600F711F20E0A501C6010E94AE05E4CF3F
:100D4000CF92DF92EF92FF920F931F93CF93DF9397
:100D50008C016B017A01E61AF70AE7012196CF3F71
:100D60008FEFD80771F0209751F1CE010E949705BF
:100D7000F80191838083938382838C0F9D1F9583D9
:100D80008483F801C081D181A701B601CE010E9400
:100D90009038CE0DDF1DF801D383C283BE0181E000
:100DA00090E00E942A1EFC0110821882DF91CF91F0
:100DB0001F910F91FF90EF90DF90CF90089580E00A
:100DC00090E0D6CFFC018CE291E091838083138286
:100DD00012821582148217821682DB0112964D91BF
:100DE0005C9113976D917C91CF0102960C94A006B3
:100DF000CF93DF93EC01198218821B821A821D8225
:100E00001C8247E251E066E171E00E94A006CE013B
:100E1000DF91CF910895CF93DF93EC01198218826F
:100E20001B821A821D821C82FB01448155816281D2
:100E300073810E94A006CE01DF91CF91089520E535
:100E400031E0FC01318320830C948705CF93DF933D
:100E5000EC010E941F07CE01DF91CF910C944C2131
:100E6000EF92FF920F931F93CF93DF93CDB7DEB72F
:100E7000C055D1090FB6F894DEBF0FBECDBF6B963B
:100E8000EEACFFAC6B979E01235A3F4F6D964EAD73
:100E90005FAD6D9760E570E0CE0101960E94CC38A1
:100EA0008E010F5F1F4FD8018C918823B9F08A30D3
:100EB00049F4D701ED91FC910190F081E02D6DE0B6
:100EC000C7010995D701ED91FC910190F081E02DCA
:100ED000D8016D918D01C7010995E5CFC05BDF4F4A
:100EE0000FB6F894DEBF0FBECDBFDF91CF911F913B
:100EF0000F91FF90EF9008954F925F926F927F92C3
:100F00008F929F92AF92BF92CF92DF92EF92FF9219
:100F10000F931F93CF93DF93CDB7DEB7C45DD10995
:100F20000FB6F894DEBF0FBECDBF8C01FC01648DFF
:100F3000758D072E000C880B990B0E9445352AE011
:100F400037ED43E25CE30E94FA3520E030E043E015
:100F500053E40E949B34F80122A133A144A155A17E
:100F60000E942A342B013C01F80162A373A384A3DD
:100F700095A3668D778D072E000C880B990B0E9428
:100F800045352AE037ED43E25CE30E94FA3520E084
:100F900030E043E053E40E949B34F80126A137A1DE
:100FA00040A551A50E942A344B015C01F80166A3BB
:100FB00077A380A791A760A171A1072E000C880BD1
:100FC000990B0E9445352AE037ED43E25CE30E942D
:100FD000FA3520E030E043E053E40E949B34F8010E
:100FE00022A533A544A555A50E942A346B017C0196
:100FF000F80162A773A784A795A762857385072E5A
:10100000000C880B990B0E9445352AE037ED43E22E
:101010005CE30E94FA3520E030E043E053E40E94B4
:101020009B34C753DF4F688379838A839B83C95C72
:10103000D040F80160897189072E000C880B990B4C
:101040000E9445359B01AC01C753DF4F6881798110
:101050008A819B81C95CD0400E942A340E940D3550
:10106000C753DF4F688379838A839B83C95CD040F1
:10107000C753DF4F48815981C95CD040F801518B7B
:10108000408B64857585072E000C880B990B0E9498
:1010900045352AE037ED43E25CE30E94FA3520E073
:1010A00030E043E053E40E949B34C353DF4F688336
:1010B00079838A839B83CD5CD040F80162897389F0
:1010C000072E000C880B990B0E9445359B01AC0143
:1010D000C353DF4F688179818A819B81CD5CD04089
:1010E0000E942A340E940D35C353DF4F68837983F1
:1010F0008A839B83CD5CD040C353DF4F48815981A5
:10110000CD5CD040F801538B428B66857785072EE6
:10111000000C880B990B0E9445352AE037ED43E21D
:101120005CE30E94FA3520E030E043E053E40E94A3
:101130009B34CF52DF4F688379838A839B83C15D61
:10114000D040F80164897589072E000C880B990B33
:101150000E9445359B01AC01CF52DF4F68817981F8
:101160008A819B81C15DD0400E942A340E940D3546
:10117000F801758B648B26893789C753DF4F488107
:101180005981C95CD040240F351F378B268B208DA9
:10119000318DC353DF4FE881F981CD5CD0402E0FF4
:1011A0003F1FF801318F208F228D338DC901860FAB
:1011B000971F938F828F20E030E0A901C301B20115
:1011C0000E94963487FF0DC020E030E044EB53E4EA
:1011D000C301B2010E942A34F80162A373A384A35D
:1011E00095A3F80142A053A064A075A020E030E0D0
:1011F00044EB53E4C301B2010E94F53518166CF4B8
:1012000020E030E044EB53E4C301B2010E942934F2
:10121000F80162A373A384A395A320E030E0A901A1
:10122000C501B4010E94963487FF0DC020E030E074
:1012300044EB53E4C501B4010E942A34F80166A3CB
:1012400077A380A791A7F80186A097A0A0A4B1A436
:1012500020E030E044EB53E4C501B4010E94F535D1
:1012600018166CF420E030E044EB53E4C501B401FF
:101270000E942934F80166A377A380A791A720E0F4
:1012800030E0A901C701B6010E94963487FF0DC066
:1012900020E030E044EB53E4C701B6010E942A3459
:1012A000F80162A773A784A795A7F801C2A4D3A4E5
:1012B000E4A4F5A420E030E044EB53E4C701B60118
:1012C0000E94F53518166CF420E030E044EB53E44E
:1012D000C701B6010E942934F80162A773A784A749
:1012E00095A7F80162A573A584A595A50E940D3563
:1012F0007F936F93F80166A177A180A591A50E94C5
:101300000D357F936F93F80162A173A184A195A11C
:101310000E940D357F936F9388E391E09F938F93A5
:101320008E010F5F1F4F1F930F930E94AA381F93C8
:101330000F938FEB93E09F938F930E9430070FB62C
:10134000F894DEBF0FBECDBF81E0CC52DF4F0FB6A9
:10135000F894DEBF0FBECDBFDF91CF911F910F91EB
:10136000FF90EF90DF90CF90BF90AF909F908F90C5
:101370007F906F905F904F900895CF93DF93EC0133
:101380000E94810580E591E099838883DF91CF9168
:10139000089581E080933C03089523E731E0FC0148
:1013A000318320830C948805CF93DF93EC010E9456
:1013B000CD09CE01DF91CF910C944C21CF93DF93D7
:1013C000FC01A081B1818C91811112C01196CD9147
:1013D000DC91129789819A81A817B90749F415966B
:1013E0008D919C91169791838083DF91CF91089581
:1013F0001396CD91DC911497209789F411960D9056
:10140000BC91A02D2081318113968D919C911497D0
:10141000B183A0832817390789F3E7CFEC018D81C9
:101420009E810097D9F7D183C083DFCFCF93DF931D
:10143000FC01A581B6811396CD91DC911497D683DA
:10144000C583209711F09A838983818192811296B6
:101450009C938E931197EB0188819981E817F90786
:1014600059F4B983A8831496FC93EE931397B2832F
:10147000A183DF91CF910895C181D2818B819C811D
:10148000E817F90719F4BC83AB83EDCFBE83AD83B6
:10149000EACFCF93DF93FC01A381B4811596CD9160
:1014A000DC911697D483C383209711F09A838983A4
:1014B0008181928112969C938E931197EB01888182
:1014C0009981E817F90759F4B983A8831696FC9314
:1014D000EE931597B283A183DF91CF910895C181D7
:1014E000D2818D819E81E817F90719F4BE83AD83FF
:1014F000EDCFBC83AB83EACFCF92DF92FF920F9305
:101500001F93CF93DF93EC016B011882FF24F394B8
:10151000D601ED91FC91CE17DF0709F44EC0098189
:101520001A81D8018C91811148C01196ED91FC91DE
:101530001297A381B4810A171B0721F5A581B681F3
:10154000109749F08C91811106C0E801F882FC9255
:101550001082EF01DDCFF80185819681C817D90788
:1015600029F4B601C8010E94160AE801E981FA814E
:10157000F08281819281DC011C92B6010E94490AAD
:10158000FE01E7CF109719F08C918823F1F2F80152
:1015900083819481C817D90729F4B601C8010E9434
:1015A000490AE801E981FA81F08281819281DC01B6
:1015B0001C92B6010E94160AE3CF81E08083DF917E
:1015C000CF911F910F91FF90DF90CF900895CF930F
:1015D000DF93EC0166E571E08FEB93E00E946320FE
:1015E00080913C03882309F4A0C02091AB03309183
:1015F000AC038091AD039091AE0340913C03411147
:1016000003C028173907C8F310923C03AD96CE01EA
:101610000E941B278093B003CE010E9476279C0175
:101620009093AC038093AB039091B00394FD03C0FF
:101630002115344059F4CE010E943B2768E670E042
:101640008FEB93E0DF91CF910C94512091FF6DC00F
:101650004091AD035091AE038091AB039091AC03E8
:101660008417950740F4CE010E9476279093AC032F
:101670008093AB03EDCF6BE673E0CE010E94912720
:101680008091AB039091AC032091AD033091AE03F8
:10169000821B930B9093AC038093AB034BE653E018
:1016A0006BE573E0CE010E9411304BE653E065E537
:1016B00073E0CE010E94AC2F4BE553E06DE373E085
:1016C000CE010E940A312DE333E045E553E06FE49B
:1016D00073E0CE010E9480302BE533E04FE453E00D
:1016E00069E473E0CE010E94FD306091490370917E
:1016F0004A034AE050E08FEB93E00E940B21609197
:101700004B0370914C034AE050E08FEB93E00E9452
:101710000B2160914D0370914E034AE050E08FEB36
:1017200093E0DF91CF910C941221DF91CF91089536
:10173000FC0180819181248135812817390711F0BE
:101740000C94FF3608950F931F93CF93DF93FC0102
:10175000DB012D913C911197808191810281138150
:10176000081B190B1296CD91DC911397C21BD30B5A
:10177000A801C017D1070CF4AE01B9010E947A3854
:10178000009729F40C171D075CF020E0922F892F99
:10179000881F8827881FDF91CF911F910F9108958F
:1017A0008FEF9FEFF4CFCF92DF92EF92FF920F93E4
:1017B0001F93CF93DF938C016B017A01E61AF70A2E
:1017C000E7012196CF3F8FEFD80771F0209751F1B5
:1017D000CE010E949705F8019183808393838283D1
:1017E0008C0F9D1F95838483F801C081D181A7014F
:1017F000B601CE010E949038CE0DDF1DF801D383D3
:10180000C283BE0181E090E00E942A1EFC0110828A
:101810001882DF91CF911F910F91FF90EF90DF9091
:10182000CF90089580E090E0D6CFFC011182108225
:101830001382128215821482FB0101900020E9F7C5
:10184000AF01415051090C94D30BEF92FF920F93CB
:101850001F93CF93DF938C018FE090E00E94970558
:101860007C01BC01695F7F4F88E090E00E942A1EE6
:10187000EC01198218821B821A821D821C82F801D7
:1018800042815381608171810E94D30BF80186816E
:1018900097819F838E83C701DF91CF911F910F9115
:1018A000FF90EF900895AF92BF92CF92DF92EF92A8
:1018B000FF920F931F93CF93DF935C016B0179012C
:1018C000DB018D919C912817390709F449C0452BFC
:1018D00009F046C0B901695F7F4FC8010E94A30BA0
:1018E00081113EC0C8010E94250CEC01F7019683CE
:1018F0008583D601ED91FC9185819681E816F906E4
:1019000041F443C083819481E816F90611F4D4832D
:10191000C383FA82E9821C821B821E821D82F60129
:10192000608171816F5F7F4FCE010E947C0AD6017A
:1019300012968D919C911397019613969C938E937A
:101940001297F501D183C083C501DF91CF911F911B
:101950000F91FF90EF90DF90CF90BF90AF900895E0
:10196000C8010E94250CEC01D70114969C938E931C
:101970001397D601ED91FC91EE16FF0619F6F701CB
:10198000D283C183D601ED91FC91D683C583C1CFAB
:101990006F927F928F929F92AF92BF92CF92DF927F
:1019A000EF92FF920F931F93CF93DF9300D000D05D
:1019B000CDB7DEB76C014B018A01FB0160807180FD
:1019C000F301E180F280530181E0E114F10491F030
:1019D000B701695F7F4FC8010E94A30BF7018823FD
:1019E00031F0238194815701E22EF92EEECF25812B
:1019F0009681F9CFBC82AB82882369F1F3018381A0
:101A00009481A816B90619F5950140E050E0B4019B
:101A1000CE0101960E94530C89819A81F60191832F
:101A2000808381E08283C6010F900F900F900F900A
:101A3000DF91CF911F910F91FF90EF90DF90CF90AA
:101A4000BF90AF909F908F907F906F900895CE0140
:101A500003960E94DE09EB80FC80B801C70107965F
:101A60000E94A30B8111D0CFF601F182E082128295
:101A7000DACF8F929F92AF92BF92CF92DF92EF9286
:101A8000FF920F931F93CF93DF9300D000D01F924C
:101A9000CDB7DEB76C017B014A018901DA01AD9057
:101AA000BC90DB01ED91FC91119783819481A81684
:101AB000B906D1F412968D919C911397892B41F020
:101AC000B501695F7F4FC9010E94A30B811157C007
:101AD000A801B701CE0101960E94C80C89819A81A4
:101AE000D6018D939C9314C0AE16BF0621F5F50167
:101AF000A580B680B901C50107960E94A30B882373
:101B000039F3950140E050E0B701C6010E94530C43
:101B1000C6010F900F900F900F900F90DF91CF9113
:101B20001F910F91FF90EF90DF90CF90BF90AF90FB
:101B30009F908F900895BD82AC82CE0104960E9442
:101B4000DE09AC80BD80B801C50107960E94A30BD9
:101B5000882309F4BDCFF40180809180B401695FCE
:101B60007F4FC8010E94A30B882309F4B1CFF50170
:101B700085819681892B29F29401A401C5CF950115
:101B8000A501C2CF8F929F92AF92BF92CF92DF9268
:101B9000EF92FF920F931F93CF93DF93CDB7DEB7F2
:101BA00063970FB6F894DEBF0FBECDBF8C014B011B
:101BB00084E090E00E944A215C01B8010E94BD09C6
:101BC000AE014D5E5F4F6CE571E0CE0109960E945B
:101BD000150CF401C080D180F601E180F28086010D
:101BE000E114F10491F0BE01675F7F4FC7010796D2
:101BF0000E94A30B811105C08701F701E380F480E7
:101C0000EFCFF701E580F680EBCFC016D10619F1D2
:101C1000B801695F7F4FCE0109960E94A30B811125
:101C20001AC0F801B686A586CE0109960E94980BC7
:101C300063960FB6F894DEBF0FBECDBFDF91CF9194
:101C40001F910F91FF90EF90DF90CF90BF90AF90DA
:101C50009F908F9008951A8219821C821B821E8287
:101C60001D824B855C8569857A85CE0101960E942F
:101C7000D30B18861F82188B0F879E012F5F3F4F53
:101C8000AE01415F5F4FB401CE0141960E94390D14
:101C900009891A89CE0101960E94980BC2CFEBE503
:101CA000F3E080E090E0A0E8BFE380839183A2832B
:101CB000B3831482158216821782108611861286CB
:101CC00013861486158616861786E5E5F3E01182DD
:101CD00010821382128215821482EFE4F3E01182E3
:101CE00010821382128215821482E9E4F3E01182D9
:101CF00010821382128215821482EDE3F3E01082C7
:101D00001182128213821482158216821782108623
:101D100011861286138608950F931F93CF93DF9336
:101D2000CDB7DEB727970FB6F894DEBF0FBECDBF95
:101D30008C01AE01495F5F4F63E671E0CE01019611
:101D40000E94150CBE016F5F7F4FC8010E94E20622
:101D5000CE0101960E94980B83E791E0F8019183F0
:101D60008083035D1F4FC8010E94B9266BE671E0B6
:101D70008FEB93E00E94632085E694E00E94F923B4
:101D800088E18093B80065EB71E08FEB93E00E94EF
:101D90005120C8010E94622767E971E08FEB93E050
:101DA0000E945120C8010E94BC2781118EC06FE59E
:101DB00071E08FEB93E00E94512067E271E08FEBBE
:101DC00093E00E9451208FEB93E00E942C1E892B00
:101DD00031F08FEB93E00E94461E892BA1F78FEB29
:101DE00093E00E942C1E892BD1F38FEB93E00E948D
:101DF0002C1E892B31F08FEB93E00E94461E892B1D
:101E0000A1F763E171E08FEB93E00E945120C801DC
:101E10000E940E2D8093AF0360EE77EFC8010E9401
:101E200057286FE975E0C8010E945D2866E873E0F5
:101E3000C8010E9463286EE170E0C8010E94692811
:101E40006EEF7FEFC8010E946F2864EF7FEFC8013B
:101E50000E9475288091AF0381113AC063E071E060
:101E60008FEB93E00E94512061E0C8010E947B2823
:101E700064EC70E08FEB93E00E94512043E050E06F
:101E800069EC79E080E00E944F21C8010E941B2785
:101E90008093B0036AE970E08FEB93E00E945120D9
:101EA00081E08093B103C8010E94D6319093AE03C4
:101EB0008093AD0327960FB6F894DEBF0FBECDBF5B
:101EC000DF91CF911F910F91089569E771E071CF74
:101ED00069E770E08FEB93E00E9420204AE050E039
:101EE0006091AF038FEB93E00E94312167E770E0D0
:101EF0008FEB93E00E945120DDCF20E931E0FC011F
:101F0000318320830C948705CF93DF93EC010E94EB
:101F10007D0FCE01DF91CF910C944C216FE771E0E2
:101F20008FEB93E00E94442081E00895CF93DF93EC
:101F3000EC010E94810580E991E099838883DF911B
:101F4000CF91089524EA31E0FC01318320830C9481
:101F50008805CF93DF93EC010E94A20FCE01DF91A1
:101F6000CF910C944C21CF92DF92EF92FF920F937E
:101F70001F93CF93DF938C016B017A01E61AF70A66
:101F8000E7012196CF3F8FEFD80771F0209751F1ED
:101F9000CE010E949705F801918380839383828309
:101FA0008C0F9D1F95838483F801C081D181A70187
:101FB000B601CE010E949038CE0DDF1DF801D3830B
:101FC000C283BE0181E090E00E942A1EFC011082C3
:101FD0001882DF91CF911F910F91FF90EF90DF90CA
:101FE000CF90089580E090E0D6CF0F931F93CF93CA
:101FF000DF93CDB7DEB727970FB6F894DEBF0FBEDD
:10200000CDBF8C01AE01495F5F4F66E971E0CE0143
:1020100001960E94150CBE016F5F7F4FC8010E94A0
:10202000E206CE0101960E94980B84EA91E0F80145
:102030009183808327960FB6F894DEBF0FBECDBF85
:10204000DF91CF911F910F9108958F929F92AF9240
:10205000BF92CF92DF92EF92FF920F931F93CF9395
:10206000DF93CDB7DEB763970FB6F894DEBF0FBE30
:10207000CDBF8C014B0184E090E00E944A215C01BD
:10208000B8010E94960FAE014D5E5F4F6BE971E0A3
:10209000CE0109960E94150CF401C080D180F60192
:1020A000E180F2808601E114F10491F0BE01675FE6
:1020B0007F4FC70107960E94A30B811105C08701BE
:1020C000F701E380F480EFCFF701E580F680EBCFF6
:1020D000C016D10619F1B801695F7F4FCE0109968C
:1020E0000E94A30B81111AC0F801B686A586CE0105
:1020F00009960E94980B63960FB6F894DEBF0FBE48
:10210000CDBFDF91CF911F910F91FF90EF90DF90A6
:10211000CF90BF90AF909F908F9008951A821982B0
:102120001C821B821E821D824B855C8569857A8597
:10213000CE0101960E94B30F18861F82188B0F875D
:102140009E012F5F3F4FAE01415F5F4FB401CE0153
:1021500041960E94390D09891A89CE0101960E9483
:10216000980BC2CF2EE032E0FC01318320830C9427
:102170008805CF93DF93EC010E94B210CE01DF916E
:10218000CF910C944C21CF92DF92EF92FF920F935C
:102190001F93CF93DF938C016B017A01E61AF70A44
:1021A000E7012196CF3F8FEFD80771F0209751F1CB
:1021B000CE010E949705F8019183808393838283E7
:1021C0008C0F9D1F95838483F801C081D181A70165
:1021D000B601CE010E949038CE0DDF1DF801D383E9
:1021E000C283BE0181E090E00E942A1EFC011082A1
:1021F0001882DF91CF911F910F91FF90EF90DF90A8
:10220000CF90089580E090E0D6CFFC01118210823B
:102210001382128215821482FB0101900020E9F7DB
:10222000AF01415051090C94C3100F931F93CF93EA
:10223000DF9300D000D000D0CDB7DEB78C0160EBCB
:1022400071E0CE0101960E940511BE016F5F7F4FC4
:10225000C8010E94E206CE0101960E94980B8EE012
:1022600092E0F8019183808326960FB6F894DEBF42
:102270000FBECDBFDF91CF911F910F9108958F9227
:102280009F92AF92BF92CF92DF92EF92FF920F9305
:102290001F93CF93DF93CDB7DEB72C970FB6F8948B
:1022A000DEBF0FBECDBF4C016B01FC01A080B18031
:1022B000F501E180F2808501E114F10481F0B601BD
:1022C000C70107960E94A30B811105C08701F70182
:1022D000E380F480F1CFF701E580F680EDCFA01622
:1022E000B106E9F0B801695F7F4FC6010E94A30BF8
:1022F000811115C0C8010D962C960FB6F894DEBF5B
:102300000FBECDBFDF91CF911F910F91FF90EF9046
:10231000DF90CF90BF90AF909F908F9008951A82DA
:1023200019821C821B821E821D82F601428153810A
:1023300060817181CE0101960E94C31018861F82B0
:102340001A8709879E012F5F3F4FAE01475F5F4F9E
:10235000B401CE010B960E94390D0B851C85CE0170
:1023600001960E94980BC6CFCF92DF92EF92FF9218
:102370000F931F93CF93DF9300D000D000D0CDB741
:10238000DEB76C018B0184E090E00E944A217C0161
:10239000B6010E94E01364EB71E0CE0101960E9449
:1023A0000511BE016F5F7F4FC8010E943F11FC0104
:1023B000F182E082CE0101960E94980B6CEB71E0F5
:1023C000CE0101960E940511BE016F5F7F4FC801CB
:1023D0000E943F11FC01F182E082CE0101960E9431
:1023E000980B61EC71E0CE0101960E940511BE01CF
:1023F0006F5F7F4FC8010E943F11FC01F182E082B4
:10240000CE0101960E94980B67EC71E0CE01019617
:102410000E940511BE016F5F7F4FC8010E943F11EE
:10242000FC01F182E082CE0101960E94980B84E0CB
:1024300090E00E944A217C01B6010E94D91A60ED09
:1024400071E0CE0101960E940511BE016F5F7F4FC2
:10245000C8010E943F11FC01F182E082CE01019689
:102460000E94980B68ED71E0CE0101960E94051163
:10247000BE016F5F7F4FC8010E943F11FC01F182D6
:10248000E082CE0101960E94980B6DED71E0CE01C5
:1024900001960E940511BE016F5F7F4FC8010E9427
:1024A0003F11FC01F182E082CE0101960E94980B5F
:1024B00063EE71E0CE0101960E940511BE016F5FCF
:1024C0007F4FC8010E943F11FC01F182E082CE01E2
:1024D00001960E94980B84E090E00E944A217C01C2
:1024E000B6010E94E71B6CEE71E0CE0101960E94DE
:1024F0000511BE016F5F7F4FC8010E943F11FC01B3
:10250000F182E082CE0101960E94980B65EF71E0A6
:10251000CE0101960E940511BE016F5F7F4FC80179
:102520000E943F11FC01F182E082CE0101960E94DF
:10253000980B6FEF71E0CE0101960E940511BE016C
:102540006F5F7F4FC8010E943F11FC01F182E08262
:10255000CE0101960E94980B64E072E0CE010196D4
:102560000E940511BE016F5F7F4FC8010E943F119D
:10257000FC01F182E082CE0101960E94980B269622
:102580000FB6F894DEBF0FBECDBFDF91CF911F9184
:102590000F91FF90EF90DF90CF90089508952FE571
:1025A00032E0FC013183208329E632E03783268341
:1025B0000895DC01ED91FC9136970190F081E02DBA
:1025C000E80FF91F8FE592E09183808389E692E01E
:1025D00097838683089508950895242FDC01ED9153
:1025E000FC910084F185E02D41E0099480E090E0C9
:1025F0000895FC012289338980899189281B390B30
:1026000086899789A901481B590BCA010895EF9241
:10261000FF920F931F93CF93DF93FC01DB0160E0E8
:1026200070E0CB0106891789E088F188C289D389D7
:10263000CE19DF090C171D07A0F462177307840772
:1026400095077CF4E701C00FD11FC881CD936F5F60
:102650007F4F8F4F9F4FC689D7892196D78BC68BC7
:10266000E1CFDF91CF911F910F91FF90EF900895EF
:10267000FC01468957892089318982899389821B87
:10268000930B4817590730F4240F351FF901808147
:1026900090E008958FEF9FEF0895CF93DF93EC01C3
:1026A000E881F9810288F389E02D09958F3F2FEFAA
:1026B000920731F02E893F892F5F3F4F3F8B2E8B42
:1026C000DF91CF910895FC0186899789009759F091
:1026D000A089B189228933892A1B3B0B2817390726
:1026E00028F4378B268B6FEF7FEF09C001976F3F80
:1026F0002FEF720731F4978B868B60E070E0CB018F
:102700000895A80FB91F2C91261303C0978B868BB1
:10271000F6CF278524FFE7CF978B868B6C93EFCF7F
:1027200021EC32E0FC01318320830C948705CF93A8
:10273000DF93EC010E949013CE01DF91CF910C94B6
:102740004C210C944C212FE532E0FC013183208395
:1027500029E632E0378326830C944C21DC01ED918D
:10276000FC91369720813181820F931F0C94A31323
:10277000EF92FF920F931F93CF93DF937C018B0116
:10278000EA0164177507A1F0FC01408151814C1BDF
:102790005D0B4F5F5F4FBE01C8010E949038C01BA8
:1027A000D10BF701808191818C1B9D0B91838083DC
:1027B000C801DF91CF911F910F91FF90EF90089585
:1027C000CF93DF93EC010E94810581EC92E0998325
:1027D0008883DF91CF910895FC0101900020E9F7F3
:1027E0003197E81BF90BDB012D913C911197129663
:1027F0004D915C911397421B530B4E175F0731F4B9
:10280000B9010E947A3821E0892B09F020E0822F5B
:102810000895DB012D913C91FC01318320832650EA
:102820003109D901ED91FC91E80FF91FDB011296F6
:102830002D913C91139731832083DC0112961D92D8
:102840001D921D921C92159781E290E094838383E0
:10285000548B438B1582158A0895FC0181E290E028
:102860009287818713861486158686E090E0A0E023
:10287000B0E086879787A08BB18B128A138A148A5F
:10288000158A80E2868B108E178A728F618F138E65
:102890008FE592E09183808389E692E09783868337
:1028A0001282138214821582089561157105C9F48C
:1028B000FA0120813181FC0131832083611571058A
:1028C00099F426503109F90120813181820F931F3B
:1028D000672B69F4FA0122813381FC013183208363
:1028E00008952FE532E0E7CF26E030E0EFCF29E68C
:1028F00032E0F3CFAB0160E070E00C94551421E7B7
:1029000032E0FC013183208340960C94980BEF92C7
:10291000FF920F931F93CF93DF938C017B01EA010A
:10292000672B41F588819981F80191838083E114B7
:10293000F10419F50697FC0180819181800F911FA8
:10294000E114F104E9F42E813F81FC0131832083FD
:10295000C80106960E947F14EF28A9F4BE016E5F9D
:102960007F4FC801DF91CF911F910F91FF90EF90A2
:102970000C947A148FEA92E0D7CF80E290E0DECF19
:1029800029EB32E0E2CF63EA72E0EBCFAB0160E02B
:1029900070E00C94871440E050E062E070E00C942A
:1029A0008714DC01ED91FC91369720813181820FF3
:1029B000931F0C94CB14CF93DF93EC010E94CB14A4
:1029C000CE01DF91CF910C944C21DC01ED91FC9173
:1029D000369720813181820F931F0C94DB14CF93A3
:1029E000DF93EC010E947F14CE01DF91CF910C9414
:1029F0004C21DC0113968D919C911497892B59F0F1
:102A00001596ED91FC91169717968D919C911897BC
:102A1000E817F90741F4ED91FC9111970488F589C5
:102A2000E02DCD01099481911696FC93EE931597B4
:102A300090E00895FC018581682B83899489892B16
:102A400011F0658308956160FCCFCF93DF93EC01B3
:102A5000E881F98136970190F081E02DEC0FFD1FA0
:102A6000A389B48913968D919C911497892B59F061
:102A70001596ED91FC91169717968D919C9118974C
:102A8000E817F90799F4ED91FC9111970288F38901
:102A9000E02DCD0109958F3F2FEF920751F00E9455
:102AA0007138892B91F4DF91CF910895808190E066
:102AB000F6CFE881F98136978081918162E08C0FB1
:102AC0009D1FDF91CF910C941A15E881F9813697FB
:102AD0000190F081E02DEC0FFD1F838994890E9405
:102AE000F914B6CFBC0181E090E00E942A1EFC01DF
:102AF000108208950F931F93CF93DF93EC011982F7
:102B000018821B821A821D821C8288E090E00E943B
:102B100097058C01998388839B838A8308969D837C
:102B20008C83C8010E947215F8011082DF91CF9149
:102B30001F910F9108950F931F93CF93DF938A01F5
:102B4000EB01C81BD90BAE01BC01C8010E94903833
:102B5000C8018C0F9D1FDF91CF911F910F91089598
:102B6000CF92DF92EF92FF920F931F93CF93DF9359
:102B70008C01FC01C281D38180819181C81BD90B5A
:102B8000C617D70708F4EB01219631F1CE010E9458
:102B900097057C01F80162817381A7018081918191
:102BA0000E949B156C010E947215F6011082C801EB
:102BB0000E94980BF801F182E082D382C282CE0D8E
:102BC000DF1DD583C483DF91CF911F910F91FF90BB
:102BD000EF90DF90CF900895E12CF12CDBCFFF92A6
:102BE0000F931F93CF93DF93EC01F62E6A817B81C5
:102BF000CB0101962C813D812817390761F488812A
:102C00009981681B790BE9F481E090E0680F791FE6
:102C1000CE010E94B0150A811B81C80101960E9455
:102C20007215F8011182EA81FB81F0828A819B8111
:102C300001969B838A83DF91CF911F910F91FF9023
:102C40000895CB01E3CF0F931F93CF93DF93EC0154
:102C50008B016F3F8FEF780711F18F8584FF22C0C2
:102C6000488D598D888999892A893B89281B390B78
:102C70004217530778F0CE0140960E94EF15888DD9
:102C8000998D0196998F888FC801DF91CF911F91FF
:102C90000F910895840F951FFC016083F0CF00E031
:102CA00010E0F2CF0FEF1FEFEFCF9F92AF92BF92E6
:102CB000CF92DF92EF92FF920F931F93CF93DF9308
:102CC000EC018B01E881F98136970190F081E02DCC
:102CD000E80FF91FE188F288E114F104F9F0D70157
:102CE000ED91FC9136970190F081E02DEE0DFF1DE6
:102CF00083899489DC01ED91FC910484F585E02DB4
:102D00000995019659F4D701ED91FC913697808190
:102D1000918161E08E0D9F1D0E941A15CE010E94C7
:102D20002515E881F98136970190F081E02DEC0FAF
:102D3000FD1FC388D488D801ED91FC91119712969C
:102D40008D919C911397E817F90741F010828D91AE
:102D50009C91119713969C938E931297E881F98119
:102D600036970190F081E02D3296EC0FFD1F6285C1
:102D700073858485958512861386148615865B0176
:102D800061157105A1F1C8010E94B015C6010E942C
:102D9000F9147C018F3FBFEF9B0769F5E881F9814A
:102DA00036978081918162E08C0F9D1F0E941A15D9
:102DB000F80122813381808191812817390751F4EC
:102DC000E881F98136978081918164E08C0F9D1FA5
:102DD0000E941A15CE01DF91CF911F910F91FF90A4
:102DE000EF90DF90CF90BF90AF909F900895AA246E
:102DF000AA94BA2CCBCF082E000C990B0E947138E4
:102E0000E1E0AE1AB108892BB9F0D60113968D9185
:102E10009C9114970097C9F01596ED91FC91169727
:102E20008E179F0791F08291E8120FC0D601169677
:102E3000FC93EE931597BCCF6E2DC8010E94EF1541
:102E4000A114B10409F0A2CFB3CFB7017727D601FF
:102E5000ED91FC910688F789E02DC6010995019650
:102E600009F0A6CFE881F98136978081918164E0ED
:102E70009BCFCF93DF93EC0188819981009799F0E4
:102E8000DC01ED91FC9136970190F081E02DE80F87
:102E9000F91F2581257041E050E011F040E050E03D
:102EA00021E0452B09F420E028872223D1F0BE0140
:102EB0006E5F7F4F0E945516E881F981A081B18134
:102EC00016978D919C91E80FF91F8581857021E0FF
:102ED00030E011F020E030E081E0232B09F480E0C5
:102EE0008887DF91CF9108950F931F93CF93DF933E
:102EF0008C01822F8870922F90712871283131F4C3
:102F0000423009F049C08FEF9FEF29C0413061F591
:102F1000EB01F80142895389608971899A01261B66
:102F2000370B2C173D0778F3882311F0D78BC68B0E
:102F30009923A1F06C0F7D1FC80142960E94B8131F
:102F4000F8018289938920893189821B930B268914
:102F500037898217930710F4978B868BCE01DF9108
:102F6000CF911F910F9108954230C9F4992389F0B0
:102F7000F801C289D38920893189C21BD30BC60FBE
:102F8000D71F882331F2F801C689D789C60FD71F0A
:102F9000C0CFC0E0D0E0F5CF413009F4B9CFF8019F
:102FA000C289D38920893189C21BD30BEFCFCF923D
:102FB000DF92EF92FF920F931F93CF93DF93EC0179
:102FC000198218821B821A821D821C82FB01C28018
:102FD000D380E080F18086010E191F090F5F1F4F1B
:102FE0000F3FFFEF1F0771F00115110509F1C8012F
:102FF0000E949705998388839B838A83800F911F02
:103000009D838C8348815981B601C7010E949B151D
:103010008C019B838A830E947215F8011082DF91D4
:10302000CF911F910F91FF90EF90DF90CF90089577
:1030300080E090E0DFCF1F93CF93DF93EC01142F5C
:103040001C821B821E821D8218861F821A86198688
:103050001C861B861E861D861F8681E792E099834B
:103060008883CE0140960E94D7171F8A1E8A198E28
:10307000188E11FF08C08A899B8928893989821B8B
:10308000930B998F888F1F87DF91CF911F910895A0
:10309000DF92EF92FF920F931F93CF93DF93EC0198
:1030A0007B01D42E8C010A5F1F4F81E290E09CA32C
:1030B0008BA31DA21EA21FA286E090E0A0E0B0E0BC
:1030C00088A799A7AAA7BBA71CA61DA61EA61FA6D0
:1030D00081E592E099A388A380E288AB1AAA19AA95
:1030E0001CAB0BAB1DAAA80163EA72E0CE010E94E3
:1030F00009148FEA92E09983888389EB92E099A37F
:1031000088A34D2DB701C801DF91CF911F910F9179
:10311000FF90EF90DF900C941B18BF92CF92DF923C
:10312000EF92FF920F931F93CF93DF93EC016B010C
:103130007A01B22E8C010A5F1F4F6E5F7F4FA8018C
:103140000E940914F60180819181998388832681E8
:1031500037810697FC0180819181C80FD91F39837F
:1031600028834B2DB701C801DF91CF911F910F919B
:10317000FF90EF90DF90CF90BF900C941B18CF92F0
:10318000DF92EF92FF920F931F93CF93DF93CDB710
:10319000DEB7C755D1090FB6F894DEBF0FBECDBF5D
:1031A00048E0CE0101967C010E9448188E01075B21
:1031B0001F4FF801E192F1928F01BE01695C7F4FD0
:1031C000CF010E947A15CE01875B9F4F0E9439176D
:1031D000CE01805C9F4FFC0111921192CF01BE0184
:1031E000695C7F4F0E947A1529961FAE2997CE0100
:1031F000875B9F4F0E943917B801CE018E5A9F4FAF
:103200000E94D717BE016E5A7F4F81EB91E00E945A
:10321000EC1381111EC0BE016E5A7F4F8AE192E00D
:103220000E94EC13811115C0BE016E5A7F4F81E2DE
:1032300092E00E94EC1381110AC0BE016E5A7F4FCA
:103240008DE192E00E94EC13182F882369F111E0C0
:1032500001C010E0CE01875B9F4F0E94391789E4BF
:10326000C82ED12CCC0EDD1EF2E0CF0ED11C629602
:103270008FAD629729969FAD2997891342C0882305
:1032800059F02B962EAD3FAD2B9722968EAD9FAD6C
:10329000229728173907A9F568E472E08FEB93E0CD
:1032A0000E94442011E006C065E272E08FEB93E0DB
:1032B0000E944420CE018E5A9F4F0E94980B80E4BA
:1032C00090E08C0F9D1F02960E94980B89E490E07D
:1032D0008C0F9D1F02960E94980BC7010E94CB1471
:1032E000812FC95ADF4F0FB6F894DEBF0FBECDBF96
:1032F000DF91CF911F910F91FF90EF90DF90CF90D2
:1033000008952D968EAD9FAD2D970E945338612F55
:103310000E94D6222B968EAD9FAD2B9798AF8FAB88
:10332000B601CE01C9960E94D71762968FAD6297FB
:103330008FAFCE01875B9F4F0E943917CE01C99690
:103340000E94980B94CF4F925F926F927F928F92D0
:103350009F92AF92BF92CF92DF92EF92FF920F9324
:103360001F93CF93DF93EC017B016A015901421750
:10337000530709F497C08901041B150B8A819B81AF
:103380002C813D81281B390B021713070CF056C006
:103390003C01661A770A9C012F5F3F4F4901601676
:1033A00071066CF1801B910BA901B90101960E9475
:1033B0009B158A819B81800F911F9B838A83A30128
:1033C000401B510B4F5F5F4FB701C701800F911F2B
:1033D0000E949038A801B601C701DF91CF911F91DB
:1033E0000F91FF90EF90DF90CF90BF90AF909F90A4
:1033F0008F907F906F905F904F900C94873823014F
:103400003FEF431A530AA401B501C601840D951D6F
:103410000E949B15061917094A815B81400F511FB5
:103420005B834A83B401C7010E949B154A815B817B
:10343000640E751E7B826A82A201CDCF28813981FC
:10344000821B930B01960431110510F404E110E086
:10345000080F191F01151105B1F1C8010E94970548
:103460004C01A401B701888199810E949B15AC0190
:10347000B501C6010E949B156A817B81AC01C70121
:103480000E949B157C010E947215F7011082CE01EB
:103490000E94980B99828882FB82EA82080D191D8E
:1034A0001D830C83DF91CF911F910F91FF90EF90BF
:1034B000DF90CF90BF90AF909F908F907F906F9054
:1034C0005F904F900895812C912CCBCF4F925F92BB
:1034D0006F927F92AF92BF92CF92DF92EF92FF9264
:1034E0000F931F93CF93DF937C016B0129013A0166
:1034F000FC01608D718D00891189C289D389C01B3F
:10350000D10BC61BD70B2C173D0708F4E9015B0153
:10351000AC0EBD1EA00EB11E060F171FC415D5059B
:103520002CF1A201B601C8010E948738B801640DD0
:10353000751DA501C70142960E94B813F701808D41
:10354000918D840D951D918F808FC301B201DF9104
:10355000CF911F910F91FF90EF90DF90CF90BF9090
:10356000AF907F906F905F904F900895AE01B6013D
:10357000C8010E9487389601240D351DA6014C0F05
:103580005D1F00E0B501C70140960E94A319D6CF88
:1035900025ED32E0FC01318320830C948705CF9325
:1035A000DF93EC010E94C81ACE01DF91CF910C94F9
:1035B0004C21CF93DF93EC010E94810585ED92E0D1
:1035C00099838883DF91CF910895AF92BF92CF9274
:1035D000DF92EF92FF920F931F93CF93DF93CDB7BC
:1035E000DEB7CA55D1090FB6F894DEBF0FBECDBF06
:1035F00048E0CE0101966C010E944818FE01EE5A87
:10360000FF4FC192D1927F01BE01695C7F4FCF0114
:103610000E947A15CE018E5A9F4F0E943917CE0113
:10362000875B9F4FFC0111921192CF01BE01695C33
:103630007F4F0E947A1562961FAE629764968EAD98
:103640009FAD649798AF8FABB701CE01C9960E942A
:10365000D7176B968FAD6B978FAFCE018E5A9F4F5A
:103660000E943917CE01C9960E94980B67EC72E050
:103670008FEB93E00E94442064968EAD9FAD6497DB
:103680008E01005C1F4FF801819391938F01B70168
:10369000CF010E94D7176B968FAD6B9729968FAF8E
:1036A000299789ECA82E82E0B82E9FEBE92E93E0B3
:1036B000F92E29968FAD299762969FAD629789134F
:1036C0000EC0882309F441C022962EAD3FAD22974B
:1036D0002B968EAD9FAD2B9728173907B1F1249605
:1036E0008EAD9FAD24970E9453380E9440239F9334
:1036F0008F9324968FAD24978F9323968FAD239726
:103700008F93BF92AF92FF92EF920E943007229662
:103710008EAD9FAD229798AF8FABB801CE01C99601
:103720000E94D71729968FAD29978FAFCE01805C65
:103730009F4F0E943917CE01C9960E94980B0FB671
:10374000F894DEBF0FBECDBFB4CF80E490E08C0F05
:103750009D1F02960E94980B6AE471E08FEB93E044
:103760000E94442089E490E08C0F9D1F02960E94E5
:10377000980B82E590E08C0F9D1F02960E94980B9B
:10378000C6010E94CB1481E0C65ADF4F0FB6F894F1
:10379000DEBF0FBECDBFDF91CF911F910F91FF9084
:1037A000EF90DF90CF90BF90AF90089526E033E088
:1037B000FC01318320830C948705CF93DF93EC01C8
:1037C0000E94D61BCE01DF91CF910C944C21CF9358
:1037D000DF93EC010E94810586E093E09983888362
:1037E000DF91CF910895DC01FB0101900020E9F702
:1037F0003197E61BF70B8D919C91119712964D9185
:103800005C911397481B590B4E175F0729F40E94D0
:103810007A3821E0892B09F020E0822F0895AF92B9
:10382000BF92CF92DF92EF92FF921F93CF93DF93DD
:10383000CDB7DEB7C056D1090FB6F894DEBF0FBEC4
:10384000CDBF48E09E012F5F3F4F5901C9010E9443
:103850004818CE018E5A9F4FFC01A192B1927F0170
:10386000BE01695C7F4FCF010E947A15CE018E5A4E
:103870009F4F0E943917CE01875B9F4FFC01119229
:103880001192CF01BE01695C7F4F0E947A1562964A
:103890001FAE629764968EAD9FAD649798AF8FAB65
:1038A000B701CE01C9960E94D7176B968FAD6B9763
:1038B0008FAFCE018E5A9F4F0E943917CE01C99605
:1038C0000E94980BB701CE01855A9F4F0E94D717CF
:1038D0006BED72E0CE01855A9F4F0E94F31B811160
:1038E00055C06DED72E0CE01855A9F4F0E94F31BCB
:1038F00081114CC060EE72E0CE01855A9F4F0E944C
:10390000F31B811143C065EE72E0CE01855A9F4FD3
:103910000E94F31B81113AC062EE72E0CE01855A1B
:103920009F4F0E94F31B811131C064EF72E0CE0102
:10393000855A9F4F0E94F31B811126C067EE72E0EB
:10394000CE01855A9F4F0E94F31B81111DC06CEE62
:1039500072E0CE01855A9F4F0E94F31B811114C063
:103960006EEE72E0CE01855A9F4F0E94F31B8111CB
:103970000BC062EF72E0CE01855A9F4F0E94F31B8D
:10398000182F882309F457C010E001C011E09E01F0
:103990002E5A3F4FF901819191916F0198AF8FABF2
:1039A000BF01CE01C9960E94D7176B968FAD6B975A
:1039B0008FAFCE018E5A9F4F0E943917CE01C99604
:1039C0000E94980B64968EAD9FAD64979E01205C1B
:1039D0003F4FF901819391937F01B601CF010E947E
:1039E000D7176B968FAD6B9729968FAF299729962E
:1039F0008FAD299762969FAD629789134AC088233D
:103A000059F022962EAD3FAD22972B968EAD9FADED
:103A10002B9728173907E9F580E490E08C0F9D1F5C
:103A200002960E94980B68E472E08FEB93E00E948C
:103A3000442011E006C066EF72E08FEB93E00E9435
:103A40004420CE01855A9F4F0E94980B89E490E054
:103A50008C0F9D1F02960E94980B82E590E08C0FC0
:103A60009D1F02960E94980BC5010E94CB14812FC6
:103A7000C05ADF4F0FB6F894DEBF0FBECDBFDF9147
:103A8000CF911F91FF90EF90DF90CF90BF90AF90BC
:103A9000089524968EAD9FAD24970E945338612FD0
:103AA0000E94122322968EAD9FAD229798AF8FABC6
:103AB000B701CE01C9960E94D71729968FAD2997D5
:103AC0008FAFCE01805C9F4F0E943917CE01C996FF
:103AD0000E94980B8CCF66E571E08FEB93E00E941B
:103AE00063208091BD039091BE030C94E70AEF928E
:103AF000FF920F931F93CF93DF937C01EB012097ED
:103B000081F06D817E81C7010E94771D0B811C8130
:103B1000CE0107960E94980BCE010E94FF36E80165
:103B2000EECFDF91CF911F910F91FF90EF9008950D
:103B30000F931F93CF93DF931F92CDB7DEB708EBA0
:103B400013E0D8011D921C928FE090E00E9497052F
:103B5000F8019183808313821282DC011C921296F9
:103B60001C921E9211970190F081E02DF483E38363
:103B7000F683E583BE016F5F7F4F82EB93E00E9487
:103B80007A150F90DF91CF911F910F91089582EBDD
:103B900093E00E94980B8091BA039091BB03892B0C
:103BA000C1F0E091B803F091B9036181728188EBB3
:103BB00093E00E94771DE091B803F091B903F4837C
:103BC000E38312821182E091B803F091B903F68386
:103BD000E5838091B8039091B9030C94FF36CF939D
:103BE000DF9326E040E855E260E070E08FEB93E081
:103BF0000E94F21E6CE073E08FEB93E00E94632062
:103C000088E090E00E944A21EC010E94F50F68EBE9
:103C100073E0CE010E94251088E090E00E944A21C6
:103C2000EC010E94151168EB73E0CE010E94B41103
:103C300080E490E00E944A21EC010E948C0ED09317
:103C4000BE03C093BD0368EB73E0CE01DF91CF915B
:103C50000C94C20DCB010895FC01918D228D892F0A
:103C600090E0805C9F4F821B91098F739927089584
:103C7000FC01918D828D981731F0828DE80FF11D36
:103C8000858D90E008958FEF9FEF0895FC01918D51
:103C9000828D981761F0828DDF01A80FB11D5D96AE
:103CA0008C91928D9F5F9F73928F90E008958FEF1C
:103CB0009FEF08958BEA9FE1892B49F080E090E027
:103CC000892B29F00E94AB1F81110C9400000895EC
:103CD000FC01848DDF01A80FB11DA35ABF4F2C91A9
:103CE000848D90E001968F739927848FA689B78978
:103CF0002C93A089B1898C9180648C93938D848D51
:103D0000981306C00288F389E02D80818F7D80831F
:103D10000895CF93DF93EC01888D882351F0EA89D1
:103D2000FB89808185FD08C0A889B9898C9186FFAF
:103D300003C0DF91CF9108950FB607FCF2CF8081C9
:103D400085FFEFCFA889B9898C9185FFEACFCE0195
:103D50000E94681EE4CFEF92FF920F931F93CF93C0
:103D6000DF93EC01F62E81E0888F9B8D8C8D98136C
:103D700005C0E889F989808185FD2CC00B8D10E094
:103D80000F5F1F4F0F731127E02E8C8DE8120CC0B0
:103D90000FB607FCFACFE889F989808185FFF5CF56
:103DA000CE010E94681EF1CF8B8DFE01E80FF11D40
:103DB000E35AFF4FF0820B8FEA89FB898081806292
:103DC000808381E090E0DF91CF911F910F91FF9070
:103DD000EF900895EE89FF896083E889F9898081F1
:103DE0008064EECFCF92DF92EF92FF921F93CF933A
:103DF000DF93EC016A017B01122FE889F98982E0E7
:103E000080834115514E61057105A1F060E079E0B4
:103E10008DE390E0A70196010E9401342150310901
:103E2000410951095695479537952795211580E108
:103E3000380798F0E889F989108260E874E88EE123
:103E400090E0A70196010E940134215031094109F7
:103E500051095695479537952795EC85FD85308313
:103E6000EE85FF852083188EEC89FD891083EA8911
:103E7000FB89808180618083EA89FB8980818860F9
:103E80008083EA89FB89808180688083EA89FB8955
:103E900080818F7D8083DF91CF911F91FF90EF9084
:103EA000DF90CF9008951F920F920FB60F921124BA
:103EB0002F938F939F93EF93FF93E091CF03F09114
:103EC000D0038081E091D503F091D60382FD1BC021
:103ED00090818091D8038F5F8F732091D9038217CF
:103EE00041F0E091D803F0E0E154FC4F958F8093CE
:103EF000D803FF91EF919F918F912F910F900FBE5B
:103F00000F901F9018958081F4CF1F920F920FB6DB
:103F10000F9211242F933F934F935F936F937F934F
:103F20008F939F93AF93BF93EF93FF938FEB93E0A8
:103F30000E94681EFF91EF91BF91AF919F918F9169
:103F40007F916F915F914F913F912F910F900FBE95
:103F50000F901F9018958FEB93E00E942C1E21E08C
:103F6000892B09F420E0822F0895EFEBF3E0138210
:103F7000128288EE93E0A0E0B0E084839583A6836C
:103F8000B7838BE193E09183808385EC90E0958704
:103F9000848784EC90E09787868780EC90E0918B13
:103FA000808B81EC90E0938B828B82EC90E0958B00
:103FB000848B86EC90E0978B868B118E128E138EFD
:103FC000148E0895CF92DF92EF92FF920F931F937A
:103FD000CF93DF937C016A018B01C0E0D0E0CC1568
:103FE000DD0579F0D8016D918D01D701ED91FC913E
:103FF0000190F081E02DC7010995892B11F02196E0
:10400000EECFCE01DF91CF911F910F91FF90EF90F6
:10401000DF90CF9008956115710579F0FB01019053
:104020000020E9F73197AF01461B570BDC01ED91FA
:10403000FC910280F381E02D099480E090E00895E6
:10404000EF92FF920F931F93CF93DF938C017B012D
:10405000C0E0D0E0F701EC0FFD1F6491662361F032
:10406000D801ED91FC910190F081E02DC8010995F6
:10407000892B11F02196EECFCE01DF91CF911F91C8
:104080000F91FF90EF9008950C940B20DC01ED91BF
:10409000FC910190F081E02D099467E273E00C94AB
:1040A0000B200F931F93CF93DF93EC010E942020EE
:1040B0008C01CE010E944D20800F911FDF91CF9186
:1040C0001F910F9108950F931F93CF93DF93EC01EE
:1040D0000E940B208C01CE010E944D20800F911F69
:1040E000DF91CF911F910F9108958F929F92AF9280
:1040F000BF92EF92FF920F931F93CF93DF93CDB7B1
:10410000DEB7A1970FB6F894DEBF0FBECDBF7C011E
:10411000FA01CB0119A2422F50E0423051050CF4B4
:104120002AE08E010F5D1F4F822E912CA12CB12C05
:10413000BF01A50194010E940134F901CA01015097
:1041400011096A30E4F4605DD8016C93232B242BB1
:10415000252B71F7B801C7010E940B20A1960FB65D
:10416000F894DEBF0FBECDBFDF91CF911F910F91AD
:10417000FF90EF90BF90AF909F908F900895695CF3
:10418000E3CFCF92DF92EF92FF920F931F93CF93E3
:10419000DF93EC016A017B012115310579F4E88197
:1041A000F9810190F081E02D642FDF91CF911F9173
:1041B0000F91FF90EF90DF90CF9009942A30310556
:1041C000E9F477FF1AC06DE20E9446208C01442773
:1041D0005527BA014C195D096E097F092AE0CE0105
:1041E0000E947520800F911FDF91CF911F910F9139
:1041F000FF90EF90DF90CF9008952AE0B701A601DD
:10420000CE01DF91CF911F910F91FF90EF90DF9042
:10421000CF900C9475209A01AB01770F660B770B4A
:104220000C94C1200F931F93CF93DF93EC010E9456
:104230000B218C01CE010E944D20800F911FDF9138
:10424000CF911F910F9108952115310541F4DC01A3
:10425000ED91FC910190F081E02D642F09940C9474
:1042600075209A01462F50E060E070E00C94242104
:104270000E944E3808950E9472220E943A210E94A4
:10428000EF1DCAE5DEE10E946B1D2097E1F30E945D
:104290005A1EF9CF0C9467360C94FF36089582307D
:1042A000E8F4E82FF0E0EE0FFF1FEA5FFE4F7183A6
:1042B0006083813041F0809169008C7F482B40936E
:1042C0006900E89A089580916900837F440F551F23
:1042D000440F551F482B40936900E99A08951F9297
:1042E0000F920FB60F9211242F933F934F935F932A
:1042F0006F937F938F939F93AF93BF93EF93FF93AE
:10430000E0910601F09107010995FF91EF91BF91AE
:10431000AF919F918F917F916F915F914F913F915D
:104320002F910F900FBE0F901F9018951F920F9214
:104330000FB60F9211242F933F934F935F936F9378
:104340007F938F939F93AF93BF93EF93FF93E091EE
:104350000801F09109010995FF91EF91BF91AF918B
:104360009F918F917F916F915F914F913F912F918D
:104370000F900FBE0F901F9018951F920F920FB6BF
:104380000F9211242F933F938F939F93AF93BF93DB
:1043900080915D0490915E04A0915F04B0916004EF
:1043A00030915C0423E0230F2D3758F50196A11DB1
:1043B000B11D20935C0480935D0490935E04A093F0
:1043C0005F04B09360048091610490916204A091B5
:1043D0006304B09164040196A11DB11D8093610432
:1043E00090936204A0936304B0936404BF91AF916F
:1043F0009F918F913F912F910F900FBE0F901F9023
:10440000189526E8230F0296A11DB11DD2CF2FB714
:10441000F89460915D0470915E0480915F049091C6
:1044200060042FBF08953FB7F89480916104909184
:104430006204A0916304B091640426B5A89B05C0F2
:104440002F3F19F00196A11DB11D3FBFBA2FA92F13
:10445000982F8827BC01CD01620F711D811D911D10
:1044600042E0660F771F881F991F4A95D1F708957C
:104470008F929F92AF92BF92CF92DF92EF92FF9274
:104480006B017C010E9413224B015C01C114D10419
:10449000E104F10449F4FF90EF90DF90CF90BF90DA
:1044A000AF909F908F9008950E9469230E941322DD
:1044B000681979098A099B09683E7340810591054D
:1044C00028F321E0C21AD108E108F10888EE880E2D
:1044D00083E0981EA11CB11CC114D104E104F104B5
:1044E00029F7D4CF789484B5826084BD84B5816087
:1044F00084BD85B5826085BD85B5816085BDEEE6EC
:10450000F0E0808181608083E1E8F0E010828081CA
:1045100082608083808181608083E0E8F0E0808138
:1045200081608083E1EBF0E0808184608083E0EB58
:10453000F0E0808181608083EAE7F0E08081846040
:10454000808380818260808380818160808380819C
:10455000806880831092C1000895833081F028F430
:10456000813099F08230A9F008958730A9F0883021
:10457000C9F08430B1F4809180008F7D03C08091B8
:1045800080008F7780938000089584B58F7784BDF5
:10459000089584B58F7DFBCF8091B0008F77809395
:1045A000B00008958091B0008F7DF9CFCF93DF9355
:1045B00090E0FC01EB51FE4F249187509E4FFC018F
:1045C00084918823C9F090E0880F991FFC01EF5D6A
:1045D000FD4FA591B491FC01E95EFD4FC591D491C9
:1045E00061110DC09FB7F8948C91209582238C9314
:1045F0008881282328839FBFDF91CF91089562305F
:1046000051F49FB7F8943C91822F809583238C932B
:10461000E8812E2BEFCF8FB7F894EC912E2B2C93B3
:104620008FBFEACF1F93CF93DF93162F282F30E051
:10463000F901EF52FE4F8491F901EB51FE4FD491F5
:10464000F901E750FE4FC491CC23A1F081110E94E3
:10465000AD22EC2FF0E0EE0FFF1FE95EFD4FA591BC
:10466000B4918FB7F894EC91111108C0D095DE2366
:10467000DC938FBFDF91CF911F910895DE2BF8CF90
:10468000CF93DF93282F30E0F901EF52FE4F849152
:10469000F901EB51FE4FD491F901E750FE4FC4915F
:1046A000CC23A1F081110E94AD22EC2FF0E0EE0F9F
:1046B000FF1FE35FFD4FA591B491EC91ED2381E0E5
:1046C00090E009F480E0DF91CF91089580E090E0E0
:1046D000FACF08958091950490E020919604821B72
:1046E0009109089520919604822F90E040919504BD
:1046F00050E0841795074CF489569B4FFC0180814C
:1047000090E02F5F2093960408958FEF9FEF089518
:104710008091960490E02091950430E082179307F1
:1047200034F489569B4FFC01808190E008958FEF0F
:104730009FEF08950895CF92DF92EF92FF920F932B
:104740001F93CF93DF937C01CB018A0120917104E9
:10475000222389F0EB016B01C40ED51ECC15DD05BB
:1047600069F06991D701ED91FC910190F081E02D04
:10477000C7010995F3CF642F0E946125C801DF911D
:10478000CF911F910F91FF90EF90DF90CF90089500
:10479000CF93DF931F92CDB7DEB769832091710469
:1047A000222309F12091720430E0203231055CF0BF
:1047B00021E030E0FC013383228380E090E00F9021
:1047C000DF91CF91089580917304E82FF0E0EC58C9
:1047D000FB4F998190838F5F809373048093720461
:1047E00081E090E0ECCF61E0CE0101960E9461256E
:1047F000F7CF1092960410929504109273041092C1
:1048000072040C94A42481E0809371046093940456
:10481000109273041092720408950F93062F21E0F2
:104820004091720464E774E0809194040E940A2528
:104830001092730410927204109271040F910895F3
:104840004F925F926F927F92AF92BF92CF92EF9210
:10485000FF920F931F93CF93DF935C01F62ED42F1B
:10486000280139010E2D10E00115110541F10E94BA
:1048700003240430110514F083E0E82ECFEFCE0DB1
:10488000CF3FC9F028E0C29FC0011124A3019201CB
:1048900004C056954795379527958A95D2F7CA0152
:1048A000B901D501ED91FC910190F081E02DC50198
:1048B0000995C150E5CF60E0C5010E940D248D2F00
:1048C00090E081970CF0D0E22C2D4D2F67E974E039
:1048D0008F2D0E94C2241092960480939504DF913C
:1048E000CF911F910F91FF90EF90CF90BF90AF901D
:1048F0007F906F905F904F900895CF92EF920F93BB
:104900001F93C22EE12C00E010E098010E942024A9
:104910001F910F91EF90CF90089521E00C947D248A
:1049200061E00C940D24E5E6F4E01382128288EE37
:1049300093E0A0E0B0E084839583A683B7838EE202
:1049400093E09183808308951092240581E0809301
:1049500022051092210561E082E10E94122361E0AC
:1049600083E10E941223E9EBF0E080818E7F808357
:1049700080818D7F808388E48093B80085E4809374
:10498000BC000895413208F043C090912405911174
:10499000FCCF91E090932405209322052FEF2093E4
:1049A000B7041092FC04240F2093FB04909323057A
:1049B00090912305880F892B8093230580912105F1
:1049C000813009F510922105809123058093BB0069
:1049D0008091BC0083FDF8CF85EC8093BC00809172
:1049E00024058130E1F38091FC04841710F4409198
:1049F000FC04ADEFB4E0962FFB018E2F891B8417CA
:104A000020F0842F089585EEE8CF8D918193F5CF26
:104A100040E0F7CF0F93413208F04BC0909124054E
:104A20009111FCCF92E090932405009322059FEF13
:104A30009093B7041092FC044093FB04362FADEF23
:104A4000B4E0FB019E2F931B941770F11092230585
:104A500090912305880F892B809323058091210550
:104A6000813029F510922105809123058093BB00A8
:104A70008091BC0083FDF8CF85EC8093BC0022239D
:104A800021F0809124058230D1F38091B7048F3FCB
:104A900091F08091B704803281F08091B704803327
:104AA00071F084E00F91089591919D93CBCF85EEA5
:104AB000E4CF81E0F7CF80E0F5CF82E0F3CF83E071
:104AC000F1CF4091D904262F30E0240F311D21323F
:104AD0003105DCF4209124052430C9F4FC0180E088
:104AE00090E0861738F08091D904680F6093D9045C
:104AF00080E008953091D9042191DC01A552BB4F8B
:104B0000A30FB11D2C930196ECCF81E0089582E0B4
:104B1000089585ED8093BC008091BC0084FDFCCF9E
:104B200010922405089585EC8093BC001092240512
:104B300008951F920F920FB60F9211242F933F9357
:104B40004F935F936F937F938F939F93AF93BF9395
:104B5000EF93FF938091B900887F803609F44CC0B1
:104B600008F03FC0883209F4A8C018F5803109F474
:104B70009CC0B8F4882309F4F9C0883009F495C0C2
:104B8000FF91EF91BF91AF919F918F917F916F9125
:104B90005F914F913F912F910F900FBE0F901F90FB
:104BA0001895883109F489C0803251F78093B70491
:104BB00015C0803409F49EC048F48033B9F38833BB
:104BC000F9F68093B7040E949325DACF803509F473
:104BD00085C0883509F496C0883491F60E948925ED
:104BE000CFCF883909F48CC038F5883729F050F4D4
:104BF000883611F0803721F683E0809324051092E7
:104C0000B80457C0883809F47BC0803919F080385F
:104C100009F0B6CF8091B804803208F071C0E091FD
:104C2000B80481E08E0F8093B8048091BB00F0E05F
:104C3000E754FB4F80833DC0803B39F0E0F4803A7D
:104C400009F479C0883A09F09BCF84E08093240569
:104C50001092DA041092D904E0911F05F09120051A
:104C600009958091D90481110FC081E08093D90406
:104C70001092DB0409C0803C09F476C0883C09F43A
:104C800073C0883B09F07CCFE091DA0481E08E0F9D
:104C90008093DA04F0E0E552FB4F80818093BB0003
:104CA0009091DA048091D90429C0809123058093E2
:104CB000BB0085EC8093BC0063CF9091FC04809195
:104CC000FB04981758F5E091FC0481E08E0F809367
:104CD000FC04F0E0E350FB4F8081E9CFE091FC045D
:104CE00081E08E0F8093FC048091BB00F0E0E350E4
:104CF000FB4F80839091FC048091FB049817C8F2CD
:104D000085E8D8CFE091FC0481E08E0F8093FC040D
:104D10008091BB00F0E0E350FB4F8083809122053F
:104D200081115CCF81E08093210584EA8093BC00EF
:104D30001092240525CF0E9493258091B8048032DB
:104D400030F4E091B804F0E0E754FB4F108260913A
:104D5000B80470E0E0911D05F0911E0589EB94E028
:104D600009951092B8040CCF85ECE0CF1092B704EF
:104D700035CF28E6FC0120830895462F69E1FC0128
:104D800080810C940B320F93062F23E045E06AE1FB
:104D9000FC0180810E94B7330F9108950F93062F75
:104DA00023E042E06AE1FC0180810E94B7330F9169
:104DB00008950F93062F22E044E06BE1FC0180810F
:104DC0000E94B7330F9108950F93062F22E044E01D
:104DD0006CE1FC0180810E94B7330F910895462F4A
:104DE0006FE1FC0180810C940B32462F60E2FC01E4
:104DF00080810C940B32462F61E2FC0180810C947F
:104E00000B32462F62E2FC0180810C940B32FC01D4
:104E1000962F262F30E02430310534F4660F690FC9
:104E20006B5D80810C940B320895462F68E3FC0182
:104E300080810C940B32CF93DF93EC0120910A0117
:104E400030910B01AC014F5F5F4F6AE388810E9494
:104E50001A338981DF91CF910895262F46E06AE6C3
:104E6000FC0180810C948733262F45E06AE6FC0123
:104E700080810C94873321E042E06AE6FC01808166
:104E80000C94873321E041E06AE6FC0180810C94B8
:104E9000873321E047E06BE6FC0180810C94873387
:104EA000262F46E06BE6FC0180810C9487330F933C
:104EB000062F23E042E06BE6FC0180810E94B733BD
:104EC0000F910895CF93DF93EC0161E00E94572783
:104ED00060E0CE010E94D92660E0CE010E94E42667
:104EE00060E0CE01DF91CF910C9450270F931F9378
:104EF000CF93DF93EC0100910A0110910B019C010B
:104F00002F5F3F4F42E062E788810E946B328981C8
:104F10009A81982789279827DF91CF911F910F9128
:104F200008950F931F939B0100910A0110910B01AB
:104F300064E7FC0180810E946B321F910F910895FC
:104F4000EF92FF920F931F93CF93DF93EC01E090CA
:104F50000A01F0900B018C010F5F1F4F26E046E025
:104F600065E788810E9449338981DF91CF911F9144
:104F70000F91FF90EF9008950E94A02791E0843355
:104F800009F090E0892F08950F931F93CF93DF933B
:104F9000EC0100910A0110910B019C012F5F3F4F22
:104FA00040E060E088810E9424338981DF91CF91C5
:104FB0001F910F910895262F40E060E0FC01808151
:104FC0000C948733EF92FF920F931F93CF93DF934D
:104FD000EC01E0900A01F0900B018C010F5F1F4F74
:104FE00026E046E060E088810E9449338981DF91B4
:104FF000CF911F910F91FF90EF9008950F93062F7F
:1050000026E046E060E0FC0180810E94B7330F910A
:105010000895EF92FF920F931F93CF93DF93EC01CC
:10502000E0900A01F0900B018C010F5F1F4F26E00A
:1050300046E061E088810E9449338981DF91CF9108
:105040001F910F91FF90EF9008950F93062F26E088
:1050500046E061E0FC0180810E94B7330F91089522
:10506000EF92FF920F931F93CF93DF93EC01E090A9
:105070000A01F0900B018C010F5F1F4F26E046E004
:1050800062E088810E9449338981DF91CF911F912D
:105090000F91FF90EF9008950F93062F26E046E0C2
:1050A00062E0FC0180810E94B7330F910895AB014B
:1050B00066E0FC0180810C945932AB0168E0FC0190
:1050C00080810C945932AB016AE0FC0180810C9420
:1050D0005932AB0163E1FC0180810C945932AB0180
:1050E00065E1FC0180810C945932AB0167E1FC0160
:1050F00080810C945932262F47E06AE6FC018081BA
:105100000C94873321E043E06AE6FC0180810C9433
:1051100087336F712111606241116064462F6DE623
:10512000FC0180810C940B32462F6EE6FC018081DD
:105130000C940B32CF93DF93EC0120910A01309154
:105140000B01AC014F5F5F4F6FE688810E941A33FD
:105150008981DF91CF9108955F926F927F928F92B4
:105160009F92AF92BF92CF92DF92EF92FF920F93F6
:105170001F93CF93DF937C015B016A01522EC02FF6
:1051800020E040E0652D0E948928602FC7010E9421
:105190009428612C712C812C992493946C147D0497
:1051A000A0F5C3014096C816D90668F5DC2DD619BE
:1051B0008D2F90E094012C1B31092817390714F426
:1051C000DC2FD19500910A0110910B019501260D5C
:1051D000371D4D2F6FE6F70180810E946B326D0EF7
:1051E000711CCD0F6C147D04C8F6C11101C053941D
:1051F00020E040E0652DC7010E9489286C2FC7017F
:105200000E949428CBCFD0E1D3CFDF91CF911F91D3
:105210000F91FF90EF90DF90CF90BF90AF909F9055
:105220008F907F906F905F9008952F923F924F9252
:105230005F926F927F928F929F92AF92BF92CF9226
:10524000DF92EF92FF920F931F93CF93DF9300D0E3
:1052500000D01F92CDB7DEB79D838C837B836A839A
:105260003A01222ED02EE98220E040E0622D0E94F9
:105270008928602F8C819D810E949428E980EE20EE
:1052800029F080E190E00E9467364C01CC2029F0A3
:1052900080E190E00E9467365C01E12CF12CE6147D
:1052A000F70408F099C0C70140966816790628F5FA
:1052B000362C3E18832D90E020E031E02D19310985
:1052C0002817390714F43D2C3194432C512CCC2051
:1052D000B9F020E0822F90E084159505ACF4F70139
:1052E000E80FF91F4A815B81E40FF51FE4918A0DF5
:1052F0009B1DDC01EC932F5FEDCF80E1382EDACFE0
:10530000AA80BB80AE0CBF1C9501432D6FE6EC81DB
:10531000FD8180810E94DA31F981FF2309F445C0C3
:105320008114910409F441C020E040E0622D8C8199
:105330009D810E9489286D2D8C819D810E949428D9
:1053400000910A0110910B019401432D6FE6AC818D
:10535000BD818C910E946B32A201B401C5010E94F3
:105360007A38892B11F1C4010E94FF36CC2021F03C
:10537000C5010E94FF36C12C8C2D0F900F900F900D
:105380000F900F90DF91CF911F910F91FF90EF90B1
:10539000DF90CF90BF90AF909F908F907F906F9055
:1053A0005F904F903F902F900895E40CF51CD30C24
:1053B000E614F70408F073CFD11001C0239420E065
:1053C00040E0622D8C819D810E9489286D2D8C8109
:1053D0009D810E94942863CFB981BB2319F0C40139
:1053E0000E94FF36CC2021F0C5010E94FF36C4CFB9
:1053F000CC24C394C1CFCF92EF920F93CC24C3940B
:105400000E9415290F91EF90CF9008953F924F92EF
:105410005F926F927F928F929F92AF92BF92CF9244
:10542000DF92EF92FF920F931F93CF93DF933C0194
:105430004B012A01122F222331F088E090E00E94D4
:105440006736D82EF92EC0E0D0E0C415D50508F097
:1054500077C0F401EC0FFD1FCE0103965C01112310
:10546000E1F03490FE013196E80DF91D0491FE0142
:105470003296E80DF91DE490E1101AC02496F4016B
:10548000E80FF91FE491E13009F040C042E368E31E
:10549000F30180810E940B32D8CF30800181E280FD
:1054A000F401E80FF91FE1101FC02496E081EBCF53
:1054B000CE2DD0E092E09E1538F4BE018D2D9F2DAB
:1054C0000E948837D82EF92EAD2DBF2D80E090E0B8
:1054D0008C179D0758F4FC01EA0DFB1DE80DF91D22
:1054E000E491ED930196F4CFDE2EFF2ECE2DD0E089
:1054F000C12CEE24E394232DAE016D2D7F2DC3012D
:105500000E941529CA0DDB1D81119FCF112329F09F
:105510008D2D9F2D0E94FF3610E0812FDF91CF91BE
:105520001F910F91FF90EF90DF90CF90BF90AF90C1
:105530009F908F907F906F905F904F903F900895D5
:10554000112329F08D2D9F2D0E94FF36E6CF11E00B
:10555000E4CF21E00C94062A462F60E7FC0180810D
:105560000C940B32462F61E7FC0180810C940B32C6
:105570004F925F926F927F928F929F92AF92BF9263
:10558000CF92DF92EF92FF920F931F93CF93DF930F
:10559000CDB7DEB768970FB6F894DEBF0FBECDBFAC
:1055A0008C01FB018BA59CA5ADA5BEA58D879E8713
:1055B000AF87B88B8FA598A9A9A9BAA9898B9A8B0F
:1055C000AB8BBC8B8BA99CA9ADA9BEA98D8B9E8BE7
:1055D000AF8BB88F8FA898ACA9ACBAACC080D18083
:1055E000E280F38084819581A681B78189839A8343
:1055F000AB83BC8380859185A285B3858D839E8393
:10560000AF83B88784859585A685B78589879A876E
:10561000AB87BC872D853E854F855889C701B6016C
:105620000E94FA352B013C0129893A894B895C8912
:1056300069817A818B819C810E94FA359B01AC0142
:10564000C301B2010E9429342B013C012D893E89FE
:105650004F89588D6D817E818F8198850E94FA35A2
:105660009B01AC01C301B2010E9429342B013C0112
:10567000A501940169857A858B859C850E94FA3500
:105680009B01AC01C301B2010E942934D8016D9382
:105690007D938D939C93139729893A894B895C89D3
:1056A000C701B6010E94FA352B013C012D853E85CC
:1056B0004F85588969817A818B819C810E94FA3556
:1056C0009B01AC01C301B2010E942A342B013C01B1
:1056D000A50194016D817E818F8198850E94FA35A4
:1056E0009B01AC01C301B2010E942A342B013C0191
:1056F0002D893E894F89588D69857A858B859C8552
:105700000E94FA359B01AC01C301B2010E94293409
:10571000F80164837583868397832D893E894F8939
:10572000588DC701B6010E94FA352B013C01A50135
:10573000940169817A818B819C810E94FA359B0159
:10574000AC01C301B2010E9429342B013C012D851B
:105750003E854F8558896D817E818F8198850E9415
:10576000FA359B01AC01C301B2010E942A342B011E
:105770003C0129893A894B895C8969857A858B85C1
:105780009C850E94FA359B01AC01C301B2010E94C5
:105790002A34D80118966D937D938D939C931B9713
:1057A000A5019401C701B6010E94FA356B017C0185
:1057B0002D893E894F89588D69817A818B819C81A1
:1057C0000E94FA359B01AC01C701B6010E942A3440
:1057D0006B017C0129893A894B895C896D817E81C5
:1057E0008F8198850E94FA359B01AC01C701B601F3
:1057F0000E9429346B017C012D853E854F85588997
:1058000069857A858B859C850E94FA359B01AC0160
:10581000C701B6010E942A34F8016487758786871C
:105820009787C80168960FB6F894DEBF0FBECDBF4C
:10583000DF91CF911F910F91FF90EF90DF90CF906C
:10584000BF90AF909F908F907F906F905F904F90A0
:1058500008954F925F926F927F928F929F92AF9234
:10586000BF92EF92FF920F931F93CF93DF93CDB729
:10587000DEB7E0970FB6F894DEBF0FBECDBF8C0148
:105880007B01FC0164817581072E000C880B990B4C
:105890000E9445354B015C01F80162817381072E3E
:1058A000000C880B990B0E9445352B013C01F80137
:1058B00060817181072E000C880B990B0E94453581
:1058C000198A1A8A1B8A1C8A6D8B7E8B8F8B988F04
:1058D000498E5A8E6B8E7C8E8D8E9E8EAF8EB8A228
:1058E0008DB79EB740970FB6F8949EBF0FBE8DBF81
:1058F000ADB7BEB7119680E1FE01719601900D9291
:105900008A95E1F7B701CE0181960E94B82A80E11D
:10591000FE01B196DE01519601900D928A95E1F754
:10592000F70184859585A685B785B0584085518552
:1059300062857385705884809580A680B780B7FA99
:10594000B094B7F8B09440805180628073804982EF
:105950005A826B827C828D829E82AF82B886498712
:105960005A876B877C878D879E87AF87B88B8DB76B
:105970009EB740970FB6F8949EBF0FBE8DBFADB7D0
:10598000BEB7119680E1FE01319601900D928A9585
:10599000E1F7BE016F5E7F4FCE0181960E94B82A6B
:1059A00080E1FE01B196DE01519601900D928A953B
:1059B000E1F76D897E898F89988D0E940D35F801F8
:1059C00071836083698D7A8D8B8D9C8D0E940D35DE
:1059D000F801738362836D8D7E8D8F8D98A10E94F7
:1059E0000D35F801758364830FB6F894DEBF0FBEE2
:1059F000CDBFE0960FB6F894DEBF0FBECDBFDF91EE
:105A0000CF911F910F91FF90EF90BF90AF909F901B
:105A10008F907F906F905F904F9008958F929F929C
:105A2000AF92BF92CF92EF92FF920F931F93CF93BB
:105A3000DF93CDB7DEB7C059D1090FB6F894DEBFFA
:105A40000FBECDBF5C010E9449276EE170E080E08F
:105A500090E00E94382260E0C5010E94502721E0BA
:105A600041E060E1C5010E94892866E0C5010E940D
:105A70009428C5010E949A2820E040E060E0C5011A
:105A80000E948928C5010E94C427C5010E94E227FF
:105A9000982EC5010E940928F82EC5010E943028C1
:105AA000182F4FE760E0C5010E94072760E0C5019D
:105AB0000E94342748E660E0C5010E940727C5011F
:105AC0000E94422764E170E080E090E00E9438226A
:105AD000EE24E39400E020E049E857E06AE173E057
