:100000000C942C050C94B90D0C94E00D0C94540533
:100010000C9454050C9454050C9454050C945405FC
:100020000C9454050C9454050C9454050C945405EC
:100030000C9454050C9454050C9454050C945405DC
:100040000C94070E0C9454050C94980A0C94CA0A4C
:100050000C9454050C9454050C9454050C945405BC
:100060000C949B110C945405036EDB363D9A9999C0
:10007000993DABAAAA2A3E000000803F084AD73B20
:100080003BCE016E84BCBFFDC12F3D6C74319ABD67
:1000900056833DDA3D00C77F11BED9E4BB4C3E918B
:1000A0006BAAAABE000000803F072C7AA5BA6CC5D7
:1000B00090DA3B9365FC8BBC53F810FD3C56928361
:1000C0004DBD879D3AB63DCBC9BF5BBE73DA0FC944
:1000D0003F004649464F206F766572666C6F772108
:1000E000002900444D5020496E697469616C697A39
:1000F0006174696F6E206661696C65642028636F46
:1001000064652000444D5020726561647921205758
:10011000616974696E6720666F72206669727374B4
:1001200020696E746572727570742E2E2E00456E85
:1001300061626C696E6720696E7465727275707445
:1001400020646574656374696F6E202841726475FC
:10015000696E6F2065787465726E616C20696E746B
:100160006572727570742030292E2E2E00456E61D6
:10017000626C696E6720444D502E2E2E00496E69C8
:100180007469616C697A696E6720444D502E2E2E19
:100190000000000008000201000003040700000046
:1001A0000000000000010204081020408001020449
:1001B00008102001020408102004040404040404AC
:1001C000040202020202020303030303030000000D
:1001D00000250028002B0001B202FFFF0190040956
:1001E00023A135016A02060001600800000000003A
:1001F00000000000600440000000016202000000F6
:10020000600400400000037B034CCD6C03AB03365D
:10021000567600680402CB47A202180400058BC181
:10022000010C0400000000037F060CC92C9797976F
:10023000038903264666006C022000024004000089
:100240000000024404000000000248040000000016
:10025000024C0400000000025004000000000254A0
:10026000040000000002580400000000025C0400CA
:1002700000000002BC040000000001EC040000408B
:1002800000037F060CC92C9797970402030D355D78
:10029000040904872D353D00A3010000000001077B
:1002A0008601FE074105F120283038077E0130071E
:1002B00046019A074704F1283038076C04F12830CA
:1002C000380216020002FB00003E000B003600015F
:1002D00000020003000000650054FFEF0000FA80F8
:1002E000000B12820001000200000000000000006C
:1002F00000000000000000280000FFFF4581FFFF14
:10030000FA7200000000000003E800000001000194
:100310007FFFFFFE8001001B0000000000000000C6
:10032000000000000000003E03304000000002CA50
:10033000E3093E80000020000000000000004000B3
:1003400000006000000041FF000000000B2A0000D8
:10035000165500002182FD872650FD800000001FF9
:100360000000000580000000000000010000000205
:10037000000000030000400000000000046F0002C5
:10038000653200005EC04000000000000000000078
:10039000000000000000FB8C6F5DFD5D08D9007C53
:1003A000733B006C12CC3200139D3200D0D6320069
:1003B0000800400001F4FFE6807902000000000020
:1003C000D0D600002710FB00000040000000000015
:1003D000000000000000000000010000000000001C
:1003E0000100010000000000FA36FFBC308E00055D
:1003F000FBF0FFD95BC8FFD09ABE000010A9FFF444
:100400001EB200CEBBF70000000100000004000295
:1004100000020200000CFFC280000001800000CF3B
:10042000800040000000000000010000000000000B
:1004300006000000001400000000000000000000A2
:1004400000000000000000000000000000000000AC
:10045000000000000000000000000000000000009C
:1004600000000000000000000000033F68B679357E
:1004700028BCC67ED16C8000000040000000000057
:10048000B26A000000000000000000000000000050
:100490003FF00000003000000000000000000000FD
:1004A000000000000000000000000000000000004C
:1004B0000000000000000000254D002F706D0000BE
:1004C00005AE000C02D00000000000650054FFEFF4
:1004D00000000000000000000100004400000000D7
:1004E0000C00000001000000000000650000005446
:1004F0000000FFEF0000000000000000000000000E
:1005000000000000000040000000000000000000AB
:10051000000000000000400000000000000000009B
:1005200000000000000000000001000000020000C8
:1005300000000000000000000000000000000000BB
:1005400000000000000000000000000000000000AB
:10055000000000000000001B000000000000000080
:10056000000000000000000000000000000000008B
:10057000000000000000000000000000000000007B
:10058000000040000000001B000000000000000010
:10059000000000000000000000000000000000005B
:1005A000000000000000000000000000000000004B
:1005B000000000000000000000000000000000003B
:1005C000000000000000D8DCBAA2F1DEB2B8B4A886
:1005D0008191F74A907F916AF3F9DBA8F9B0BAA04C
:1005E00080F2CE81F3C2F1C1F2C3F3CCA2B280F1AA
:1005F000C6D880BAA7DFDFDFF2A7C3CBC5B6F087C6
:10060000A2942448703C95406834589B78A2F183AA
:10061000922D557DD8B1B4B8A1D09180F270F3700D
:10062000F27C80A8F101B09887D943D886C988BAEE
:10063000A1F20EB89780F1A9DFDFDFAADFDFDFF2DA
:10064000AAC5CDC7A90CC92C97979797F1A9892658
:100650004666B0B4BA80ACDEF2CAF1B28C02A9B67A
:100660009800890E161EB8A9B4992C547CB08AA89B
:1006700096365676F1B9AFB4B083C0B8A89711B129
:100680008F98B9AFF0240844106418F1A329557D60
:10069000AF83B593AFF0002850F1A3869F61A6DA2F
:1006A000DEDFD9FAA38696DB31A6D9F8DFBAA68FAA
:1006B000C2C5C7B28CC1B8A2DFDFDFA3DFDFDFD8DE
:1006C000D8F1B8A8B286B4980D355DB8AA98B087AD
:1006D0002D353DB2B6BAAF8C96198F9FA70E161E58
:1006E000B49AB8AA872C547CB9A3DEDFDFA3B1800B
:1006F000F2C4CDC9F1B8A9B499830D355D89B9A308
:100700002D557DB593A30E161EA92C547CB8B4B0FC
:10071000F19783A81184A50998A383F0DA240844EB
:10072000106418D8F1A529557DA58595021A2E3A91
:10073000565A4048F9F3A3D9F8F098832408441096
:1007400064189782A8F111F098A224084410641844
:10075000DAF3DED883A59401D9A302F1A2C3C5C7F9
:10076000D8F18492A24DDA2AD84869D92AD8685596
:10077000DA32D85071D932D8705DDA3AD85879D98E
:100780003AD87893A34DDA2AD84869D92AD8685537
:10079000DA32D85071D932D8705DDA3AD85879D96E
:1007A0003AD878A88A9AF02850789EF38818F19F52
:1007B0001D98A8D908D8C89F129EF315A8DA121060
:1007C000D8F1AFC8978734B5B994A421F3D922D80A
:1007D000F22DF3D92AD8F235F3D932D881A460604A
:1007E00061D961D86C6869D969D8747071D971D8C8
:1007F000B1A384193D5DA3831A3E5E93103081102E
:1008000011B8B0AF8F94F2DA3ED8B49AA88729DA3B
:10081000F8D8879A35DAF8D8879A3DDAF8D8B1B996
:10082000A49885022E56A581000C14A397B08AF1D6
:100830002DD928D84DD948D86DD968D8B1840DDACA
:100840000ED8A32983DA2C0ED8A3844983DA2C4C42
:100850000ED8B8B0A88A9AF520AADADFD8A840AA9C
:10086000D0DADED8A860AADAD0DFD8F19786A8312E
:100870009B069907AB9728889BF00C201440B8B0D2
:10088000B4A88C9CF0042851791D301438B282AB86
:10089000D0982C505078789BF11AB0F08A9CA829F7
:1008A00051798B2951798A2470598B2058718A4447
:1008B00069388B3940688A6448318B304960A58833
:1008C000200971584468113964493019F1AC002C81
:1008D000547CF08CA804285078F1889726A8599861
:1008E000AC8C02264666F0899CA82951792470595F
:1008F000446938644831A98809205970AB113840DF
:1009000069A8193148608CA83C415C207C00F187C3
:10091000981986A86E767EA999882D557D9EB9A3D3
:100920008A228A6E8A568A5E9FB183062646660EA2
:100930002E4E6E9DB8AD002C547CF2B18CB499B99A
:10094000A32D557D8191AC38AD3AB58391AC2DD9AD
:1009500028D84DD948D86DD968D88C9DAE29D904EE
:10096000AED851D904AED879D904D881F39DAD0061
:100970008DAE1981ADD901D8F2AEDA26D88E912983
:1009800083A7D9ADADADADF32AD8D8F1B0AC89917C
:100990003E5E76F3AC2E2EF1B18C5A9CAC2C2828FE
:1009A000289CAC3018A8988128343C9724A7283478
:1009B0003C9C24F2B089AC912C4C6C8A9B2DD9D8EC
:1009C000D851D9D8D879D9D8D8F19E88A331DAD8D6
:1009D000D8912DD928D84DD948D86DD968D8B183A8
:1009E00093353D8025DAD8D88569DAD8D8B4938193
:1009F000A328343CF3AB8BF8A391B609B4D9ABDE92
:100A0000FAB0879CB9A3DDF1A3A3A3A395F1A3A397
:100A1000A39DF1A3A3A3A3F2A3B49080F2A3A3A3E5
:100A2000A3A3A3A3A3A3A3B2A3A3A3A3A3A3B08796
:100A3000B599F1A3A3A398F1A3A3A3A397A3A3A3F9
:100A4000A3F39BA3A3DCB9A7F1262626D8D8FF00E1
:100A5000CC08FA0A9510D50811241FBECFEFD8E0B4
:100A6000DEBFCDBF12E0A0E0B1E0E2E6FEE402C0EE
:100A700005900D92A232B107D9F723E0A2E2B2E0CD
:100A800001C01D92A539B207E1F715E0CBE2D5E030
:100A900004C02197FE010E944121C832D107C9F745
:100AA0000E94850D0C9424270C94000081E0809313
:100AB0002202089521EC31E0FC01318320830C9463
:100AC0009C07CF93DF93EC010E945A05CE01DF9182
:100AD000CF910C94960D8F929F92AF92BF92CF922E
:100AE000DF92EF92FF920F931F93CF93DF93EC016E
:100AF0008A81882309F429C180912202811107C0CB
:100B00002F8138858D819E8128173907A8F310928F
:100B100022028E0101571F4FC8010E941D138B83B3
:100B2000C8010E9478139C0198878F839B8194FD54
:100B300003C021153440A9F4C8010E943D1362EDA1
:100B400070E08BE292E0DF91CF911F910F91FF90C7
:100B5000EF90DF90CF90BF90AF909F908F900C94CC
:100B6000960B91FFF2C04D815E818F81988584172D
:100B7000950730F4C8010E94781398878F83F3CFCC
:100B80006E01E9E0CE0ED11CB601C8010E9493139C
:100B90008F8198852D813E81821B930B98878F834F
:100BA0007E01F9E4EF0EF11CA601B701C8010E9415
:100BB000131C5E0187E7A80EB11CA701B501C8018F
:100BC0000E94D81D6DE071E08BE292E00E94890BDB
:100BD00020E030E044E353E4F501608171818281DB
:100BE00093810E9408242BED3FE049E450E40E94E9
:100BF0004622AB01BC0122E030E08BE292E00E9491
:100C00006E0D61E171E08BE292E00E94890BFE01C2
:100C1000E558FF4F20E030E044E353E46081718108
:100C2000828193810E9408242BED3FE049E450E447
:100C30000E944622AB01BC0122E030E08BE292E050
:100C40000E946E0D61E171E08BE292E00E94890BDF
:100C5000FE01E158FF4F20E030E044E353E46081BF
:100C60007181828193810E9408242BED3FE049E449
:100C700050E40E944622AB01BC0122E030E08BE24E
:100C800092E00E94700D4E01F9E58F0E911CA601B5
:100C9000B401C8010E94AE1B6E018BE6C80ED11CC8
:100CA000A701B601C8010E940C1D5E01EFE5AE0E62
:100CB000B11C9601A401B501C8010E94821C6E01FD
:100CC000F5E6CF0ED11C9701A501B601C8010E941F
:100CD000FF1C60E171E08BE292E00E94890BF6015B
:100CE000608171814AE050E08BE292E00E94500CFA
:100CF00061E171E08BE292E00E94890BFE01E9590B
:100D0000FF4F608171814AE050E08BE292E00E94E7
:100D1000500C61E171E08BE292E00E94890BC759AF
:100D2000DF4F688179814AE050E08BE292E0DF9109
:100D3000CF911F910F91FF90EF90DF90CF90BF90D8
:100D4000AF909F908F900C94570CDF91CF911F9193
:100D50000F91FF90EF90DF90CF90BF90AF909F905A
:100D60008F9008950F931F93CF93DF93EC010E9410
:100D7000960781EC91E0998388831A82FE01E75BF4
:100D8000FF4F80E090E0A0E8BFE380839183A283DF
:100D9000B3831482158216821782108611861286FA
:100DA0001386148615861686178670961182108211
:100DB0001382128215821482369611821082138257
:100DC0001282158214823696118210821382128248
:100DD0001582148236961082118212821382148236
:100DE00015821682178210861186128613868E014E
:100DF00001571F4FC8010E94BB1281ED92E00E9473
:100E0000FB0F88E18093B8006BE471E08BE292E025
:100E10000E94A80BC8010E94641367E671E08BE290
:100E200092E00E94A80BC8010E94BE13811164C009
:100E300061E371E08BE292E00E94A80B65E871E04B
:100E40008BE292E00E94A80B6DE771E08BE292E0EA
:100E50000E94960BC8010E9410198C836AE170E011
:100E6000C8010E946B146CEF7FEFC8010E947114DF
:100E700068EF7FEFC8010E94771466E978EFC80138
:100E80000E94591464E875E0C8010E945F1469E784
:100E900073E0C8010E9465148C81811130C06DE639
:100EA00071E08BE292E00E94960B61E0C8010E9423
:100EB0007D146EE271E08BE292E00E94960B43E0BB
:100EC00050E066E575E080E00E94990DC8010E943F
:100ED0001D138B8364E071E08BE292E00E94960B1D
:100EE00081E08A83C8010E94F41E9E838D83DF9176
:100EF000CF911F910F91089563E171E09BCF63EE55
:100F000070E08BE292E00E94650B4AE050E06C8159
:100F10008BE292E00E94760C61EE70E08BE292E050
:100F2000DF91CF911F910F910C94960B2BEC31E038
:100F3000FC01318320830895089528ED31E0FC0100
:100F4000318320830C949C07CF93DF93EC010E94A4
:100F50009D07CE01DF91CF910C94960DCF93DF9337
:100F6000EC018A810E94F70E9D838C8361ED71E014
:100F70008BE292E00E94890B6A817B814AE050E01B
:100F80008BE292E00E94500C61E171E08BE292E012
:100F90000E94890B6C817D814AE050E08BE292E0F7
:100FA000DF91CF910C94570C0F931F93CF93DF9346
:100FB000EC018B010E94960788ED91E0998388836C
:100FC0001B830A831D821C82DF91CF911F910F9199
:100FD00008950F931F93CF93DF93C0912502D09173
:100FE00026020091270210912802C017D10751F064
:100FF00089919991DC01ED91FC910190F081E02DB6
:101000000995F3CF60E170E080E090E0DF91CF914F
:101010001F910F910C94820E8F929F92AF92BF926C
:10102000CF92DF92EF92FF920F931F93CF93DF93B4
:101030008C017B016A01DC0112968D919C911397C2
:1010400014962D913C9115978217930719F1FC0185
:1010500032912291DC012D933D93E801BB83AA8359
:10106000DA01CD91DC91E61BF70BAF018E1B9F0BD4
:101070000E94DB26F701D183C083DF91CF911F91BE
:101080000F91FF90EF90DF90CF90BF90AF909F9027
:101090008F900895D8012D913C91EC01C21BD30B88
:1010A000D595C795209709F445C0649609F044C0CA
:1010B000A12CB12CF801608171814701861A970A31
:1010C000A401C5010E94DB26D6018D919C9165018A
:1010D000C80CD91CF601819391936F01D801129627
:1010E0008D909C9013978E189F08A401B701CF0193
:1010F0000E94DB26C80CD91CF801808191812481D3
:101100003581281B390B35952795232B11F00E942B
:101110007125D8011196BC92AE921396DC92CE92B4
:101120001297CC0FDD1FAC0EBD1E1596BC92AE9271
:101130001497A3CFC1E0D0E04E01880C991CC401E4
:101140000E94D924009761F4E0912302F0912402D7
:10115000309721F480E090E00E9424270995EFCF9A
:101160005C01A8CFAB01DC0112966D917C911397C5
:1011700014962D913C9115976217730759F0FA0157
:1011800020813181FB01219331931396FC93EE93DF
:10119000129708950C940C08E5E2F2E01182108297
:1011A00013821282158214820895809125029091F3
:1011B00026022091290230912A02281B390B3595ED
:1011C0002795232B11F00C947125089568EE73E098
:1011D00080E090E00E94820E8BE292E00E94710912
:1011E000892B51F08BE292E00E948B09682F8BE2F1
:1011F00092E00E94F009F0CF41E050E061EE71E032
:101200008BE292E00C94270B0F931F93CF93DF9305
:1012100000D0CDB7DEB726E040E855E260E070E0F0
:101220008BE292E00E94370A6EED71E08BE292E071
:101230000E94890B0E94E60863EE71E08BE292E067
:101240000E94A80B0E94E60882EA90E00E94940D9A
:101250008C010E94B2061A830983BE016F5F7F4F23
:1012600085E292E00E94B20886E090E00E94940D30
:101270008C0161E070E00E94D4071A830983BE01EB
:101280006F5F7F4F85E292E00E94B20886E090E0B7
:101290000E94940D8C0162E070E00E94D4071A83D2
:1012A0000983BE016F5F7F4F85E292E00E94B20822
:1012B00086E090E00E94940D8C0163E070E00E9453
:1012C000D4071A830983BE016F5F7F4F85E292E0E6
:1012D0000E94B2080F900F90DF91CF911F910F9154
:1012E0000895FC01918D228D892F90E0805C9F4FA5
:1012F000821B91098F7399270895FC01918D828D2E
:10130000981731F0828DE80FF11D858D90E00895DA
:101310008FEF9FEF0895FC01918D828D981761F0FA
:10132000828DDF01A80FB11D5D968C91928D9F5F1C
:101330009F73928F90E008958FEF9FEF089580EF55
:101340009AE0892B49F080E090E0892B29F00E94F7
:10135000F00A81110C9400000895FC01848DDF01D6
:10136000A80FB11DA35ABF4F2C91848D90E0019618
:101370008F739927848FA689B7892C93A089B18907
:101380008C9180648C93938D848D981306C0028811
:10139000F389E02D80818F7D80830895CF93DF9343
:1013A000EC01888D882351F0EA89FB89808185FDD5
:1013B00008C0A889B9898C9186FF03C0DF91CF91BD
:1013C00008950FB607FCF2CF808185FFEFCFE88943
:1013D000F989808185FFE8CFCE010E94AD09E4CF75
:1013E000EF92FF920F931F93CF93DF93EC01F62EB2
:1013F00081E0888F9B8D8C8D981305C0E889F989D1
:10140000808185FD2CC00B8D10E00F5F1F4F0F7387
:101410001127E02E8C8DE8120CC00FB607FCFACF16
:10142000E889F989808185FFF5CFCE010E94AD0959
:10143000F1CF8B8DFE01E80FF11DE35AFF4FF082D3
:101440000B8FEA89FB8980818062808381E090E054
:10145000DF91CF911F910F91FF90EF900895EE894A
:10146000FF896083E889F98980818064EECFCF921B
:10147000DF92EF92FF921F93CF93DF93EC016A010B
:101480007B01122FE889F98982E080834115514E52
:1014900061057105A1F060E079E08DE390E0A701BE
:1014A00096010E941F212150310941095109569589
:1014B000479537952795211580E1380798F0E889F9
:1014C000F989108260E874E88EE190E0A701960146
:1014D0000E941F2121503109410951095695479514
:1014E00037952795EC85FD853083EE85FF85208334
:1014F000188EEC89FD891083EA89FB8980818061DF
:101500008083EA89FB89808188608083EA89FB89FE
:10151000808180688083EA89FB8980818F7D8083D8
:10152000DF91CF911F91FF90EF90DF90CF900895C2
:101530001F920F920FB60F9211242F938F939F93A8
:10154000EF93FF93E0913B02F0913C028081E091A8
:101550004102F091420282FD1BC0908180914402C1
:101560008F5F8F7320914502821741F0E091440212
:10157000F0E0E55DFD4F958F80934402FF91EF9180
:101580009F918F912F910F900FBE0F901F901895E4
:101590008081F4CF1F920F920FB60F9211242F93D8
:1015A0003F934F935F936F937F938F939F93AF93EB
:1015B000BF93EF93FF938BE292E00E94AD09FF91FE
:1015C000EF91BF91AF919F918F917F916F915F91BB
:1015D0004F913F912F910F900FBE0F901F90189534
:1015E0008BE292E00E94710921E0892B09F420E04E
:1015F000822F0895EBE2F2E01382128288EE93E0EC
:10160000A0E0B0E084839583A683B7838AEF91E05E
:101610009183808385EC90E09587848784EC90E0CB
:101620009787868780EC90E0918B808B81EC90E0AF
:10163000938B828B82EC90E0958B848B86EC90E090
:10164000978B868B118E128E138E148E0895CF92E7
:10165000DF92EF92FF920F931F93CF93DF937C0162
:101660006A018B01C0E0D0E0CC15DD0579F0D8012E
:101670006D918D01D701ED91FC910190F081E02DEC
:10168000C7010995892B11F02196EECFCE01DF918C
:10169000CF911F910F91FF90EF90DF90CF90089521
:1016A0006115710579F0FB0101900020E9F7319790
:1016B000AF01461B570BDC01ED91FC910280F381D9
:1016C000E02D099480E090E00895EF92FF920F934F
:1016D0001F93CF93DF938C017B01C0E0D0E0F70133
:1016E000EC0FFD1F6491662361F0D801ED91FC9130
:1016F0000190F081E02DC8010995892B11F0219608
:10170000EECFCE01DF91CF911F910F91FF90EF901F
:1017100008950C94500BDC01ED91FC910190F08147
:10172000E02D099460EE71E00C94500B0F931F9321
:10173000CF93DF93EC010E94650B8C01CE010E94D8
:10174000920B800F911FDF91CF911F910F91089500
:101750000F931F93CF93DF93EC010E94500B8C01EA
:10176000CE010E94920B800F911FDF91CF911F91AC
:101770000F9108958F929F92AF92BF92EF92FF9236
:101780000F931F93CF93DF93CDB7DEB7A1970FB61B
:10179000F894DEBF0FBECDBF7C01FA01CB0119A2C8
:1017A000422F50E0423051050CF42AE08E010F5DCB
:1017B0001F4F822E912CA12CB12CBF01A5019401A9
:1017C0000E941F21F901CA01015011096A30E4F495
:1017D000605DD8016C93232B242B252B71F7B80166
:1017E000C7010E94500BA1960FB6F894DEBF0FBE42
:1017F000CDBFDF91CF911F910F91FF90EF90BF90E0
:10180000AF909F908F900895695CE3CFCF92DF9265
:10181000EF92FF920F931F93CF93DF93EC016A0136
:101820007B012115310579F4E881F9810190F0817E
:10183000E02D642FDF91CF911F910F91FF90EF90DA
:10184000DF90CF9009942A303105E9F477FF1AC070
:101850006DE20E948B0B8C0144275527BA014C196D
:101860005D096E097F092AE0CE010E94BA0B800F44
:10187000911FDF91CF911F910F91FF90EF90DF901B
:10188000CF9008952AE0B701A601CE01DF91CF9154
:101890001F910F91FF90EF90DF90CF900C94BA0BB7
:1018A0009A01AB01770F660B770B0C94060C0F9324
:1018B0001F93CF93DF93EC010E94500C8C01CE015B
:1018C0000E94920B800F911FDF91CF911F910F917A
:1018D00008952115310541F4DC01ED91FC91019051
:1018E000F081E02D642F09940C94BA0B9A01462FD5
:1018F00050E060E070E00C94690C9A01AB0160E08C
:1019000070E00C94690C5F926F927F928F929F921D
:10191000AF92BF92CF92DF92EF92FF920F931F93FD
:10192000CF93DF93EC016A017B01522E9A01AB0148
:10193000C701B6010E94BF24882309F491C06EE05C
:1019400072E0A9C02FEF3FEF4FE75FE4C701B60198
:101950000E94FB2318161CF46AE072E09CC02FEF73
:101960003FEF4FE75FECC701B6010E94412287FDC0
:10197000F3CF20E030E0A901C701B6010E94412267
:1019800087FF1DC06DE2CE010E948B0B8C01F7FA20
:10199000F094F7F8F094B12C60E070E080E09FE301
:1019A000652C712C2B2D30E0261537055CF420E0DA
:1019B00030E040E251E40E944622B394F3CF00E0CD
:1019C00010E0E9CFA70196010E9448216B017C013C
:1019D0000E94BF224B015C012AE0AB01BC01CE0199
:1019E0000E94BA0B080F191F672809F466C0C501C9
:1019F000B4010E94EE229B01AC01C701B6010E9416
:101A000047216B017C016EE2CE010E948B0B080F17
:101A1000191F552009F451C020E030E040E251E4A4
:101A2000C701B6010E9408244B015C010E94BF223D
:101A30006B017C014AE050E0CE010E947D0C080F52
:101A4000191FB60180E090E00E94EE229B01AC01DC
:101A5000C501B4010E9447216B017C015A94D9CF82
:101A600046015701E894B7F82FEF3FEF4FE75FE7E4
:101A7000C501B4010E94BF24811164CF2FEF3FEF55
:101A80004FE75FE7C501B4010E94412218160CF030
:101A900059CF66E072E0CE01DF91CF911F910F9197
:101AA000FF90EF90DF90CF90BF90AF909F908F907E
:101AB0007F906F905F900C94500BC801DF91CF9195
:101AC0001F910F91FF90EF90DF90CF90BF90AF905C
:101AD0009F908F907F906F905F9008950C94830CEF
:101AE0000F931F93CF93DF93EC010E94830C8C0123
:101AF000CE010E94920B800F911FDF91CF911F9119
:101B00000F9108950E94C02608950E94BC0E0E9465
:101B1000840D0E940409CFE9D9E00E94E9072097CB
:101B2000E1F30E949F09F9CF0C94D9240C947125FC
:101B300008958230E8F4E82FF0E0EE0FFF1FEA5F2F
:101B4000FE4F71836083813041F0809169008C7F0A
:101B5000482B40936900E89A089580916900837F3B
:101B6000440F551F440F551F482B40936900E99AB5
:101B700008951F920F920FB60F9211242F933F9347
:101B80004F935F936F937F938F939F93AF93BF9385
:101B9000EF93FF93E0910601F09107010995FF9102
:101BA000EF91BF91AF919F918F917F916F915F91D5
:101BB0004F913F912F910F900FBE0F901F9018954E
:101BC0001F920F920FB60F9211242F933F934F93B2
:101BD0005F936F937F938F939F93AF93BF93EF9395
:101BE000FF93E0910801F09109010995FF91EF91B0
:101BF000BF91AF919F918F917F916F915F914F9125
:101C00003F912F910F900FBE0F901F9018951F922C
:101C10000F920FB60F9211242F933F938F939F93A0
:101C2000AF93BF938091C9029091CA02A091CB0259
:101C3000B091CC023091C80223E0230F2D3758F524
:101C40000196A11DB11D2093C8028093C9029093F3
:101C5000CA02A093CB02B093CC028091CD029091A6
:101C6000CE02A091CF02B091D0020196A11DB11D6C
:101C70008093CD029093CE02A093CF02B093D00276
:101C8000BF91AF919F918F913F912F910F900FBE78
:101C90000F901F90189526E8230F0296A11DB11DE5
:101CA000D2CF2FB7F8946091C9027091CA02809187
:101CB000CB029091CC022FBF08953FB7F89480914A
:101CC000CD029091CE02A091CF02B091D00226B564
:101CD000A89B05C02F3F19F00196A11DB11D3FBF64
:101CE000BA2FA92F982F8827BC01CD01620F711D33
:101CF000811D911D42E0660F771F881F991F4A952D
:101D0000D1F708958F929F92AF92BF92CF92DF92B8
:101D1000EF92FF926B017C010E945D0E4B015C0112
:101D2000C114D104E104F10449F4FF90EF90DF9075
:101D3000CF90BF90AF909F908F9008950E946B0FAF
:101D40000E945D0E681979098A099B09683E7340F3
:101D50008105910528F321E0C21AD108E108F108B4
:101D600088EE880E83E0981EA11CB11CC114D1041A
:101D7000E104F10429F7D4CF789484B5826084BD5E
:101D800084B5816084BD85B5826085BD85B581607F
:101D900085BDEEE6F0E0808181608083E1E8F0E0DF
:101DA0001082808182608083808181608083E0E80E
:101DB000F0E0808181608083E1EBF0E080818460ED
:101DC0008083E0EBF0E0808181608083EAE7F0E0EF
:101DD0008081846080838081826080838081816053
:101DE00080838081806880831092C10008958E3046
:101DF00008F08E5020910A0190E4299F900111244F
:101E00008770822B80937C0080917A00806480931D
:101E10007A0080917A0086FDFCCF80917800209135
:101E2000790090E0922B0895833081F028F481307E
:101E300099F08230A9F008958730A9F08830C9F070
:101E40008430B1F4809180008F7D03C08091800048
:101E50008F7780938000089584B58F7784BD08952F
:101E600084B58F7DFBCF8091B0008F778093B000D9
:101E700008958091B0008F7DF9CF1F93CF93DF93AA
:101E8000162F282F30E0F901EF56FE4F8491F9010B
:101E9000EB55FE4FD491F901E754FE4FC491CC238A
:101EA000A1F081110E94140FEC2FF0E0EE0FFF1F44
:101EB000E353FE4FA591B4918FB7F894EC911111B3
:101EC00008C0D095DE23DC938FBFDF91CF911F91A7
:101ED0000895DE2BF8CF08958091010390E02091C2
:101EE0000203821B9109089520910203822F90E042
:101EF0004091010350E0841795074CF48D5F9C4F8F
:101F0000FC01808190E02F5F2093020308958FEF02
:101F10009FEF08958091020390E02091010330E04B
:101F20008217930734F48D5F9C4FFC01808190E011
:101F300008958FEF9FEF08950895CF92DF92EF926B
:101F4000FF920F931F93CF93DF937C01CB018A0104
:101F50002091DD02222389F0EB016B01C40ED51E16
:101F6000CC15DD0569F06991D701ED91FC910190E7
:101F7000F081E02DC7010995F3CF642F0E94631112
:101F8000C801DF91CF911F910F91FF90EF90DF90EB
:101F9000CF900895CF93DF931F92CDB7DEB76983BB
:101FA0002091DD02222309F12091DE0230E020326F
:101FB00031055CF021E030E0FC013383228380E0D6
:101FC00090E00F90DF91CF9108958091DF02E82F8C
:101FD000F0E0E052FD4F998190838F5F8093DF02A4
:101FE0008093DE0281E090E0ECCF61E0CE010196CB
:101FF0000E946311F7CF1092020310920103109216
:10200000DF021092DE020C94A61081E08093DD02C4
:10201000609300031092DF021092DE0208950F9386
:10202000062F21E04091DE0260EE72E08091000315
:102030000E940C111092DF021092DE021092DD025B
:102040000F9108954F925F926F927F92AF92BF92DD
:10205000CF92EF92FF920F931F93CF93DF935C0188
:10206000F62ED42F280139010E2D10E0011511058F
:1020700041F10E9405100430110514F083E0E82EB0
:10208000CFEFCE0DCF3FC9F028E0C29FC001112491
:10209000A301920104C056954795379527958A95D7
:1020A000D2F7CA01B901D501ED91FC910190F081FF
:1020B000E02DC5010995C150E5CF60E0C5010E9442
:1020C0000F108D2F90E081970CF0D0E22C2D4D2F2A
:1020D00063E073E08F2D0E94C4101092020380937E
:1020E0000103DF91CF911F910F91FF90EF90CF905F
:1020F000BF90AF907F906F905F904F900895CF9278
:10210000EF920F931F93C22EE12C00E010E0980194
:102110000E9422101F910F91EF90CF90089521E01F
:102120000C947F1061E00C940F10E1EDF2E013824B
:10213000128288EE93E0A0E0B0E084839583A683CA
:10214000B78386E192E09183808308951092900393
:1021500081E080938E0310928D0361E082E10E9402
:102160003D0F61E083E10E943D0FE9EBF0E08081EB
:102170008E7F808380818D7F808388E48093B80008
:1021800085E48093BC000895413208F043C09091EB
:1021900090039111FCCF91E09093900320938E03D4
:1021A0002FEF2093230310926803240F20936703DB
:1021B00090938F0390918F03880F892B80938F03C7
:1021C00080918D03813009F510928D0380918F03EA
:1021D0008093BB008091BC0083FDF8CF85EC809399
:1021E000BC00809190038130E1F3809168038417F3
:1021F00010F440916803A9E6B3E0962FFB018E2FFF
:10220000891B841720F0842F089585EEE8CF8D91E7
:102210008193F5CF40E0F7CF0F93413208F04BC0E8
:10222000909190039111FCCF92E0909390030093D2
:102230008E039FEF909323031092680340936703EC
:10224000362FA9E6B3E0FB019E2F931B941770F184
:1022500010928F0390918F03880F892B80938F03A7
:1022600080918D03813029F510928D0380918F0329
:102270008093BB008091BC0083FDF8CF85EC8093F8
:10228000BC00222321F0809190038230D1F3809111
:1022900023038F3F91F080912303803281F080915E
:1022A0002303803371F084E00F91089591919D9301
:1022B000CBCF85EEE4CF81E0F7CF80E0F5CF82E0B1
:1022C000F3CF83E0F1CF40914503262F30E0240F78
:1022D000311D21323105DCF4209190032430C9F402
:1022E000FC0180E090E0861738F080914503680F8C
:1022F0006093450380E00895309145032191DC010E
:10230000A95BBC4FA30FB11D2C930196ECCF81E0CC
:10231000089582E0089585ED8093BC008091BC0013
:1023200084FDFCCF10929003089585EC8093BC004F
:102330001092900308951F920F920FB60F921124DE
:102340002F933F934F935F936F937F938F939F93BD
:10235000AF93BF93EF93FF938091B900887F80364E
:1023600009F44CC008F03FC0883209F4A8C018F541
:10237000803109F49CC0B8F4882309F4F9C088308E
:1023800009F495C0FF91EF91BF91AF919F918F910B
:102390007F916F915F914F913F912F910F900FBE61
:1023A0000F901F901895883109F489C0803251F739
:1023B0008093230315C0803409F49EC048F4803311
:1023C000B9F38833F9F6809323030E949511DACF8D
:1023D000803509F485C0883509F496C0883491F6B3
:1023E0000E948B11CFCF883909F48CC038F588371B
:1023F00029F050F4883611F0803721F683E080937D
:1024000090031092240357C0883809F47BC08039A8
:1024100019F0803809F0B6CF80912403803208F09B
:1024200071C0E091240381E08E0F8093240380919A
:10243000BB00F0E0EB5DFC4F80833DC0803B39F09A
:10244000E0F4803A09F479C0883A09F09BCF84E03F
:10245000809390031092460310924503E0918B0302
:10246000F0918C0309958091450381110FC081E0A3
:10247000809345031092470309C0803C09F476C05D
:10248000883C09F473C0883B09F07CCFE091460397
:1024900081E08E0F80934603F0E0E95BFC4F808182
:1024A0008093BB00909146038091450329C08091A1
:1024B0008F038093BB0085EC8093BC0063CF909129
:1024C000680380916703981758F5E091680381E0ED
:1024D0008E0F80936803F0E0E759FC4F8081E9CFCD
:1024E000E091680381E08E0F809368038091BB00C8
:1024F000F0E0E759FC4F8083909168038091670377
:102500009817C8F285E8D8CFE091680381E08E0F74
:10251000809368038091BB00F0E0E759FC4F808313
:1025200080918E0381115CCF81E080938D0384EADA
:102530008093BC001092900325CF0E94951180914A
:102540002403803230F4E0912403F0E0EB5DFC4F93
:1025500010826091240370E0E0918903F0918A0376
:1025600085E293E00995109224030CCF85ECE0CF2F
:102570001092230335CF28E6FC0120830895462FCF
:1025800069E1FC0180810C94291F0F93062F23E041
:1025900045E06AE1FC0180810E94D5200F910895F9
:1025A0000F93062F23E042E06AE1FC0180810E9444
:1025B000D5200F9108950F93062F22E044E06BE1A0
:1025C000FC0180810E94D5200F9108950F93062F62
:1025D00022E044E06CE1FC0180810E94D5200F9153
:1025E0000895462F6FE1FC0180810C94291F462F2E
:1025F00060E2FC0180810C94291F462F61E2FC01FE
:1026000080810C94291F462F62E2FC0180810C948A
:10261000291FFC01962F262F30E02430310534F499
:10262000660F690F6B5D80810C94291F0895462FFA
:1026300068E3FC0180810C94291FCF93DF93EC01A8
:1026400020910B0130910C01AC014F5F5F4F6AE3A9
:1026500088810E9438208981DF91CF910895262FAB
:1026600046E06AE6FC0180810C94A520262F45E017
:102670006AE6FC0180810C94A52021E042E06AE634
:10268000FC0180810C94A52021E041E06AE6FC0178
:1026900080810C94A52021E047E06BE6FC0180815D
:1026A0000C94A520262F46E06BE6FC0180810C945B
:1026B000A5200F93062F23E042E06BE6FC0180810A
:1026C0000E94D5200F910895CF93DF93EC0161E034
:1026D0000E94591360E0CE010E94DB1260E0CE013F
:1026E0000E94E61260E0CE01DF91CF910C9452136C
:1026F0000F931F93CF93DF93EC0100910B01109187
:102700000C019C012F5F3F4F42E062E788810E94ED
:10271000891F89819A81982789279827DF91CF91EE
:102720001F910F9108950F931F939B0100910B012F
:1027300010910C0164E7FC0180810E94891F1F91A8
:102740000F910895EF92FF920F931F93CF93DF9312
:10275000EC01E0900B01F0900C018C010F5F1F4F1A
:1027600026E046E065E788810E9467208981DF9145
:10277000CF911F910F91FF90EF9008950E94A213A7
:1027800091E0843309F090E0892F08950F931F930F
:10279000CF93DF93EC0100910B0110910C019C0190
:1027A0002F5F3F4F40E060E088810E944220898196
:1027B000DF91CF911F910F910895262F40E060E0A7
:1027C000FC0180810C94A520EF92FF920F931F9340
:1027D000CF93DF93EC01E0900B01F0900C018C01A2
:1027E0000F5F1F4F26E046E060E088810E9467206F
:1027F0008981DF91CF911F910F91FF90EF90089504
:102800000F93062F26E046E060E0FC0180810E94E5
:10281000D5200F910895EF92FF920F931F93CF93BE
:10282000DF93EC01E0900B01F0900C018C010F5F45
:102830001F4F26E046E061E088810E946720898181
:10284000DF91CF911F910F91FF90EF9008950F931B
:10285000062F26E046E061E0FC0180810E94D52041
:102860000F910895EF92FF920F931F93CF93DF93F1
:10287000EC01E0900B01F0900C018C010F5F1F4FF9
:1028800026E046E062E088810E9467208981DF912E
:10289000CF911F910F91FF90EF9008950F93062F06
:1028A00026E046E062E0FC0180810E94D5200F9185
:1028B0000895AB0166E0FC0180810C94771FAB01A9
:1028C00068E0FC0180810C94771FAB016AE0FC0199
:1028D00080810C94771FAB0163E1FC0180810C9433
:1028E000771FAB0165E1FC0180810C94771FAB0180
:1028F00067E1FC0180810C94771F262F47E06AE690
:10290000FC0180810C94A52021E043E06AE6FC01F3
:1029100080810C94A5206F71211160624111606467
:10292000462F6DE6FC0180810C94291F462F6EE630
:10293000FC0180810C94291FCF93DF93EC0120913F
:102940000B0130910C01AC014F5F5F4F6FE6888146
:102950000E9438208981DF91CF9108955F926F9214
:102960007F928F929F92AF92BF92CF92DF92EF921F
:10297000FF920F931F93CF93DF937C015B016A015A
:10298000522EC02F20E040E0652D0E948B14602F56
:10299000C7010E949614612C712C812C9924939468
:1029A0006C147D04A0F5C3014096C816D90668F5DD
:1029B000DC2DD6198D2F90E094012C1B310928179E
:1029C000390714F4DC2FD19500910B0110910C0103
:1029D0009501260D371D4D2F6FE6F70180810E946E
:1029E000891F6D0E711CCD0F6C147D04C8F6C111CA
:1029F00001C0539420E040E0652DC7010E948B1474
:102A00006C2FC7010E949614CBCFD0E1D3CFDF91BA
:102A1000CF911F910F91FF90EF90DF90CF90BF90DB
:102A2000AF909F908F907F906F905F9008952F92BE
:102A30003F924F925F926F927F928F929F92AF924E
:102A4000BF92CF92DF92EF92FF920F931F93CF939B
:102A5000DF9300D000D01F92CDB7DEB79D838C836B
:102A60007B836A833A01222ED02EE98220E040E067
:102A7000622D0E948B14602F8C819D810E94961480
:102A8000E980EE2029F080E190E00E94D9244C01F9
:102A9000CC2029F080E190E00E94D9245C01E12C57
:102AA000F12CE614F70408F099C0C70140966816A7
:102AB000790628F5362C3E18832D90E020E031E091
:102AC0002D1931092817390714F43D2C3194432C62
:102AD000512CCC20B9F020E0822F90E08415950590
:102AE000ACF4F701E80FF91F4A815B81E40FF51F91
:102AF000E4918A0D9B1DDC01EC932F5FEDCF80E10B
:102B0000382EDACFAA80BB80AE0CBF1C9501432DB6
:102B10006FE6EC81FD8180810E94F81EF981FF2320
:102B200009F445C08114910409F441C020E040E05B
:102B3000622D8C819D810E948B146D2D8C819D81D5
:102B40000E94961400910B0110910C019401432DE9
:102B50006FE6AC81BD818C910E94891FA201B401F6
:102B6000C5010E94C526892B11F1C4010E9471255F
:102B7000CC2021F0C5010E947125C12C8C2D0F9015
:102B80000F900F900F900F90DF91CF911F910F91A9
:102B9000FF90EF90DF90CF90BF90AF909F908F907D
:102BA0007F906F905F904F903F902F900895E40C2E
:102BB000F51CD30CE614F70408F073CFD11001C054
:102BC000239420E040E0622D8C819D810E948B1433
:102BD0006D2D8C819D810E94961463CFB981BB239A
:102BE00019F0C4010E947125CC2021F0C5010E947A
:102BF0007125C4CFCC24C394C1CFCF92EF920F9351
:102C0000CC24C3940E9417150F91EF90CF90089594
:102C10003F924F925F926F927F928F929F92AF926C
:102C2000BF92CF92DF92EF92FF920F931F93CF93B9
:102C3000DF933C014B012A01122F222331F088E05F
:102C400090E00E94D924D82EF92EC0E0D0E0C4151F
:102C5000D50508F077C0F401EC0FFD1FCE010396F7
:102C60005C011123E1F03490FE013196E80DF91D6D
:102C70000491FE013296E80DF91DE490E1101AC0AE
:102C80002496F401E80FF91FE491E13009F040C007
:102C900042E368E3F30180810E94291FD8CF30808E
:102CA0000181E280F401E80FF91FE1101FC02496B2
:102CB000E081EBCFCE2DD0E092E09E1538F4BE013E
:102CC0008D2D9F2D0E94FA25D82EF92EAD2DBF2DCA
:102CD00080E090E08C179D0758F4FC01EA0DFB1D85
:102CE000E80DF91DE491ED930196F4CFDE2EFF2E51
:102CF000CE2DD0E0C12CEE24E394232DAE016D2D1A
:102D00007F2DC3010E941715CA0DDB1D81119FCFB6
:102D1000112329F08D2D9F2D0E94712510E0812F08
:102D2000DF91CF911F910F91FF90EF90DF90CF90A7
:102D3000BF90AF909F908F907F906F905F904F90DB
:102D40003F900895112329F08D2D9F2D0E9471250C
:102D5000E6CF11E0E4CF21E00C940816462F60E79F
:102D6000FC0180810C94291F462F61E7FC018081C2
:102D70000C94291F4F925F926F927F928F929F9235
:102D8000AF92BF92CF92DF92EF92FF920F931F9379
:102D9000CF93DF93CDB7DEB768970FB6F894DEBF59
:102DA0000FBECDBF8C01FB018BA59CA5ADA5BEA51B
:102DB0008D879E87AF87B88B8FA598A9A9A9BAA937
:102DC000898B9A8BAB8BBC8B8BA99CA9ADA9BEA917
:102DD0008D8B9E8BAF8BB88F8FA898ACA9ACBAACFB
:102DE000C080D180E280F38084819581A681B78103
:102DF00089839A83AB83BC8380859185A285B385C3
:102E00008D839E83AF83B88784859585A685B78596
:102E100089879A87AB87BC872D853E854F855889E2
:102E2000C701B6010E9408242B013C0129893A8977
:102E30004B895C8969817A818B819C810E940824FD
:102E40009B01AC01C301B2010E9447212B013C014F
:102E50002D893E894F89588D6D817E818F8198851E
:102E60000E9408249B01AC01C301B2010E944721CA
:102E70002B013C01A501940169857A858B859C8590
:102E80000E9408249B01AC01C301B2010E944721AA
:102E9000D8016D937D938D939C93139729893A89DB
:102EA0004B895C89C701B6010E9408242B013C01B3
:102EB0002D853E854F85588969817A818B819C81DA
:102EC0000E9408249B01AC01C301B2010E94482169
:102ED0002B013C01A50194016D817E818F81988534
:102EE0000E9408249B01AC01C301B2010E94482149
:102EF0002B013C012D893E894F89588D69857A8542
:102F00008B859C850E9408249B01AC01C301B20102
:102F10000E944721F80164837583868397832D89F6
:102F20003E894F89588DC701B6010E9408242B01A4
:102F30003C01A501940169817A818B819C810E9469
:102F400008249B01AC01C301B2010E9447212B015F
:102F50003C012D853E854F8558896D817E818F810D
:102F600098850E9408249B01AC01C301B2010E9414
:102F700048212B013C0129893A894B895C89698563
:102F80007A858B859C850E9408249B01AC01C30136
:102F9000B2010E944821D80118966D937D938D93BC
:102FA0009C931B97A5019401C701B6010E940824B8
:102FB0006B017C012D893E894F89588D69817A8109
:102FC0008B819C810E9408249B01AC01C701B60142
:102FD0000E9448216B017C0129893A894B895C89CF
:102FE0006D817E818F8198850E9408249B01AC01B0
:102FF000C701B6010E9447216B017C012D853E85EA
:103000004F85588969857A858B859C850E9408241F
:103010009B01AC01C701B6010E944821F8016487F9
:10302000758786879787C80168960FB6F894DEBFC4
:103030000FBECDBFDF91CF911F910F91FF90EF9009
:10304000DF90CF90BF90AF909F908F907F906F90C8
:103050005F904F9008954F925F926F927F928F9200
:103060009F92AF92BF92EF92FF920F931F93CF93D5
:10307000DF93CDB7DEB7E0970FB6F894DEBF0FBE93
:10308000CDBF8C017B01FC0164817581072E000C92
:10309000880B990B0E94F0224B015C01F8016281C0
:1030A0007381072E000C880B990B0E94F0222B01D4
:1030B0003C01F80160817181072E000C880B990B8F
:1030C0000E94F022198A1A8A1B8A1C8A6D8B7E8BB9
:1030D0008F8B988F498E5A8E6B8E7C8E8D8E9E8EA6
:1030E000AF8EB8A28DB79EB740970FB6F8949EBF2B
:1030F0000FBE8DBFADB7BEB7119680E1FE017196D0
:1031000001900D928A95E1F7B701CE0181960E9458
:10311000BA1680E1FE01B196DE01519601900D9242
:103120008A95E1F7F70184859585A685B785B0581E
:103130004085518562857385705884809580A6800E
:10314000B780B7FAB094B7F8B094408051806280ED
:10315000738049825A826B827C828D829E82AF828A
:10316000B88649875A876B877C878D879E87AF870C
:10317000B88B8DB79EB740970FB6F8949EBF0FBE21
:103180008DBFADB7BEB7119680E1FE0131960190BB
:103190000D928A95E1F7BE016F5E7F4FCE01819659
:1031A0000E94BA1680E1FE01B196DE0151960190AF
:1031B0000D928A95E1F76D897E898F89988D0E949D
:1031C000B822F80171836083698D7A8D8B8D9C8D17
:1031D0000E94B822F801738362836D8D7E8D8F8D7E
:1031E00098A10E94B822F801758364830FB6F89401
:1031F000DEBF0FBECDBFE0960FB6F894DEBF0FBEA8
:10320000CDBFDF91CF911F910F91FF90EF90BF90B5
:10321000AF909F908F907F906F905F904F900895A8
:103220008F929F92AF92BF92CF92EF92FF920F93A5
:103230001F93CF93DF93CDB7DEB7C059D1090FB637
:10324000F894DEBF0FBECDBF5C010E944B136EE150
:1032500070E080E090E00E94820E60E0C5010E9474
:10326000521321E041E060E1C5010E948B1466E049
:10327000C5010E949614C5010E949C1420E040E004
:1032800060E0C5010E948B14C5010E94C613C501F0
:103290000E94E413982EC5010E940B14F82EC5015C
:1032A0000E943214182F4FE760E0C5010E940913F5
:1032B00060E0C5010E94361348E660E0C5010E9447
:1032C0000913C5010E94441364E170E080E090E0BE
:1032D0000E94820EEE24E39400E020E049E857E0EB
:1032E00066EC72E0C5010E94FD15882309F432C224
:1032F00040EC50E066E072E0C5010E94AB16882306
:1033000009F42AC263E0C5010E94591362E1C501B4
:103310000E94171364E0C5010E94BF1261E0C5015D
:103320000E94C51263E0C5010E94D01263E0C5018E
:103330000E94DB1263E0C5010E94AE1660E0C50189
:103340000E94B41660E0C5010E94DD13692DC5011D
:103350000E9400146F2DC5010E942714612FC50122
:103360000E944E14812C912C182DC40199271430E1
:1033700060F0CD57DF4F4881C358D04050E09A01EC
:103380002E5F3F4F2817390784F0F401E952FE4FB2
:10339000E49121E830E02C0F3D1F820F931FDC01E8
:1033A000EC93BFEF8B1A9B0ADFCFC12CEE24E39482
:1033B000CE57DF4F0881C258D040CF57DF4F28810A
:1033C000C158D04061E870E06C0F7D1F6D5F7F4F8A
:1033D000C5010E941715F82C282D211B822F90E083
:1033E000243060F0CD57DF4F4881C358D04050E0C3
:1033F0009A012E5F3F4F2817390784F0F401E952F4
:10340000FE4FE49121E830E02C0F3D1F820F931F07
:10341000DC01EC93BFEF8B1A9B0ADDCFC12CEE24AD
:10342000E394CE57DF4F0881C258D040CF57DF4FCB
:103430002881C158D04061E870E06C0F7D1F6D5F3E
:103440007F4FC5010E941715C5010E943D13C5019C
:103450000E947813482FBE016F5F7F4FC5010E9405
:10346000931362E0C5010E94F1126CE9C5010E944C
:10347000FD1260E5C5010E94F71260E0C5010E94DF
:103480000313C5010E943D1361E0C5010E942F1383
:1034900061E0C5010E947D14C5010E948414182DAD
:1034A000282D2F19822F90E0243060F0CD57DF4F68
:1034B0004881C358D04050E09A012E5F3F4F2817F3
:1034C000390784F0F401E952FE4FE49121E830E03D
:1034D0002C0F3D1F820F931FDC01EC93BFEF8B1A63
:1034E0009B0ADDCFC12CEE24E394CE57DF4F088139
:1034F000C258D040CF57DF4F2881C158D04061E833
:1035000070E06C0F7D1F6D5F7F4FC5010E94171526
:10351000F82C282D211B822F90E0243060F0CD570D
:10352000DF4F4881C358D04050E09A012E5F3F4F93
:103530002817390784F0F401E952FE4FE49121E89D
:1035400030E02C0F3D1F820F931FDC01EC93BFEF87
:103550008B1A9B0ADDCFC12CEE24E394CE57DF4FAC
:103560000881C258D040CF57DF4F2881C158D04082
:1035700061E870E06C0F7D1F6D5F7F4FC5010E9499
:103580001715182D282D2F19822F90E0243060F068
:10359000CD57DF4F4881C358D04050E09A012E5F8D
:1035A0003F4F2817390784F0F401E952FE4FE491A8
:1035B00021E830E02C0F3D1F820F931FDC01EC93BC
:1035C000BFEF8B1A9B0ADDCFC12CEE24E394CE57BC
:1035D000DF4F0881C258D040CF57DF4F2881C158F4
:1035E000D04061E870E06C0F7D1F6D5F7F4FC501BB
:1035F0000E941715C5010E94781383309105D0F3FE
:10360000482FBE016F5F7F4FC5010E949313C50114
:103610000E941D13282D211B822F90E0243060F082
:10362000CD57DF4F4881C358D04050E09A012E5FFC
:103630003F4F2817390784F0F401E952FE4FE49117
:1036400021E830E02C0F3D1F820F931FDC01EC932B
:10365000BFEF8B1A9B0ADECFCE57DF4F0881C258CF
:10366000D040CF57DF4F2881C158D04061E870E08B
:103670006C0F7D1F6D5F7F4FC5010E94AE14C501A9
:103680000E94781383309105D0F3482FBE016F5FFD
:103690007F4FC5010E949313C5010E941D1380E056
:1036A00090E09C013327843060F0CD57DF4F488194
:1036B000C358D04050E0BA016E5F7F4F6217730766
:1036C00084F0F401E80FF91FE952FE4FE49141E85C
:1036D00050E04C0F5D1F240F351FD901EC9301966C
:1036E000E0CF61E870E06C0F7D1F6D5F7F4FC12CF4
:1036F000EE24E394CE57DF4F0881C258D040CF5715
:10370000DF4F2881C158D040C5010E94171560E0E5
:10371000C5010E947D148AE290E0F50193838283C3
:10372000C5010E943D13C5010E941D1380E0C057D2
:10373000DF4F0FB6F894DEBF0FBECDBFDF91CF9144
:103740001F910F91FF90EF90CF90BF90AF909F90FF
:103750008F90089581E0EBCF82E0E9CFCF93DF93A4
:10376000DB01FA01309719F4EC01E881F981848DCD
:1037700090E0982F8827258D820F911D11969C939C
:103780008E9380A190E0982F882721A1820F911D10
:1037900013969C938E93129784A190E0982F88277C
:1037A00025A1820F911D15969C938E93149780E00E
:1037B000DF91CF910895CF93DF93DB01FA0130972A
:1037C00019F4EC01E881F981808190E0982F882735
:1037D0002181820F911D11969C938E93848190E09C
:1037E000982F88272581820F911D13969C938E9385
:1037F0001297808590E0982F88272185820F911D50
:1038000015969C938E931497848590E0982F882723
:103810002585820F911D17969C938E93169780E0B5
:10382000DF91CF910895FF920F931F93CF93DF9372
:10383000CDB7DEB728970FB6F894DEBF0FBECDBF69
:103840008B01BE016F5F7F4F0E94DB1BF82E811141
:103850004CC069817A81072E000C880B990B0E945D
:10386000F02220E030E040E858E30E940824F8010C
:1038700060837183828393836B817C81072E000C2C
:10388000880B990B0E94F02220E030E040E858E3DA
:103890000E940824F80164837583868397836D8171
:1038A0007E81072E000C880B990B0E94F02220E0ED
:1038B00030E040E858E30E940824F80160877187EF
:1038C000828793876F817885072E000C880B990B70
:1038D0000E94F02220E030E040E858E30E940824F3
:1038E000F80164877587868797878F2D28960FB68E
:1038F000F894DEBF0FBECDBFDF91CF911F910F9126
:10390000FF9008958F929F92AF92BF92CF92DF92D5
:10391000EF92FF920F931F93CF93DF93EB017A0106
:103920008901FA0160817181072E000C880B990BC7
:103930000E94F0224B015C0120E030E040E056E4C0
:10394000F80160817181828193810E9408249B012A
:10395000AC01C501B4010E9447210E94B8227983BD
:103960006883F70162817381072E000C880B990B25
:103970000E94F0224B015C0120E030E040E056E480
:10398000F80164817581868197810E9408249B01DA
:10399000AC01C501B4010E9447210E94B8227B837B
:1039A0006A83F70164817581072E000C880B990BDF
:1039B0000E94F0226B017C0120E030E040E056E400
:1039C000F80160857185828593850E9408249B019A
:1039D000AC01C701B6010E9447210E94B8227D8335
:1039E0006C8380E0DF91CF911F910F91FF90EF905A
:1039F000DF90CF90BF90AF909F908F900895CB01B4
:103A0000B90136E0FA01DC0101900D923A95E1F737
:103A10000E942B1880E008954F925F926F927F92E0
:103A20008F929F92AF92BF92CF92DF92EF92FF92CE
:103A30000F931F93CF93DF93CDB7DEB728970FB6C1
:103A4000F894DEBF0FBECDBF8B01DA011496CD9086
:103A5000DD90ED90FC9017971C964D905D906D90C9
:103A60007C901F978D909D90AD90BC901397189669
:103A70008D919D910D90BC91A02D89839A83AB83EC
:103A8000BC83A3019201C701B6010E9408246D8383
:103A90007E838F83988729813A814B815C81C50120
:103AA000B4010E9408249B01AC016D817E818F814D
:103AB00098850E9447219B01AC010E944821F80192
:103AC0006083718382839383A5019401C701B6014A
:103AD0000E9408246D837E838F83988729813A8191
:103AE0004B815C81C301B2010E9408249B01AC019F
:103AF0006D817E818F8198850E9448219B01AC0158
:103B00000E944821D80114966D937D938D939C93C8
:103B10001797A5019401C501B4010E9408244B0127
:103B20005C01A7019601C701B6010E9408249B0110
:103B3000AC01C501B4010E9447216B017C012981C0
:103B40003A814B815C81CA01B9010E9408249B0122
:103B5000AC01C701B6010E9447216B017C01A301A2
:103B60009201C301B2010E9408249B01AC01C7016C
:103B7000B6010E944821F801608771878287938788
:103B800080E028960FB6F894DEBF0FBECDBFDF9160
:103B9000CF911F910F91FF90EF90DF90CF90BF904A
:103BA000AF909F908F907F906F905F904F9008950F
:103BB0002F923F924F925F926F927F928F929F923D
:103BC000AF92BF92CF92DF92EF92FF920F931F932B
:103BD000CF93DF9300D000D0CDB7DEB78B011A01B1
:103BE000FA01C080D180E280F380A7019601C7016D
:103BF000B6010E94482169837A838B839C83F101FB
:103C000084809580A680B780A5019401C501B40188
:103C10000E9448212B013C0129813A814B815C8122
:103C2000C701B6010E9408246B017C01A301920127
:103C3000C501B4010E9408249B01AC01C701B60173
:103C40000E94482120E030E040E85FE30E944721E5
:103C50006B017C01F1012085318542855385C301CB
:103C6000B2010E9408242B013C01F1012485358515
:103C70004685578569817A818B819C810E940824C1
:103C80009B01AC01C301B2010E944721A70196012B
:103C90000E94E221F8016083718382839383F101A2
:103CA00064817581868197819B01AC010E944821C6
:103CB000F10124853585468557850E9408246B01CE
:103CC0007C01F10160817181828193819B01AC0152
:103CD0000E944821F10120853185428553850E944B
:103CE00008249B01AC01C701B6010E9448210E9433
:103CF000B4219058F8016483758386839783F1011A
:103D00004080518062807380A3019201C301B2019F
:103D10000E9448214B015C01F101C484D584E684F2
:103D2000F784A7019601C701B6010E944821A701A7
:103D300096010E94082469837A838B839C83A50162
:103D40009401C301B2010E9408249B01AC01698166
:103D50007A818B819C810E94482120E030E040E8FC
:103D60005FE30E9447212B013C01F10160857185D1
:103D7000828593859B01AC010E944821A701960191
:103D80000E9408246B017C01F10124813581468168
:103D90005781C501B4010E9408249B01AC01C701F1
:103DA000B6010E944721A30192010E94E221F8017D
:103DB000608771878287938780E00F900F900F90C4
:103DC0000F90DF91CF911F910F91FF90EF90DF90B7
:103DD000CF90BF90AF909F908F907F906F905F90AB
:103DE0004F903F902F900895FC0182819381089518
:103DF000EF92FF920F931F93CF93C62F042F790159
:103E0000682F81ED92E00E9405106C2F81ED92E009
:103E10000E94CA0FC0E010E08C2F90E0801791073D
:103E200054F48E0D9F1DFC01608181ED92E00E9493
:103E3000CA0FCF5FF1CF81ED92E00E94921091E026
:103E4000811190E0892FCF911F910F91FF90EF90FA
:103E50000895CF93DF931F92CDB7DEB749839E01BC
:103E60002F5F3F4F41E00E94F81E0F90DF91CF91EE
:103E70000895CF92DF92FF920F931F93CF93DF931A
:103E8000C62F042F6901682F81ED92E00E94051072
:103E90006C2F81ED92E00E94CA0F10E0000F111FFD
:103EA000F12CCF2DD0E0C017D1078CF4CC0FDD1F43
:103EB000CC0DDD1D698181ED92E00E94CA0F688101
:103EC00081ED92E00E94CA0FF394F394EACF81ED62
:103ED00092E00E94921091E0811190E0892FDF9191
:103EE000CF911F910F91FF90DF90CF900895CF93C6
:103EF000DF9300D0CDB7DEB75A8349839E012F5F91
:103F00003F4F41E00E94391F0F900F90DF91CF91FA
:103F100008952F923F924F925F926F927F928F926D
:103F20009F92AF92BF92CF92DF92EF92FF920F9348
:103F30001F93CF93DF9300D000D01F92CDB7DEB791
:103F4000382E6983542E3B832A830E94510E6B01C5
:103F50007C01212C412C652C712C4801A12CB12C09
:103F6000822D90E09D838C8386159705F4F5632D53
:103F700081ED92E00E940510698181ED92E00E943E
:103F8000CA0F81ED92E00E949210632D81ED92E0C4
:103F90000E940510A301EC81FD814E1B5F0B413295
:103FA000510514F040E250E0632D81ED92E00E9453
:103FB0008F1081ED92E00E946C0F892B79F0011532
:103FC000110509F444C00E94510E6C197D098E0937
:103FD0009F09681579058A059B05C8F1852DF0E2D2
:103FE000F51508F480E2280EBBCF01151105B1F0DC
:103FF0000E94510E6C197D098E099F0920E030E066
:10400000601771078207930748F0842D042C000C79
:10401000990B8615970514F444244A94842D0F9027
:104020000F900F900F900F90DF91CF911F910F91F4
:10403000FF90EF90DF90CF90BF90AF909F908F90C8
:104040007F906F905F904F903F902F9008958A815E
:104050009B81840D911D47FC9A959D838C8381EDF6
:1040600092E00E94740FEC81FD8180834394A1CF84
:104070000F931F9389019A0141E00E94891F1F91AC
:104080000F910895DF92EF92FF920F931F93CF93BA
:10409000DF931F92CDB7DEB7D42E79019801AE0120
:1040A0004F5F5F4F0E94382021E030E001C0220FB7
:1040B000DA94EAF799819223F70190830F90DF91C8
:1040C000CF911F910F91FF90EF90DF900895CF92C5
:1040D000DF92EF92FF920F931F93CF93DF931F9284
:1040E000CDB7DEB7D42EC22E9701AE014F5F5F4F22
:1040F0000E9438208823F9F04D2D50E04C195109C9
:104100004F5F5F4F21E030E002C0220F331FCA949F
:10411000E2F721503109B901042E01C0660F0A945B
:10412000EAF72981262330E002C0359527954A9584
:10413000E2F7F80120830F90DF91CF911F910F914B
:10414000FF90EF90DF90CF900895EF92FF920F9342
:104150001F93CF93DF931F92CDB7DEB7182F062F93
:10416000F42EE22E20910B0130910C01AE014F5F35
:104170005F4F0E943820498181E090E001C0880FA4
:10418000FA94EAF7EE2071F0482B4983602F812FD3
:104190000E94291F0F90DF91CF911F910F91FF90E7
:1041A000EF90089580954823F0CFDF92EF92FF9231
:1041B0000F931F93CF93DF931F92CDB7DEB7182FC6
:1041C000F62EE42ED22E20910B0130910C01AE017F
:1041D0004F5F5F4F0E943820882379F12E2D30E009
:1041E0002D1931092F5F3F4F81E090E002C0880F09
:1041F000991FDA94E2F70197022E01C0880F0A9402
:10420000EAF7402F50E0BA0102C0660F771F2A95E7
:10421000E2F7482F4095098140238623482B4983A4
:104220006F2D812F0E94291F0F90DF91CF911F9139
:104230000F91FF90EF90DF90089580E0F5CFA1E21D
:104240001A2EAA1BBB1BFD010DC0AA1FBB1FEE1F10
:10425000FF1FA217B307E407F50720F0A21BB30B5B
:10426000E40BF50B661F771F881F991F1A9469F7D7
:1042700060957095809590959B01AC01BD01CF0133
:104280000895EE0FFF1F0590F491E02D099450580A
:10429000BB27AA270E945F210C94C1230E94B3234D
:1042A00038F00E94BA2320F039F49F3F19F426F425
:1042B0000C9475230EF4E095E7FB0C946F23E92F23
:1042C0000E94D22358F3BA17620773078407950731
:1042D00020F079F4A6F50C94F4230EF4E0950B2E5F
:1042E000BA2FA02D0B01B90190010C01CA01A00148
:1042F0001124FF27591B99F0593F50F4503E68F1A3
:104300001A16F040A22F232F342F4427585FF3CFE3
:10431000469537952795A795F0405395C9F77EF4B4
:104320001F16BA0B620B730B840BBAF09150A1F0FD
:10433000FF0FBB1F661F771F881FC2F70EC0BA0F83
:10434000621F731F841F48F4879577956795B7950B
:10435000F7959E3F08F0B0CF9395880F08F0992706
:10436000EE0F9795879508959F939F77EEE3893792
:104370009E0728F4E8E6F0E00E949F230CC00E940C
:104380002B239058A2EA2AED3FE049EC5FE30E941C
:104390005F210E94C1230F9007FC905808950E944E
:1043A000B32360F080E891E009F49EEF0E94BA2305
:1043B00028F040E851E071F45EEF0CC00C947523D6
:1043C0000C94F423E92FE0780E94D22340F3092EC5
:1043D000052AB1F3261737074807590738F00E2E7C
:1043E00007F8E02569F0E025E0640AC0EF6307F80C
:1043F000009407FADB01B9019D01DC01CA01AD019E
:10440000EF930E945D220E94C1230E9412225F91BD
:10441000552339F02BED3FE049E450FD49EC0C9475
:1044200048210895DF93DD27B92FBF7740E85FE388
:104430001616170648075B0718F4D92F0E940024A8
:104440009F938F937F936F930E94BB24ECE7F0E0E0
:104450000E9478230E94C1232F913F914F915F9139
:104460000E941B24DD2351F09058A2EA2AED3FE080
:1044700049EC5FE3D0785D270E945F21DF910C94C7
:10448000C1230E944B2308F481E008950E945A2220
:104490000C94C1230E94BA2358F00E94B32340F029
:1044A00029F45F3F29F00C946F2351110C94F523EC
:1044B0000C9475230E94D22368F39923B1F35523FA
:1044C00091F3951B550BBB27AA2762177307840727
:1044D00038F09F5F5F4F220F331F441FAA1FA9F3BD
:1044E00035D00E2E3AF0E0E832D091505040E695AB
:1044F000001CCAF72BD0FE2F29D0660F771F881F0C
:10450000BB1F261737074807AB07B0E809F0BB0BFE
:10451000802DBF01FF2793585F4F3AF09E3F510512
:1045200078F00C946F230C94F5235F3FE4F3983EEE
:10453000D4F3869577956795B795F7959F5FC9F7FB
:10454000880F911D9695879597F90895E1E0660F7C
:10455000771F881FBB1F621773078407BA0720F0F5
:10456000621B730B840BBA0BEE1F88F7E09508955E
:104570000E94BF226894B1110C94F52308950E9403
:10458000DA2388F09F5798F0B92F9927B751B0F0E8
:10459000E1F0660F771F881F991F1AF0BA95C9F7C7
:1045A00014C0B13091F00E94F423B1E008950C944E
:1045B000F423672F782F8827B85F39F0B93FCCF301
:1045C000869577956795B395D9F73EF49095809544
:1045D000709561957F4F8F4F9F4F0895E89409C064
:1045E00097FB3EF490958095709561957F4F8F4F26
:1045F0009F4F9923A9F0F92F96E9BB279395F6953C
:10460000879577956795B795F111F8CFFAF4BB0FB9
:1046100011F460FF1BC06F5F7F4F8F4F9F4F16C01D
:10462000882311F096E911C0772321F09EE8872FA7
:10463000762F05C0662371F096E8862F70E060E063
:104640002AF09A95660F771F881FDAF7880F9695DC
:10465000879597F90895DF93CF931F930F938B015D
:10466000EC01E9EAF0E00E9478230E94C12398015E
:10467000AE018B01EC0160E070E080E89FE30E94F6
:1046800047210E947B249801AE010F911F91CF9189
:10469000DF910C941B24990F0008550FAA0BE0E83A
:1046A000FEEF16161706E807F907C0F012161306F4
:1046B000E407F50798F0621B730B840B950B39F434
:1046C0000A2661F0232B242B252B21F408950A269A
:1046D00009F4A140A6958FEF811D811D089597F9DA
:1046E0009F6780E870E060E008959FEF80EC089598
:1046F000DF93CF931F930F93FF92EF92DF927B0193
:104700008C01689406C0DA2EEF010E941B24FE0182
:10471000E894A5912591359145915591A6F3EF0126
:104720000E945F21FE019701A801DA9469F7DF90EA
:10473000EF90FF900F911F91CF91DF9108959F937C
:104740008F937F936F93FF93EF939B01AC010E9434
:104750000824EF91FF910E9478232F913F914F9170
:104760005F910C94082400240A9416161706180664
:104770000906089500240A94121613061406050665
:104780000895092E0394000C11F4882352F0BB0FF6
:1047900040F4BF2B11F460FF04C06F5F7F4F8F4F59
:1047A0009F4F089557FD9058440F551F59F05F3F94
:1047B00071F04795880F97FB991F61F09F3F79F043
:1047C00087950895121613061406551FF2CF4695C5
:1047D000F1DF08C0161617061806991FF1CF869547
:1047E0007105610508940895E894BB27662777272B
:1047F000CB0197F908950E944B2308F48FEF089599
:104800009B01AC0160E070E080E89FE30C944622DD
:104810000E941B240C94C1230E94B32338F00E94F1
:10482000BA2320F0952311F00C946F230C94752378
:1048300011240C94F5230E94D22370F3959FC1F3A9
:10484000950F50E0551F629FF001729FBB27F00D3E
:10485000B11D639FAA27F00DB11DAA1F649F662793
:10486000B00DA11D661F829F2227B00DA11D621FE2
:10487000739FB00DA11D621F839FA00D611D221F9C
:10488000749F3327A00D611D231F849F600D211D80
:10489000822F762F6A2F11249F5750409AF0F1F003
:1048A00088234AF0EE0FFF1FBB1F661F771F881F6C
:1048B00091505040A9F79E3F510580F00C946F2312
:1048C0000C94F5235F3FE4F3983ED4F386957795F7
:1048D0006795B795F795E7959F5FC1F7FE2B880F12
:1048E000911D9695879597F9089519F416F40C94EF
:1048F00075230C94C4240E94DA23B8F39923C9F3D6
:10490000B6F39F57550B87FF0E94D2240024A0E6E0
:1049100040EA900180585695979528F4805C660F80
:10492000771F881F20F026173707480730F4621BCF
:10493000730B840B202931294A2BA69517940794D1
:10494000202531254A2758F7660F771F881F20F04A
:1049500026173707480730F4620B730B840B200DC2
:10496000311D411DA09581F7B901842F9158880F01
:104970009695879508959B01AC010C9408240E949C
:104980004B23880B990B08959F3F31F0915020F4F1
:10499000879577956795B795880F911D969587951B
:1049A00097F9089591505040660F771F881FD2F7EE
:1049B00008950F931F93CF93DF938230910510F4E6
:1049C00082E090E0E0919303F091940320E030E0E6
:1049D000A0E0B0E0309719F140815181028113814C
:1049E00048175907C8F08417950769F4109731F0F4
:1049F00012960C93129713961C9327C0009393035F
:104A00001093940322C02115310519F04217530762
:104A100018F49A01BD01EF01DF01F801DBCF211588
:104A20003105F9F0281B390B2430310580F48A81D7
:104A30009B816115710521F0FB019383828304C082
:104A40009093940380939303FE01329644C0FE0139
:104A5000E20FF31F81939193225031093983288308
:104A60003AC02091910330919203232B41F420917D
:104A7000020130910301309392032093910320911E
:104A80000001309101012115310541F42DB73EB7E8
:104A90004091040150910501241B350BE0919103D5
:104AA000F0919203E217F307A0F42E1B3F0B281797
:104AB000390778F0AC014E5F5F4F2417350748F097
:104AC0004E0F5F1F509392034093910381939193F4
:104AD00002C0E0E0F0E0CF01DF91CF911F910F9194
:104AE0000895CF93DF93009709F481C0FC013297BA
:104AF00013821282A0919303B0919403109781F4D2
:104B000020813181820F931F209191033091920374
:104B10002817390751F5F0939203E093910367C08A
:104B2000ED0120E030E0CE17DF0740F44A815B81E1
:104B30009E0141155105F1F0EA01F5CFD383C283FF
:104B400040815181840F951FC817D90759F4888176
:104B50009981840F951F0296918380838A819B811E
:104B6000938382832115310529F4F0939403E09314
:104B700093033DC0E901FB83EA8349915991C40F36
:104B8000D51FEC17FD0761F480819181840F951F7B
:104B90000296E90199838883828193819B838A832A
:104BA000E0E0F0E012968D919C911397009719F038
:104BB000FD01DC01F7CF8D919C9111979D012E5F36
:104BC0003F4F820F931F209191033091920328173A
:104BD000390769F4309729F41092940310929303E3
:104BE00002C013821282B0939203A0939103DF91CB
:104BF000CF910895A0E0B0E0E0E0F6E20C94F12659
:104C0000EC01009721F4CB010E94D924B4C0FC012F
:104C1000E60FF71F9C0122503109E217F30708F451
:104C2000A8C0D9010D911C91119706171707B0F074
:104C30000530110508F49BC0C80104978617970733
:104C400008F495C002501109061B170B019311932C
:104C50006D937C93CF010E94712589C05B01A01ADE
:104C6000B10A4C01800E911EA0919303B091940360
:104C7000612C712CE12CF12C109709F446C08D9118
:104C80009C911197A815B905B1F56C0142E0C40ECD
:104C9000D11CCA14DB0478F14C018A189B0864010A
:104CA00042E0C40ED11C1296BC9012971396AC91A0
:104CB000B5E0CB16D10440F0B282A383918280820A
:104CC000D9016D937C9309C00E5F1F4F800F911F18
:104CD000F90191838083EB2DFA2FE114F10431F077
:104CE000D7011396FC93EE93129741C0F09394036F
:104CF000E09393033CC06816790608F43C017D01FB
:104D000012960D90BC91A02DB7CF809191039091F8
:104D1000920388169906E1F466167706C8F4809126
:104D2000000190910101009741F48DB79EB7409129
:104D3000040150910501841B950BE817F907C8F48D
:104D4000F0939203E0939103F901718360830FC0A4
:104D5000CB010E94D9247C01009759F0A801BE0123
:104D60000E94D226CE010E947125C70104C0CE0147
:104D700002C080E090E0CDB7DEB7EEE00C940D27E6
:104D800081E090E0F8940C942427FB01DC0104C03E
:104D90008D910190801921F441505040C8F7881B33
:104DA000990B0895FB01DC0102C001900D92415066
:104DB0005040D8F708956817790768F4FB01DC01C3
:104DC000E40FF51FA40FB51F02C002900E924150D0
:104DD0005040D8F708950C94D2262F923F924F92CC
:104DE0005F926F927F928F929F92AF92BF92CF927B
:104DF000DF92EF92FF920F931F93CF93DF93CDB784
:104E0000DEB7CA1BDB0B0FB6F894DEBF0FBECDBFFB
:104E100009942A88398848885F846E847D848C84CC
:104E20009B84AA84B984C884DF80EE80FD800C81D5
:104E30001B81AA81B981CE0FD11D0FB6F894DEBFB8
:104E40000FBECDBFED01089515E0CBE2D5E004C063
:104E5000FE010E9441212196CC32D107C9F7F89476
:024E6000FFCF82
:104E6200000095032000980D980D01E803720900D7
:104E72006109004D50553630353020636F6E6E65D6
:104E82006374696F6E207375636365737366756CA3
:104E9200004D50553630353020636F6E6E65637449
:104EA200696F6E206661696C656400496E69746938
:104EB200616C697A696E672049324320646576695C
:104EC2006365732E2E2E0054657374696E672064B9
:104ED200657669636520636F6E6E656374696F6E74
:104EE200732E2E2E000A53656E6420616E79206344
:104EF200686172616374657220746F2062656769AC
:104F02006E20444D502070726F6772616D6D696ED4
:104F12006720616E642064656D6F3A2000000000B6
:104F2200006B055A05610500000000820D000000BB
:104F32000066090000000000AE079D07A407415467
:104F42000D0A0041542B554152543D313135323016
:104F5200302C312C300000000000F009270B7109C1
:104F62008B097D09CE09696E66006F7666006E61F7
:104F72006E0000000000CA0F9D0F6C0F740F8A0FA5
:024F82009C0F82
:00000001FF
